{
    "abi": [
        {
            "inputs": [
                {
                    "internalType": "uint256",
                    "name": "minimum",
                    "type": "uint256"
                }
            ],
            "name": "createCampaign",
            "outputs": [],
            "stateMutability": "nonpayable",
            "type": "function"
        },
        {
            "inputs": [
                {
                    "internalType": "uint256",
                    "name": "",
                    "type": "uint256"
                }
            ],
            "name": "deployedCampaigns",
            "outputs": [
                {
                    "internalType": "contract Campaign",
                    "name": "",
                    "type": "address"
                }
            ],
            "stateMutability": "view",
            "type": "function"
        },
        {
            "inputs": [],
            "name": "getCampaigns",
            "outputs": [
                {
                    "internalType": "contract Campaign[]",
                    "name": "",
                    "type": "address[]"
                }
            ],
            "stateMutability": "view",
            "type": "function"
        }
    ],
    "devdoc": {
        "kind": "dev",
        "methods": {},
        "version": 1
    },
    "evm": {
        "assembly": "    /* \"Campaign.sol\":135:498  contract CampaignFactory {... */\n  mstore(0x40, 0x80)\n  callvalue\n  dup1\n  iszero\n  tag_1\n  jumpi\n  0x00\n  dup1\n  revert\ntag_1:\n  pop\n  dataSize(sub_0)\n  dup1\n  dataOffset(sub_0)\n  0x00\n  codecopy\n  0x00\n  return\nstop\n\nsub_0: assembly {\n        /* \"Campaign.sol\":135:498  contract CampaignFactory {... */\n      mstore(0x40, 0x80)\n      callvalue\n      dup1\n      iszero\n      tag_1\n      jumpi\n      0x00\n      dup1\n      revert\n    tag_1:\n      pop\n      jumpi(tag_2, lt(calldatasize, 0x04))\n      shr(0xe0, calldataload(0x00))\n      dup1\n      0x339d50a5\n      eq\n      tag_3\n      jumpi\n      dup1\n      0xa3303a75\n      eq\n      tag_4\n      jumpi\n      dup1\n      0xa6b03633\n      eq\n      tag_5\n      jumpi\n    tag_2:\n      0x00\n      dup1\n      revert\n        /* \"Campaign.sol\":167:202  Campaign[] public deployedCampaigns */\n    tag_3:\n      tag_6\n      0x04\n      dup1\n      calldatasize\n      sub\n      dup2\n      add\n      swap1\n      tag_7\n      swap2\n      swap1\n      tag_8\n      jump\t// in\n    tag_7:\n      tag_9\n      jump\t// in\n    tag_6:\n      mload(0x40)\n      tag_10\n      swap2\n      swap1\n      tag_11\n      jump\t// in\n    tag_10:\n      mload(0x40)\n      dup1\n      swap2\n      sub\n      swap1\n      return\n        /* \"Campaign.sol\":326:495  function createCampaign(uint256 minimum) public {... */\n    tag_4:\n      tag_12\n      0x04\n      dup1\n      calldatasize\n      sub\n      dup2\n      add\n      swap1\n      tag_13\n      swap2\n      swap1\n      tag_8\n      jump\t// in\n    tag_13:\n      tag_14\n      jump\t// in\n    tag_12:\n      stop\n        /* \"Campaign.sol\":211:318  function getCampaigns() public view returns (Campaign[] memory) {... */\n    tag_5:\n      tag_15\n      tag_16\n      jump\t// in\n    tag_15:\n      mload(0x40)\n      tag_17\n      swap2\n      swap1\n      tag_18\n      jump\t// in\n    tag_17:\n      mload(0x40)\n      dup1\n      swap2\n      sub\n      swap1\n      return\n        /* \"Campaign.sol\":167:202  Campaign[] public deployedCampaigns */\n    tag_9:\n      0x00\n      dup2\n      dup2\n      sload\n      dup2\n      lt\n      tag_19\n      jumpi\n      0x00\n      dup1\n      revert\n    tag_19:\n      swap1\n      0x00\n      mstore\n      keccak256(0x00, 0x20)\n      add\n      0x00\n      swap2\n      pop\n      sload\n      swap1\n      0x0100\n      exp\n      swap1\n      div\n      0xffffffffffffffffffffffffffffffffffffffff\n      and\n      dup2\n      jump\t// out\n        /* \"Campaign.sol\":326:495  function createCampaign(uint256 minimum) public {... */\n    tag_14:\n        /* \"Campaign.sol\":385:405  Campaign newCampaign */\n      0x00\n        /* \"Campaign.sol\":421:428  minimum */\n      dup2\n        /* \"Campaign.sol\":430:440  msg.sender */\n      caller\n        /* \"Campaign.sol\":408:441  new Campaign(minimum, msg.sender) */\n      mload(0x40)\n      tag_22\n      swap1\n      tag_23\n      jump\t// in\n    tag_22:\n      tag_24\n      swap3\n      swap2\n      swap1\n      tag_25\n      jump\t// in\n    tag_24:\n      mload(0x40)\n      dup1\n      swap2\n      sub\n      swap1\n      0x00\n      create\n      dup1\n      iszero\n      dup1\n      iszero\n      tag_26\n      jumpi\n      returndatasize\n      0x00\n      dup1\n      returndatacopy\n      revert(0x00, returndatasize)\n    tag_26:\n      pop\n        /* \"Campaign.sol\":385:441  Campaign newCampaign = new Campaign(minimum, msg.sender) */\n      swap1\n      pop\n        /* \"Campaign.sol\":452:469  deployedCampaigns */\n      0x00\n        /* \"Campaign.sol\":475:486  newCampaign */\n      dup2\n        /* \"Campaign.sol\":452:487  deployedCampaigns.push(newCampaign) */\n      swap1\n      dup1\n      0x01\n      dup2\n      sload\n      add\n      dup1\n      dup3\n      sstore\n      dup1\n      swap2\n      pop\n      pop\n      0x01\n      swap1\n      sub\n      swap1\n      0x00\n      mstore\n      keccak256(0x00, 0x20)\n      add\n      0x00\n      swap1\n      swap2\n      swap1\n      swap2\n      swap1\n      swap2\n      0x0100\n      exp\n      dup2\n      sload\n      dup2\n      0xffffffffffffffffffffffffffffffffffffffff\n      mul\n      not\n      and\n      swap1\n      dup4\n      0xffffffffffffffffffffffffffffffffffffffff\n      and\n      mul\n      or\n      swap1\n      sstore\n      pop\n        /* \"Campaign.sol\":374:495  {... */\n      pop\n        /* \"Campaign.sol\":326:495  function createCampaign(uint256 minimum) public {... */\n      pop\n      jump\t// out\n        /* \"Campaign.sol\":211:318  function getCampaigns() public view returns (Campaign[] memory) {... */\n    tag_16:\n        /* \"Campaign.sol\":256:273  Campaign[] memory */\n      0x60\n        /* \"Campaign.sol\":293:310  deployedCampaigns */\n      0x00\n        /* \"Campaign.sol\":286:310  return deployedCampaigns */\n      dup1\n      sload\n      dup1\n      0x20\n      mul\n      0x20\n      add\n      mload(0x40)\n      swap1\n      dup2\n      add\n      0x40\n      mstore\n      dup1\n      swap3\n      swap2\n      swap1\n      dup2\n      dup2\n      mstore\n      0x20\n      add\n      dup3\n      dup1\n      sload\n      dup1\n      iszero\n      tag_29\n      jumpi\n      0x20\n      mul\n      dup3\n      add\n      swap2\n      swap1\n      0x00\n      mstore\n      keccak256(0x00, 0x20)\n      swap1\n    tag_30:\n      dup2\n      0x00\n      swap1\n      sload\n      swap1\n      0x0100\n      exp\n      swap1\n      div\n      0xffffffffffffffffffffffffffffffffffffffff\n      and\n      0xffffffffffffffffffffffffffffffffffffffff\n      and\n      dup2\n      mstore\n      0x20\n      add\n      swap1\n      0x01\n      add\n      swap1\n      dup1\n      dup4\n      gt\n      tag_30\n      jumpi\n    tag_29:\n      pop\n      pop\n      pop\n      pop\n      pop\n      swap1\n      pop\n        /* \"Campaign.sol\":211:318  function getCampaigns() public view returns (Campaign[] memory) {... */\n      swap1\n      jump\t// out\n    tag_23:\n      dataSize(sub_0)\n      dup1\n      dataOffset(sub_0)\n      dup4\n      codecopy\n      add\n      swap1\n      jump\t// out\n        /* \"#utility.yul\":88:205   */\n    tag_32:\n        /* \"#utility.yul\":197:198   */\n      0x00\n        /* \"#utility.yul\":194:195   */\n      dup1\n        /* \"#utility.yul\":187:199   */\n      revert\n        /* \"#utility.yul\":334:411   */\n    tag_34:\n        /* \"#utility.yul\":371:378   */\n      0x00\n        /* \"#utility.yul\":400:405   */\n      dup2\n        /* \"#utility.yul\":389:405   */\n      swap1\n      pop\n        /* \"#utility.yul\":334:411   */\n      swap2\n      swap1\n      pop\n      jump\t// out\n        /* \"#utility.yul\":417:539   */\n    tag_35:\n        /* \"#utility.yul\":490:514   */\n      tag_59\n        /* \"#utility.yul\":508:513   */\n      dup2\n        /* \"#utility.yul\":490:514   */\n      tag_34\n      jump\t// in\n    tag_59:\n        /* \"#utility.yul\":483:488   */\n      dup2\n        /* \"#utility.yul\":480:515   */\n      eq\n        /* \"#utility.yul\":470:533   */\n      tag_60\n      jumpi\n        /* \"#utility.yul\":529:530   */\n      0x00\n        /* \"#utility.yul\":526:527   */\n      dup1\n        /* \"#utility.yul\":519:531   */\n      revert\n        /* \"#utility.yul\":470:533   */\n    tag_60:\n        /* \"#utility.yul\":417:539   */\n      pop\n      jump\t// out\n        /* \"#utility.yul\":545:684   */\n    tag_36:\n        /* \"#utility.yul\":591:596   */\n      0x00\n        /* \"#utility.yul\":629:635   */\n      dup2\n        /* \"#utility.yul\":616:636   */\n      calldataload\n        /* \"#utility.yul\":607:636   */\n      swap1\n      pop\n        /* \"#utility.yul\":645:678   */\n      tag_62\n        /* \"#utility.yul\":672:677   */\n      dup2\n        /* \"#utility.yul\":645:678   */\n      tag_35\n      jump\t// in\n    tag_62:\n        /* \"#utility.yul\":545:684   */\n      swap3\n      swap2\n      pop\n      pop\n      jump\t// out\n        /* \"#utility.yul\":690:1019   */\n    tag_8:\n        /* \"#utility.yul\":749:755   */\n      0x00\n        /* \"#utility.yul\":798:800   */\n      0x20\n        /* \"#utility.yul\":786:795   */\n      dup3\n        /* \"#utility.yul\":777:784   */\n      dup5\n        /* \"#utility.yul\":773:796   */\n      sub\n        /* \"#utility.yul\":769:801   */\n      slt\n        /* \"#utility.yul\":766:885   */\n      iszero\n      tag_64\n      jumpi\n        /* \"#utility.yul\":804:883   */\n      tag_65\n      tag_32\n      jump\t// in\n    tag_65:\n        /* \"#utility.yul\":766:885   */\n    tag_64:\n        /* \"#utility.yul\":924:925   */\n      0x00\n        /* \"#utility.yul\":949:1002   */\n      tag_66\n        /* \"#utility.yul\":994:1001   */\n      dup5\n        /* \"#utility.yul\":985:991   */\n      dup3\n        /* \"#utility.yul\":974:983   */\n      dup6\n        /* \"#utility.yul\":970:992   */\n      add\n        /* \"#utility.yul\":949:1002   */\n      tag_36\n      jump\t// in\n    tag_66:\n        /* \"#utility.yul\":939:1002   */\n      swap2\n      pop\n        /* \"#utility.yul\":895:1012   */\n      pop\n        /* \"#utility.yul\":690:1019   */\n      swap3\n      swap2\n      pop\n      pop\n      jump\t// out\n        /* \"#utility.yul\":1025:1151   */\n    tag_37:\n        /* \"#utility.yul\":1062:1069   */\n      0x00\n        /* \"#utility.yul\":1102:1144   */\n      0xffffffffffffffffffffffffffffffffffffffff\n        /* \"#utility.yul\":1095:1100   */\n      dup3\n        /* \"#utility.yul\":1091:1145   */\n      and\n        /* \"#utility.yul\":1080:1145   */\n      swap1\n      pop\n        /* \"#utility.yul\":1025:1151   */\n      swap2\n      swap1\n      pop\n      jump\t// out\n        /* \"#utility.yul\":1157:1217   */\n    tag_38:\n        /* \"#utility.yul\":1185:1188   */\n      0x00\n        /* \"#utility.yul\":1206:1211   */\n      dup2\n        /* \"#utility.yul\":1199:1211   */\n      swap1\n      pop\n        /* \"#utility.yul\":1157:1217   */\n      swap2\n      swap1\n      pop\n      jump\t// out\n        /* \"#utility.yul\":1223:1365   */\n    tag_39:\n        /* \"#utility.yul\":1273:1282   */\n      0x00\n        /* \"#utility.yul\":1306:1359   */\n      tag_70\n        /* \"#utility.yul\":1324:1358   */\n      tag_71\n        /* \"#utility.yul\":1333:1357   */\n      tag_72\n        /* \"#utility.yul\":1351:1356   */\n      dup5\n        /* \"#utility.yul\":1333:1357   */\n      tag_37\n      jump\t// in\n    tag_72:\n        /* \"#utility.yul\":1324:1358   */\n      tag_38\n      jump\t// in\n    tag_71:\n        /* \"#utility.yul\":1306:1359   */\n      tag_37\n      jump\t// in\n    tag_70:\n        /* \"#utility.yul\":1293:1359   */\n      swap1\n      pop\n        /* \"#utility.yul\":1223:1365   */\n      swap2\n      swap1\n      pop\n      jump\t// out\n        /* \"#utility.yul\":1371:1497   */\n    tag_40:\n        /* \"#utility.yul\":1421:1430   */\n      0x00\n        /* \"#utility.yul\":1454:1491   */\n      tag_74\n        /* \"#utility.yul\":1485:1490   */\n      dup3\n        /* \"#utility.yul\":1454:1491   */\n      tag_39\n      jump\t// in\n    tag_74:\n        /* \"#utility.yul\":1441:1491   */\n      swap1\n      pop\n        /* \"#utility.yul\":1371:1497   */\n      swap2\n      swap1\n      pop\n      jump\t// out\n        /* \"#utility.yul\":1503:1645   */\n    tag_41:\n        /* \"#utility.yul\":1569:1578   */\n      0x00\n        /* \"#utility.yul\":1602:1639   */\n      tag_76\n        /* \"#utility.yul\":1633:1638   */\n      dup3\n        /* \"#utility.yul\":1602:1639   */\n      tag_40\n      jump\t// in\n    tag_76:\n        /* \"#utility.yul\":1589:1639   */\n      swap1\n      pop\n        /* \"#utility.yul\":1503:1645   */\n      swap2\n      swap1\n      pop\n      jump\t// out\n        /* \"#utility.yul\":1651:1814   */\n    tag_42:\n        /* \"#utility.yul\":1754:1807   */\n      tag_78\n        /* \"#utility.yul\":1801:1806   */\n      dup2\n        /* \"#utility.yul\":1754:1807   */\n      tag_41\n      jump\t// in\n    tag_78:\n        /* \"#utility.yul\":1749:1752   */\n      dup3\n        /* \"#utility.yul\":1742:1808   */\n      mstore\n        /* \"#utility.yul\":1651:1814   */\n      pop\n      pop\n      jump\t// out\n        /* \"#utility.yul\":1820:2074   */\n    tag_11:\n        /* \"#utility.yul\":1929:1933   */\n      0x00\n        /* \"#utility.yul\":1967:1969   */\n      0x20\n        /* \"#utility.yul\":1956:1965   */\n      dup3\n        /* \"#utility.yul\":1952:1970   */\n      add\n        /* \"#utility.yul\":1944:1970   */\n      swap1\n      pop\n        /* \"#utility.yul\":1980:2067   */\n      tag_80\n        /* \"#utility.yul\":2064:2065   */\n      0x00\n        /* \"#utility.yul\":2053:2062   */\n      dup4\n        /* \"#utility.yul\":2049:2066   */\n      add\n        /* \"#utility.yul\":2040:2046   */\n      dup5\n        /* \"#utility.yul\":1980:2067   */\n      tag_42\n      jump\t// in\n    tag_80:\n        /* \"#utility.yul\":1820:2074   */\n      swap3\n      swap2\n      pop\n      pop\n      jump\t// out\n        /* \"#utility.yul\":2080:2210   */\n    tag_43:\n        /* \"#utility.yul\":2163:2169   */\n      0x00\n        /* \"#utility.yul\":2197:2202   */\n      dup2\n        /* \"#utility.yul\":2191:2203   */\n      mload\n        /* \"#utility.yul\":2181:2203   */\n      swap1\n      pop\n        /* \"#utility.yul\":2080:2210   */\n      swap2\n      swap1\n      pop\n      jump\t// out\n        /* \"#utility.yul\":2216:2400   */\n    tag_44:\n        /* \"#utility.yul\":2315:2326   */\n      0x00\n        /* \"#utility.yul\":2349:2355   */\n      dup3\n        /* \"#utility.yul\":2344:2347   */\n      dup3\n        /* \"#utility.yul\":2337:2356   */\n      mstore\n        /* \"#utility.yul\":2389:2393   */\n      0x20\n        /* \"#utility.yul\":2384:2387   */\n      dup3\n        /* \"#utility.yul\":2380:2394   */\n      add\n        /* \"#utility.yul\":2365:2394   */\n      swap1\n      pop\n        /* \"#utility.yul\":2216:2400   */\n      swap3\n      swap2\n      pop\n      pop\n      jump\t// out\n        /* \"#utility.yul\":2406:2554   */\n    tag_45:\n        /* \"#utility.yul\":2489:2493   */\n      0x00\n        /* \"#utility.yul\":2512:2515   */\n      dup2\n        /* \"#utility.yul\":2504:2515   */\n      swap1\n      pop\n        /* \"#utility.yul\":2542:2546   */\n      0x20\n        /* \"#utility.yul\":2537:2540   */\n      dup3\n        /* \"#utility.yul\":2533:2547   */\n      add\n        /* \"#utility.yul\":2525:2547   */\n      swap1\n      pop\n        /* \"#utility.yul\":2406:2554   */\n      swap2\n      swap1\n      pop\n      jump\t// out\n        /* \"#utility.yul\":2560:2713   */\n    tag_46:\n        /* \"#utility.yul\":2653:2706   */\n      tag_85\n        /* \"#utility.yul\":2700:2705   */\n      dup2\n        /* \"#utility.yul\":2653:2706   */\n      tag_41\n      jump\t// in\n    tag_85:\n        /* \"#utility.yul\":2648:2651   */\n      dup3\n        /* \"#utility.yul\":2641:2707   */\n      mstore\n        /* \"#utility.yul\":2560:2713   */\n      pop\n      pop\n      jump\t// out\n        /* \"#utility.yul\":2719:2930   */\n    tag_47:\n        /* \"#utility.yul\":2804:2814   */\n      0x00\n        /* \"#utility.yul\":2825:2887   */\n      tag_87\n        /* \"#utility.yul\":2883:2886   */\n      dup4\n        /* \"#utility.yul\":2875:2881   */\n      dup4\n        /* \"#utility.yul\":2825:2887   */\n      tag_46\n      jump\t// in\n    tag_87:\n        /* \"#utility.yul\":2919:2923   */\n      0x20\n        /* \"#utility.yul\":2914:2917   */\n      dup4\n        /* \"#utility.yul\":2910:2924   */\n      add\n        /* \"#utility.yul\":2896:2924   */\n      swap1\n      pop\n        /* \"#utility.yul\":2719:2930   */\n      swap3\n      swap2\n      pop\n      pop\n      jump\t// out\n        /* \"#utility.yul\":2936:3065   */\n    tag_48:\n        /* \"#utility.yul\":3022:3026   */\n      0x00\n        /* \"#utility.yul\":3054:3058   */\n      0x20\n        /* \"#utility.yul\":3049:3052   */\n      dup3\n        /* \"#utility.yul\":3045:3059   */\n      add\n        /* \"#utility.yul\":3037:3059   */\n      swap1\n      pop\n        /* \"#utility.yul\":2936:3065   */\n      swap2\n      swap1\n      pop\n      jump\t// out\n        /* \"#utility.yul\":3111:3923   */\n    tag_49:\n        /* \"#utility.yul\":3246:3249   */\n      0x00\n        /* \"#utility.yul\":3275:3345   */\n      tag_90\n        /* \"#utility.yul\":3339:3344   */\n      dup3\n        /* \"#utility.yul\":3275:3345   */\n      tag_43\n      jump\t// in\n    tag_90:\n        /* \"#utility.yul\":3361:3447   */\n      tag_91\n        /* \"#utility.yul\":3440:3446   */\n      dup2\n        /* \"#utility.yul\":3435:3438   */\n      dup6\n        /* \"#utility.yul\":3361:3447   */\n      tag_44\n      jump\t// in\n    tag_91:\n        /* \"#utility.yul\":3354:3447   */\n      swap4\n      pop\n        /* \"#utility.yul\":3471:3543   */\n      tag_92\n        /* \"#utility.yul\":3537:3542   */\n      dup4\n        /* \"#utility.yul\":3471:3543   */\n      tag_45\n      jump\t// in\n    tag_92:\n        /* \"#utility.yul\":3566:3573   */\n      dup1\n        /* \"#utility.yul\":3597:3598   */\n      0x00\n        /* \"#utility.yul\":3582:3898   */\n    tag_93:\n        /* \"#utility.yul\":3607:3613   */\n      dup4\n        /* \"#utility.yul\":3604:3605   */\n      dup2\n        /* \"#utility.yul\":3601:3614   */\n      lt\n        /* \"#utility.yul\":3582:3898   */\n      iszero\n      tag_95\n      jumpi\n        /* \"#utility.yul\":3683:3689   */\n      dup2\n        /* \"#utility.yul\":3677:3690   */\n      mload\n        /* \"#utility.yul\":3710:3789   */\n      tag_96\n        /* \"#utility.yul\":3785:3788   */\n      dup9\n        /* \"#utility.yul\":3770:3783   */\n      dup3\n        /* \"#utility.yul\":3710:3789   */\n      tag_47\n      jump\t// in\n    tag_96:\n        /* \"#utility.yul\":3703:3789   */\n      swap8\n      pop\n        /* \"#utility.yul\":3812:3888   */\n      tag_97\n        /* \"#utility.yul\":3881:3887   */\n      dup4\n        /* \"#utility.yul\":3812:3888   */\n      tag_48\n      jump\t// in\n    tag_97:\n        /* \"#utility.yul\":3802:3888   */\n      swap3\n      pop\n        /* \"#utility.yul\":3642:3898   */\n      pop\n        /* \"#utility.yul\":3629:3630   */\n      0x01\n        /* \"#utility.yul\":3626:3627   */\n      dup2\n        /* \"#utility.yul\":3622:3631   */\n      add\n        /* \"#utility.yul\":3617:3631   */\n      swap1\n      pop\n        /* \"#utility.yul\":3582:3898   */\n      jump(tag_93)\n    tag_95:\n        /* \"#utility.yul\":3586:3600   */\n      pop\n        /* \"#utility.yul\":3914:3917   */\n      dup6\n        /* \"#utility.yul\":3907:3917   */\n      swap4\n      pop\n        /* \"#utility.yul\":3251:3923   */\n      pop\n      pop\n      pop\n        /* \"#utility.yul\":3111:3923   */\n      swap3\n      swap2\n      pop\n      pop\n      jump\t// out\n        /* \"#utility.yul\":3929:4334   */\n    tag_18:\n        /* \"#utility.yul\":4088:4092   */\n      0x00\n        /* \"#utility.yul\":4126:4128   */\n      0x20\n        /* \"#utility.yul\":4115:4124   */\n      dup3\n        /* \"#utility.yul\":4111:4129   */\n      add\n        /* \"#utility.yul\":4103:4129   */\n      swap1\n      pop\n        /* \"#utility.yul\":4175:4184   */\n      dup2\n        /* \"#utility.yul\":4169:4173   */\n      dup2\n        /* \"#utility.yul\":4165:4185   */\n      sub\n        /* \"#utility.yul\":4161:4162   */\n      0x00\n        /* \"#utility.yul\":4150:4159   */\n      dup4\n        /* \"#utility.yul\":4146:4163   */\n      add\n        /* \"#utility.yul\":4139:4186   */\n      mstore\n        /* \"#utility.yul\":4203:4327   */\n      tag_99\n        /* \"#utility.yul\":4322:4326   */\n      dup2\n        /* \"#utility.yul\":4313:4319   */\n      dup5\n        /* \"#utility.yul\":4203:4327   */\n      tag_49\n      jump\t// in\n    tag_99:\n        /* \"#utility.yul\":4195:4327   */\n      swap1\n      pop\n        /* \"#utility.yul\":3929:4334   */\n      swap3\n      swap2\n      pop\n      pop\n      jump\t// out\n        /* \"#utility.yul\":4340:4458   */\n    tag_50:\n        /* \"#utility.yul\":4427:4451   */\n      tag_101\n        /* \"#utility.yul\":4445:4450   */\n      dup2\n        /* \"#utility.yul\":4427:4451   */\n      tag_34\n      jump\t// in\n    tag_101:\n        /* \"#utility.yul\":4422:4425   */\n      dup3\n        /* \"#utility.yul\":4415:4452   */\n      mstore\n        /* \"#utility.yul\":4340:4458   */\n      pop\n      pop\n      jump\t// out\n        /* \"#utility.yul\":4464:4560   */\n    tag_51:\n        /* \"#utility.yul\":4501:4508   */\n      0x00\n        /* \"#utility.yul\":4530:4554   */\n      tag_103\n        /* \"#utility.yul\":4548:4553   */\n      dup3\n        /* \"#utility.yul\":4530:4554   */\n      tag_37\n      jump\t// in\n    tag_103:\n        /* \"#utility.yul\":4519:4554   */\n      swap1\n      pop\n        /* \"#utility.yul\":4464:4560   */\n      swap2\n      swap1\n      pop\n      jump\t// out\n        /* \"#utility.yul\":4566:4684   */\n    tag_52:\n        /* \"#utility.yul\":4653:4677   */\n      tag_105\n        /* \"#utility.yul\":4671:4676   */\n      dup2\n        /* \"#utility.yul\":4653:4677   */\n      tag_51\n      jump\t// in\n    tag_105:\n        /* \"#utility.yul\":4648:4651   */\n      dup3\n        /* \"#utility.yul\":4641:4678   */\n      mstore\n        /* \"#utility.yul\":4566:4684   */\n      pop\n      pop\n      jump\t// out\n        /* \"#utility.yul\":4690:5022   */\n    tag_25:\n        /* \"#utility.yul\":4811:4815   */\n      0x00\n        /* \"#utility.yul\":4849:4851   */\n      0x40\n        /* \"#utility.yul\":4838:4847   */\n      dup3\n        /* \"#utility.yul\":4834:4852   */\n      add\n        /* \"#utility.yul\":4826:4852   */\n      swap1\n      pop\n        /* \"#utility.yul\":4862:4933   */\n      tag_107\n        /* \"#utility.yul\":4930:4931   */\n      0x00\n        /* \"#utility.yul\":4919:4928   */\n      dup4\n        /* \"#utility.yul\":4915:4932   */\n      add\n        /* \"#utility.yul\":4906:4912   */\n      dup6\n        /* \"#utility.yul\":4862:4933   */\n      tag_50\n      jump\t// in\n    tag_107:\n        /* \"#utility.yul\":4943:5015   */\n      tag_108\n        /* \"#utility.yul\":5011:5013   */\n      0x20\n        /* \"#utility.yul\":5000:5009   */\n      dup4\n        /* \"#utility.yul\":4996:5014   */\n      add\n        /* \"#utility.yul\":4987:4993   */\n      dup5\n        /* \"#utility.yul\":4943:5015   */\n      tag_52\n      jump\t// in\n    tag_108:\n        /* \"#utility.yul\":4690:5022   */\n      swap4\n      swap3\n      pop\n      pop\n      pop\n      jump\t// out\n    stop\n\n    sub_0: assembly {\n            /* \"Campaign.sol\":502:2449  contract Campaign {... */\n          mstore(0x40, 0x80)\n            /* \"Campaign.sol\":987:1139  constructor(uint256 minContribution, address managerAddress) {... */\n          callvalue\n          dup1\n          iszero\n          tag_1\n          jumpi\n          0x00\n          dup1\n          revert\n        tag_1:\n          pop\n          mload(0x40)\n          sub(codesize, bytecodeSize)\n          dup1\n          bytecodeSize\n          dup4\n          codecopy\n          dup2\n          dup2\n          add\n          0x40\n          mstore\n          dup2\n          add\n          swap1\n          tag_2\n          swap2\n          swap1\n          tag_3\n          jump\t// in\n        tag_2:\n            /* \"Campaign.sol\":1069:1083  managerAddress */\n          dup1\n            /* \"Campaign.sol\":1059:1066  manager */\n          0x00\n          dup1\n            /* \"Campaign.sol\":1059:1083  manager = managerAddress */\n          0x0100\n          exp\n          dup2\n          sload\n          dup2\n          0xffffffffffffffffffffffffffffffffffffffff\n          mul\n          not\n          and\n          swap1\n          dup4\n          0xffffffffffffffffffffffffffffffffffffffff\n          and\n          mul\n          or\n          swap1\n          sstore\n          pop\n            /* \"Campaign.sol\":1116:1131  minContribution */\n          dup2\n            /* \"Campaign.sol\":1094:1113  minimumContribution */\n          0x03\n            /* \"Campaign.sol\":1094:1131  minimumContribution = minContribution */\n          dup2\n          swap1\n          sstore\n          pop\n            /* \"Campaign.sol\":987:1139  constructor(uint256 minContribution, address managerAddress) {... */\n          pop\n          pop\n            /* \"Campaign.sol\":502:2449  contract Campaign {... */\n          jump(tag_6)\n            /* \"#utility.yul\":88:205   */\n        tag_8:\n            /* \"#utility.yul\":197:198   */\n          0x00\n            /* \"#utility.yul\":194:195   */\n          dup1\n            /* \"#utility.yul\":187:199   */\n          revert\n            /* \"#utility.yul\":334:411   */\n        tag_10:\n            /* \"#utility.yul\":371:378   */\n          0x00\n            /* \"#utility.yul\":400:405   */\n          dup2\n            /* \"#utility.yul\":389:405   */\n          swap1\n          pop\n            /* \"#utility.yul\":334:411   */\n          swap2\n          swap1\n          pop\n          jump\t// out\n            /* \"#utility.yul\":417:539   */\n        tag_11:\n            /* \"#utility.yul\":490:514   */\n          tag_23\n            /* \"#utility.yul\":508:513   */\n          dup2\n            /* \"#utility.yul\":490:514   */\n          tag_10\n          jump\t// in\n        tag_23:\n            /* \"#utility.yul\":483:488   */\n          dup2\n            /* \"#utility.yul\":480:515   */\n          eq\n            /* \"#utility.yul\":470:533   */\n          tag_24\n          jumpi\n            /* \"#utility.yul\":529:530   */\n          0x00\n            /* \"#utility.yul\":526:527   */\n          dup1\n            /* \"#utility.yul\":519:531   */\n          revert\n            /* \"#utility.yul\":470:533   */\n        tag_24:\n            /* \"#utility.yul\":417:539   */\n          pop\n          jump\t// out\n            /* \"#utility.yul\":545:688   */\n        tag_12:\n            /* \"#utility.yul\":602:607   */\n          0x00\n            /* \"#utility.yul\":633:639   */\n          dup2\n            /* \"#utility.yul\":627:640   */\n          mload\n            /* \"#utility.yul\":618:640   */\n          swap1\n          pop\n            /* \"#utility.yul\":649:682   */\n          tag_26\n            /* \"#utility.yul\":676:681   */\n          dup2\n            /* \"#utility.yul\":649:682   */\n          tag_11\n          jump\t// in\n        tag_26:\n            /* \"#utility.yul\":545:688   */\n          swap3\n          swap2\n          pop\n          pop\n          jump\t// out\n            /* \"#utility.yul\":694:820   */\n        tag_13:\n            /* \"#utility.yul\":731:738   */\n          0x00\n            /* \"#utility.yul\":771:813   */\n          0xffffffffffffffffffffffffffffffffffffffff\n            /* \"#utility.yul\":764:769   */\n          dup3\n            /* \"#utility.yul\":760:814   */\n          and\n            /* \"#utility.yul\":749:814   */\n          swap1\n          pop\n            /* \"#utility.yul\":694:820   */\n          swap2\n          swap1\n          pop\n          jump\t// out\n            /* \"#utility.yul\":826:922   */\n        tag_14:\n            /* \"#utility.yul\":863:870   */\n          0x00\n            /* \"#utility.yul\":892:916   */\n          tag_29\n            /* \"#utility.yul\":910:915   */\n          dup3\n            /* \"#utility.yul\":892:916   */\n          tag_13\n          jump\t// in\n        tag_29:\n            /* \"#utility.yul\":881:916   */\n          swap1\n          pop\n            /* \"#utility.yul\":826:922   */\n          swap2\n          swap1\n          pop\n          jump\t// out\n            /* \"#utility.yul\":928:1050   */\n        tag_15:\n            /* \"#utility.yul\":1001:1025   */\n          tag_31\n            /* \"#utility.yul\":1019:1024   */\n          dup2\n            /* \"#utility.yul\":1001:1025   */\n          tag_14\n          jump\t// in\n        tag_31:\n            /* \"#utility.yul\":994:999   */\n          dup2\n            /* \"#utility.yul\":991:1026   */\n          eq\n            /* \"#utility.yul\":981:1044   */\n          tag_32\n          jumpi\n            /* \"#utility.yul\":1040:1041   */\n          0x00\n            /* \"#utility.yul\":1037:1038   */\n          dup1\n            /* \"#utility.yul\":1030:1042   */\n          revert\n            /* \"#utility.yul\":981:1044   */\n        tag_32:\n            /* \"#utility.yul\":928:1050   */\n          pop\n          jump\t// out\n            /* \"#utility.yul\":1056:1199   */\n        tag_16:\n            /* \"#utility.yul\":1113:1118   */\n          0x00\n            /* \"#utility.yul\":1144:1150   */\n          dup2\n            /* \"#utility.yul\":1138:1151   */\n          mload\n            /* \"#utility.yul\":1129:1151   */\n          swap1\n          pop\n            /* \"#utility.yul\":1160:1193   */\n          tag_34\n            /* \"#utility.yul\":1187:1192   */\n          dup2\n            /* \"#utility.yul\":1160:1193   */\n          tag_15\n          jump\t// in\n        tag_34:\n            /* \"#utility.yul\":1056:1199   */\n          swap3\n          swap2\n          pop\n          pop\n          jump\t// out\n            /* \"#utility.yul\":1205:1712   */\n        tag_3:\n            /* \"#utility.yul\":1284:1290   */\n          0x00\n            /* \"#utility.yul\":1292:1298   */\n          dup1\n            /* \"#utility.yul\":1341:1343   */\n          0x40\n            /* \"#utility.yul\":1329:1338   */\n          dup4\n            /* \"#utility.yul\":1320:1327   */\n          dup6\n            /* \"#utility.yul\":1316:1339   */\n          sub\n            /* \"#utility.yul\":1312:1344   */\n          slt\n            /* \"#utility.yul\":1309:1428   */\n          iszero\n          tag_36\n          jumpi\n            /* \"#utility.yul\":1347:1426   */\n          tag_37\n          tag_8\n          jump\t// in\n        tag_37:\n            /* \"#utility.yul\":1309:1428   */\n        tag_36:\n            /* \"#utility.yul\":1467:1468   */\n          0x00\n            /* \"#utility.yul\":1492:1556   */\n          tag_38\n            /* \"#utility.yul\":1548:1555   */\n          dup6\n            /* \"#utility.yul\":1539:1545   */\n          dup3\n            /* \"#utility.yul\":1528:1537   */\n          dup7\n            /* \"#utility.yul\":1524:1546   */\n          add\n            /* \"#utility.yul\":1492:1556   */\n          tag_12\n          jump\t// in\n        tag_38:\n            /* \"#utility.yul\":1482:1556   */\n          swap3\n          pop\n            /* \"#utility.yul\":1438:1566   */\n          pop\n            /* \"#utility.yul\":1605:1607   */\n          0x20\n            /* \"#utility.yul\":1631:1695   */\n          tag_39\n            /* \"#utility.yul\":1687:1694   */\n          dup6\n            /* \"#utility.yul\":1678:1684   */\n          dup3\n            /* \"#utility.yul\":1667:1676   */\n          dup7\n            /* \"#utility.yul\":1663:1685   */\n          add\n            /* \"#utility.yul\":1631:1695   */\n          tag_16\n          jump\t// in\n        tag_39:\n            /* \"#utility.yul\":1621:1695   */\n          swap2\n          pop\n            /* \"#utility.yul\":1576:1705   */\n          pop\n            /* \"#utility.yul\":1205:1712   */\n          swap3\n          pop\n          swap3\n          swap1\n          pop\n          jump\t// out\n            /* \"Campaign.sol\":502:2449  contract Campaign {... */\n        tag_6:\n          dataSize(sub_0)\n          dup1\n          dataOffset(sub_0)\n          0x00\n          codecopy\n          0x00\n          return\n        stop\n\n        sub_0: assembly {\n                /* \"Campaign.sol\":502:2449  contract Campaign {... */\n              mstore(0x40, 0x80)\n              jumpi(tag_1, lt(calldatasize, 0x04))\n              shr(0xe0, calldataload(0x00))\n              dup1\n              0x8a9cfd55\n              gt\n              tag_12\n              jumpi\n              dup1\n              0x8a9cfd55\n              eq\n              tag_7\n              jumpi\n              dup1\n              0x937e09b1\n              eq\n              tag_8\n              jumpi\n              dup1\n              0x9fb42b1f\n              eq\n              tag_9\n              jumpi\n              dup1\n              0xd7bb99ba\n              eq\n              tag_10\n              jumpi\n              dup1\n              0xd7d1bbdb\n              eq\n              tag_11\n              jumpi\n              jump(tag_1)\n            tag_12:\n              dup1\n              0x03441006\n              eq\n              tag_2\n              jumpi\n              dup1\n              0x0a144391\n              eq\n              tag_3\n              jumpi\n              dup1\n              0x481c6a75\n              eq\n              tag_4\n              jumpi\n              dup1\n              0x81d12c58\n              eq\n              tag_5\n              jumpi\n              dup1\n              0x82fde093\n              eq\n              tag_6\n              jumpi\n            tag_1:\n              0x00\n              dup1\n              revert\n                /* \"Campaign.sol\":2145:2446  function finalizeRequest(uint256 key) public restricted {... */\n            tag_2:\n              callvalue\n              dup1\n              iszero\n              tag_13\n              jumpi\n              0x00\n              dup1\n              revert\n            tag_13:\n              pop\n              tag_14\n              0x04\n              dup1\n              calldatasize\n              sub\n              dup2\n              add\n              swap1\n              tag_15\n              swap2\n              swap1\n              tag_16\n              jump\t// in\n            tag_15:\n              tag_17\n              jump\t// in\n            tag_14:\n              stop\n                /* \"Campaign.sol\":810:851  mapping(address => bool) public approvers */\n            tag_3:\n              callvalue\n              dup1\n              iszero\n              tag_18\n              jumpi\n              0x00\n              dup1\n              revert\n            tag_18:\n              pop\n              tag_19\n              0x04\n              dup1\n              calldatasize\n              sub\n              dup2\n              add\n              swap1\n              tag_20\n              swap2\n              swap1\n              tag_21\n              jump\t// in\n            tag_20:\n              tag_22\n              jump\t// in\n            tag_19:\n              mload(0x40)\n              tag_23\n              swap2\n              swap1\n              tag_24\n              jump\t// in\n            tag_23:\n              mload(0x40)\n              dup1\n              swap2\n              sub\n              swap1\n              return\n                /* \"Campaign.sol\":748:770  address public manager */\n            tag_4:\n              callvalue\n              dup1\n              iszero\n              tag_25\n              jumpi\n              0x00\n              dup1\n              revert\n            tag_25:\n              pop\n              tag_26\n              tag_27\n              jump\t// in\n            tag_26:\n              mload(0x40)\n              tag_28\n              swap2\n              swap1\n              tag_29\n              jump\t// in\n            tag_28:\n              mload(0x40)\n              dup1\n              swap2\n              sub\n              swap1\n              return\n                /* \"Campaign.sol\":935:978  mapping(uint256 => Request) public requests */\n            tag_5:\n              callvalue\n              dup1\n              iszero\n              tag_30\n              jumpi\n              0x00\n              dup1\n              revert\n            tag_30:\n              pop\n              tag_31\n              0x04\n              dup1\n              calldatasize\n              sub\n              dup2\n              add\n              swap1\n              tag_32\n              swap2\n              swap1\n              tag_16\n              jump\t// in\n            tag_32:\n              tag_33\n              jump\t// in\n            tag_31:\n              mload(0x40)\n              tag_34\n              swap6\n              swap5\n              swap4\n              swap3\n              swap2\n              swap1\n              tag_35\n              jump\t// in\n            tag_34:\n              mload(0x40)\n              dup1\n              swap2\n              sub\n              swap1\n              return\n                /* \"Campaign.sol\":899:928  uint256 public approversCount */\n            tag_6:\n              callvalue\n              dup1\n              iszero\n              tag_36\n              jumpi\n              0x00\n              dup1\n              revert\n            tag_36:\n              pop\n              tag_37\n              tag_38\n              jump\t// in\n            tag_37:\n              mload(0x40)\n              tag_39\n              swap2\n              swap1\n              tag_40\n              jump\t// in\n            tag_39:\n              mload(0x40)\n              dup1\n              swap2\n              sub\n              swap1\n              return\n                /* \"Campaign.sol\":1451:1851  function createRequest(... */\n            tag_7:\n              callvalue\n              dup1\n              iszero\n              tag_41\n              jumpi\n              0x00\n              dup1\n              revert\n            tag_41:\n              pop\n              tag_42\n              0x04\n              dup1\n              calldatasize\n              sub\n              dup2\n              add\n              swap1\n              tag_43\n              swap2\n              swap1\n              tag_44\n              jump\t// in\n            tag_43:\n              tag_45\n              jump\t// in\n            tag_42:\n              stop\n                /* \"Campaign.sol\":858:892  uint256 public minimumContribution */\n            tag_8:\n              callvalue\n              dup1\n              iszero\n              tag_46\n              jumpi\n              0x00\n              dup1\n              revert\n            tag_46:\n              pop\n              tag_47\n              tag_48\n              jump\t// in\n            tag_47:\n              mload(0x40)\n              tag_49\n              swap2\n              swap1\n              tag_40\n              jump\t// in\n            tag_49:\n              mload(0x40)\n              dup1\n              swap2\n              sub\n              swap1\n              return\n                /* \"Campaign.sol\":777:803  uint256 public numRequests */\n            tag_9:\n              callvalue\n              dup1\n              iszero\n              tag_50\n              jumpi\n              0x00\n              dup1\n              revert\n            tag_50:\n              pop\n              tag_51\n              tag_52\n              jump\t// in\n            tag_51:\n              mload(0x40)\n              tag_53\n              swap2\n              swap1\n              tag_40\n              jump\t// in\n            tag_53:\n              mload(0x40)\n              dup1\n              swap2\n              sub\n              swap1\n              return\n                /* \"Campaign.sol\":1238:1443  function contribute() public payable {... */\n            tag_10:\n              tag_54\n              tag_55\n              jump\t// in\n            tag_54:\n              stop\n                /* \"Campaign.sol\":1859:2137  function approveRequest(uint256 key) public {... */\n            tag_11:\n              callvalue\n              dup1\n              iszero\n              tag_56\n              jumpi\n              0x00\n              dup1\n              revert\n            tag_56:\n              pop\n              tag_57\n              0x04\n              dup1\n              calldatasize\n              sub\n              dup2\n              add\n              swap1\n              tag_58\n              swap2\n              swap1\n              tag_16\n              jump\t// in\n            tag_58:\n              tag_59\n              jump\t// in\n            tag_57:\n              stop\n                /* \"Campaign.sol\":2145:2446  function finalizeRequest(uint256 key) public restricted {... */\n            tag_17:\n                /* \"Campaign.sol\":1202:1209  manager */\n              0x00\n              dup1\n              sload\n              swap1\n              0x0100\n              exp\n              swap1\n              div\n              0xffffffffffffffffffffffffffffffffffffffff\n              and\n                /* \"Campaign.sol\":1188:1209  msg.sender == manager */\n              0xffffffffffffffffffffffffffffffffffffffff\n              and\n                /* \"Campaign.sol\":1188:1198  msg.sender */\n              caller\n                /* \"Campaign.sol\":1188:1209  msg.sender == manager */\n              0xffffffffffffffffffffffffffffffffffffffff\n              and\n              eq\n                /* \"Campaign.sol\":1180:1210  require(msg.sender == manager) */\n              tag_61\n              jumpi\n              0x00\n              dup1\n              revert\n            tag_61:\n                /* \"Campaign.sol\":2212:2235  Request storage request */\n              0x00\n                /* \"Campaign.sol\":2238:2246  requests */\n              0x05\n                /* \"Campaign.sol\":2238:2251  requests[key] */\n              0x00\n                /* \"Campaign.sol\":2247:2250  key */\n              dup4\n                /* \"Campaign.sol\":2238:2251  requests[key] */\n              dup2\n              mstore\n              0x20\n              add\n              swap1\n              dup2\n              mstore\n              0x20\n              add\n              0x00\n              keccak256\n                /* \"Campaign.sol\":2212:2251  Request storage request = requests[key] */\n              swap1\n              pop\n                /* \"Campaign.sol\":2271:2278  request */\n              dup1\n                /* \"Campaign.sol\":2271:2287  request.complete */\n              0x02\n              add\n              0x14\n              swap1\n              sload\n              swap1\n              0x0100\n              exp\n              swap1\n              div\n              0xff\n              and\n                /* \"Campaign.sol\":2270:2287  !request.complete */\n              iszero\n                /* \"Campaign.sol\":2262:2288  require(!request.complete) */\n              tag_63\n              jumpi\n              0x00\n              dup1\n              revert\n            tag_63:\n                /* \"Campaign.sol\":2349:2350  2 */\n              0x02\n                /* \"Campaign.sol\":2332:2346  approversCount */\n              sload(0x04)\n                /* \"Campaign.sol\":2332:2350  approversCount / 2 */\n              tag_64\n              swap2\n              swap1\n              tag_65\n              jump\t// in\n            tag_64:\n                /* \"Campaign.sol\":2307:2314  request */\n              dup2\n                /* \"Campaign.sol\":2307:2328  request.approvalCount */\n              0x03\n              add\n              sload\n                /* \"Campaign.sol\":2307:2351  request.approvalCount > (approversCount / 2) */\n              gt\n                /* \"Campaign.sol\":2299:2352  require(request.approvalCount > (approversCount / 2)) */\n              tag_66\n              jumpi\n              0x00\n              dup1\n              revert\n            tag_66:\n                /* \"Campaign.sol\":2363:2370  request */\n              dup1\n                /* \"Campaign.sol\":2363:2380  request.recipient */\n              0x02\n              add\n              0x00\n              swap1\n              sload\n              swap1\n              0x0100\n              exp\n              swap1\n              div\n              0xffffffffffffffffffffffffffffffffffffffff\n              and\n                /* \"Campaign.sol\":2363:2389  request.recipient.transfer */\n              0xffffffffffffffffffffffffffffffffffffffff\n              and\n                /* \"Campaign.sol\":2363:2404  request.recipient.transfer(request.value) */\n              0x08fc\n                /* \"Campaign.sol\":2390:2397  request */\n              dup3\n                /* \"Campaign.sol\":2390:2403  request.value */\n              0x01\n              add\n              sload\n                /* \"Campaign.sol\":2363:2404  request.recipient.transfer(request.value) */\n              swap1\n              dup2\n              iszero\n              mul\n              swap1\n              mload(0x40)\n              0x00\n              mload(0x40)\n              dup1\n              dup4\n              sub\n              dup2\n              dup6\n              dup9\n              dup9\n              call\n              swap4\n              pop\n              pop\n              pop\n              pop\n              iszero\n              dup1\n              iszero\n              tag_68\n              jumpi\n              returndatasize\n              0x00\n              dup1\n              returndatacopy\n              revert(0x00, returndatasize)\n            tag_68:\n              pop\n                /* \"Campaign.sol\":2434:2438  true */\n              0x01\n                /* \"Campaign.sol\":2415:2422  request */\n              dup2\n                /* \"Campaign.sol\":2415:2431  request.complete */\n              0x02\n              add\n              0x14\n                /* \"Campaign.sol\":2415:2438  request.complete = true */\n              0x0100\n              exp\n              dup2\n              sload\n              dup2\n              0xff\n              mul\n              not\n              and\n              swap1\n              dup4\n              iszero\n              iszero\n              mul\n              or\n              swap1\n              sstore\n              pop\n                /* \"Campaign.sol\":2201:2446  {... */\n              pop\n                /* \"Campaign.sol\":2145:2446  function finalizeRequest(uint256 key) public restricted {... */\n              pop\n              jump\t// out\n                /* \"Campaign.sol\":810:851  mapping(address => bool) public approvers */\n            tag_22:\n              mstore(0x20, 0x02)\n              dup1\n              0x00\n              mstore\n              keccak256(0x00, 0x40)\n              0x00\n              swap2\n              pop\n              sload\n              swap1\n              0x0100\n              exp\n              swap1\n              div\n              0xff\n              and\n              dup2\n              jump\t// out\n                /* \"Campaign.sol\":748:770  address public manager */\n            tag_27:\n              0x00\n              dup1\n              sload\n              swap1\n              0x0100\n              exp\n              swap1\n              div\n              0xffffffffffffffffffffffffffffffffffffffff\n              and\n              dup2\n              jump\t// out\n                /* \"Campaign.sol\":935:978  mapping(uint256 => Request) public requests */\n            tag_33:\n              mstore(0x20, 0x05)\n              dup1\n              0x00\n              mstore\n              keccak256(0x00, 0x40)\n              0x00\n              swap2\n              pop\n              swap1\n              pop\n              dup1\n              0x00\n              add\n              dup1\n              sload\n              tag_69\n              swap1\n              tag_70\n              jump\t// in\n            tag_69:\n              dup1\n              0x1f\n              add\n              0x20\n              dup1\n              swap2\n              div\n              mul\n              0x20\n              add\n              mload(0x40)\n              swap1\n              dup2\n              add\n              0x40\n              mstore\n              dup1\n              swap3\n              swap2\n              swap1\n              dup2\n              dup2\n              mstore\n              0x20\n              add\n              dup3\n              dup1\n              sload\n              tag_71\n              swap1\n              tag_70\n              jump\t// in\n            tag_71:\n              dup1\n              iszero\n              tag_72\n              jumpi\n              dup1\n              0x1f\n              lt\n              tag_73\n              jumpi\n              0x0100\n              dup1\n              dup4\n              sload\n              div\n              mul\n              dup4\n              mstore\n              swap2\n              0x20\n              add\n              swap2\n              jump(tag_72)\n            tag_73:\n              dup3\n              add\n              swap2\n              swap1\n              0x00\n              mstore\n              keccak256(0x00, 0x20)\n              swap1\n            tag_74:\n              dup2\n              sload\n              dup2\n              mstore\n              swap1\n              0x01\n              add\n              swap1\n              0x20\n              add\n              dup1\n              dup4\n              gt\n              tag_74\n              jumpi\n              dup3\n              swap1\n              sub\n              0x1f\n              and\n              dup3\n              add\n              swap2\n            tag_72:\n              pop\n              pop\n              pop\n              pop\n              pop\n              swap1\n              dup1\n              0x01\n              add\n              sload\n              swap1\n              dup1\n              0x02\n              add\n              0x00\n              swap1\n              sload\n              swap1\n              0x0100\n              exp\n              swap1\n              div\n              0xffffffffffffffffffffffffffffffffffffffff\n              and\n              swap1\n              dup1\n              0x02\n              add\n              0x14\n              swap1\n              sload\n              swap1\n              0x0100\n              exp\n              swap1\n              div\n              0xff\n              and\n              swap1\n              dup1\n              0x03\n              add\n              sload\n              swap1\n              pop\n              dup6\n              jump\t// out\n                /* \"Campaign.sol\":899:928  uint256 public approversCount */\n            tag_38:\n              sload(0x04)\n              dup2\n              jump\t// out\n                /* \"Campaign.sol\":1451:1851  function createRequest(... */\n            tag_45:\n                /* \"Campaign.sol\":1202:1209  manager */\n              0x00\n              dup1\n              sload\n              swap1\n              0x0100\n              exp\n              swap1\n              div\n              0xffffffffffffffffffffffffffffffffffffffff\n              and\n                /* \"Campaign.sol\":1188:1209  msg.sender == manager */\n              0xffffffffffffffffffffffffffffffffffffffff\n              and\n                /* \"Campaign.sol\":1188:1198  msg.sender */\n              caller\n                /* \"Campaign.sol\":1188:1209  msg.sender == manager */\n              0xffffffffffffffffffffffffffffffffffffffff\n              and\n              eq\n                /* \"Campaign.sol\":1180:1210  require(msg.sender == manager) */\n              tag_76\n              jumpi\n              0x00\n              dup1\n              revert\n            tag_76:\n                /* \"Campaign.sol\":1598:1621  Request storage request */\n              0x00\n                /* \"Campaign.sol\":1624:1632  requests */\n              0x05\n                /* \"Campaign.sol\":1624:1647  requests[numRequests++] */\n              0x00\n                /* \"Campaign.sol\":1633:1644  numRequests */\n              0x01\n              0x00\n                /* \"Campaign.sol\":1633:1646  numRequests++ */\n              dup2\n              sload\n              dup1\n              swap3\n              swap2\n              swap1\n              tag_78\n              swap1\n              tag_79\n              jump\t// in\n            tag_78:\n              swap2\n              swap1\n              pop\n              sstore\n                /* \"Campaign.sol\":1624:1647  requests[numRequests++] */\n              dup2\n              mstore\n              0x20\n              add\n              swap1\n              dup2\n              mstore\n              0x20\n              add\n              0x00\n              keccak256\n                /* \"Campaign.sol\":1598:1647  Request storage request = requests[numRequests++] */\n              swap1\n              pop\n                /* \"Campaign.sol\":1680:1691  description */\n              dup4\n                /* \"Campaign.sol\":1658:1665  request */\n              dup2\n                /* \"Campaign.sol\":1658:1677  request.description */\n              0x00\n              add\n                /* \"Campaign.sol\":1658:1691  request.description = description */\n              swap1\n              dup2\n              tag_80\n              swap2\n              swap1\n              tag_81\n              jump\t// in\n            tag_80:\n              pop\n                /* \"Campaign.sol\":1718:1723  value */\n              dup3\n                /* \"Campaign.sol\":1702:1709  request */\n              dup2\n                /* \"Campaign.sol\":1702:1715  request.value */\n              0x01\n              add\n                /* \"Campaign.sol\":1702:1723  request.value = value */\n              dup2\n              swap1\n              sstore\n              pop\n                /* \"Campaign.sol\":1762:1771  recipient */\n              dup2\n                /* \"Campaign.sol\":1734:1741  request */\n              dup2\n                /* \"Campaign.sol\":1734:1751  request.recipient */\n              0x02\n              add\n              0x00\n                /* \"Campaign.sol\":1734:1772  request.recipient = payable(recipient) */\n              0x0100\n              exp\n              dup2\n              sload\n              dup2\n              0xffffffffffffffffffffffffffffffffffffffff\n              mul\n              not\n              and\n              swap1\n              dup4\n              0xffffffffffffffffffffffffffffffffffffffff\n              and\n              mul\n              or\n              swap1\n              sstore\n              pop\n                /* \"Campaign.sol\":1802:1807  false */\n              0x00\n                /* \"Campaign.sol\":1783:1790  request */\n              dup2\n                /* \"Campaign.sol\":1783:1799  request.complete */\n              0x02\n              add\n              0x14\n                /* \"Campaign.sol\":1783:1807  request.complete = false */\n              0x0100\n              exp\n              dup2\n              sload\n              dup2\n              0xff\n              mul\n              not\n              and\n              swap1\n              dup4\n              iszero\n              iszero\n              mul\n              or\n              swap1\n              sstore\n              pop\n                /* \"Campaign.sol\":1842:1843  0 */\n              0x00\n                /* \"Campaign.sol\":1818:1825  request */\n              dup2\n                /* \"Campaign.sol\":1818:1839  request.approvalCount */\n              0x03\n              add\n                /* \"Campaign.sol\":1818:1843  request.approvalCount = 0 */\n              dup2\n              swap1\n              sstore\n              pop\n                /* \"Campaign.sol\":1587:1851  {... */\n              pop\n                /* \"Campaign.sol\":1451:1851  function createRequest(... */\n              pop\n              pop\n              pop\n              jump\t// out\n                /* \"Campaign.sol\":858:892  uint256 public minimumContribution */\n            tag_48:\n              sload(0x03)\n              dup2\n              jump\t// out\n                /* \"Campaign.sol\":777:803  uint256 public numRequests */\n            tag_52:\n              sload(0x01)\n              dup2\n              jump\t// out\n                /* \"Campaign.sol\":1238:1443  function contribute() public payable {... */\n            tag_55:\n                /* \"Campaign.sol\":1307:1326  minimumContribution */\n              sload(0x03)\n                /* \"Campaign.sol\":1294:1303  msg.value */\n              callvalue\n                /* \"Campaign.sol\":1294:1326  msg.value >= minimumContribution */\n              lt\n              iszero\n                /* \"Campaign.sol\":1286:1327  require(msg.value >= minimumContribution) */\n              tag_83\n              jumpi\n              0x00\n              dup1\n              revert\n            tag_83:\n                /* \"Campaign.sol\":1404:1408  true */\n              0x01\n                /* \"Campaign.sol\":1380:1389  approvers */\n              0x02\n                /* \"Campaign.sol\":1380:1401  approvers[msg.sender] */\n              0x00\n                /* \"Campaign.sol\":1390:1400  msg.sender */\n              caller\n                /* \"Campaign.sol\":1380:1401  approvers[msg.sender] */\n              0xffffffffffffffffffffffffffffffffffffffff\n              and\n              0xffffffffffffffffffffffffffffffffffffffff\n              and\n              dup2\n              mstore\n              0x20\n              add\n              swap1\n              dup2\n              mstore\n              0x20\n              add\n              0x00\n              keccak256\n              0x00\n                /* \"Campaign.sol\":1380:1408  approvers[msg.sender] = true */\n              0x0100\n              exp\n              dup2\n              sload\n              dup2\n              0xff\n              mul\n              not\n              and\n              swap1\n              dup4\n              iszero\n              iszero\n              mul\n              or\n              swap1\n              sstore\n              pop\n                /* \"Campaign.sol\":1419:1433  approversCount */\n              0x04\n              0x00\n                /* \"Campaign.sol\":1419:1435  approversCount++ */\n              dup2\n              sload\n              dup1\n              swap3\n              swap2\n              swap1\n              tag_84\n              swap1\n              tag_79\n              jump\t// in\n            tag_84:\n              swap2\n              swap1\n              pop\n              sstore\n              pop\n                /* \"Campaign.sol\":1238:1443  function contribute() public payable {... */\n              jump\t// out\n                /* \"Campaign.sol\":1859:2137  function approveRequest(uint256 key) public {... */\n            tag_59:\n                /* \"Campaign.sol\":1914:1937  Request storage request */\n              0x00\n                /* \"Campaign.sol\":1940:1948  requests */\n              0x05\n                /* \"Campaign.sol\":1940:1953  requests[key] */\n              0x00\n                /* \"Campaign.sol\":1949:1952  key */\n              dup4\n                /* \"Campaign.sol\":1940:1953  requests[key] */\n              dup2\n              mstore\n              0x20\n              add\n              swap1\n              dup2\n              mstore\n              0x20\n              add\n              0x00\n              keccak256\n                /* \"Campaign.sol\":1914:1953  Request storage request = requests[key] */\n              swap1\n              pop\n                /* \"Campaign.sol\":1974:1983  approvers */\n              0x02\n                /* \"Campaign.sol\":1974:1995  approvers[msg.sender] */\n              0x00\n                /* \"Campaign.sol\":1984:1994  msg.sender */\n              caller\n                /* \"Campaign.sol\":1974:1995  approvers[msg.sender] */\n              0xffffffffffffffffffffffffffffffffffffffff\n              and\n              0xffffffffffffffffffffffffffffffffffffffff\n              and\n              dup2\n              mstore\n              0x20\n              add\n              swap1\n              dup2\n              mstore\n              0x20\n              add\n              0x00\n              keccak256\n              0x00\n              swap1\n              sload\n              swap1\n              0x0100\n              exp\n              swap1\n              div\n              0xff\n              and\n                /* \"Campaign.sol\":1966:1996  require(approvers[msg.sender]) */\n              tag_86\n              jumpi\n              0x00\n              dup1\n              revert\n            tag_86:\n                /* \"Campaign.sol\":2016:2023  request */\n              dup1\n                /* \"Campaign.sol\":2016:2033  request.approvals */\n              0x04\n              add\n                /* \"Campaign.sol\":2016:2045  request.approvals[msg.sender] */\n              0x00\n                /* \"Campaign.sol\":2034:2044  msg.sender */\n              caller\n                /* \"Campaign.sol\":2016:2045  request.approvals[msg.sender] */\n              0xffffffffffffffffffffffffffffffffffffffff\n              and\n              0xffffffffffffffffffffffffffffffffffffffff\n              and\n              dup2\n              mstore\n              0x20\n              add\n              swap1\n              dup2\n              mstore\n              0x20\n              add\n              0x00\n              keccak256\n              0x00\n              swap1\n              sload\n              swap1\n              0x0100\n              exp\n              swap1\n              div\n              0xff\n              and\n                /* \"Campaign.sol\":2015:2045  !request.approvals[msg.sender] */\n              iszero\n                /* \"Campaign.sol\":2007:2046  require(!request.approvals[msg.sender]) */\n              tag_87\n              jumpi\n              0x00\n              dup1\n              revert\n            tag_87:\n                /* \"Campaign.sol\":2091:2095  true */\n              0x01\n                /* \"Campaign.sol\":2059:2066  request */\n              dup2\n                /* \"Campaign.sol\":2059:2076  request.approvals */\n              0x04\n              add\n                /* \"Campaign.sol\":2059:2088  request.approvals[msg.sender] */\n              0x00\n                /* \"Campaign.sol\":2077:2087  msg.sender */\n              caller\n                /* \"Campaign.sol\":2059:2088  request.approvals[msg.sender] */\n              0xffffffffffffffffffffffffffffffffffffffff\n              and\n              0xffffffffffffffffffffffffffffffffffffffff\n              and\n              dup2\n              mstore\n              0x20\n              add\n              swap1\n              dup2\n              mstore\n              0x20\n              add\n              0x00\n              keccak256\n              0x00\n                /* \"Campaign.sol\":2059:2095  request.approvals[msg.sender] = true */\n              0x0100\n              exp\n              dup2\n              sload\n              dup2\n              0xff\n              mul\n              not\n              and\n              swap1\n              dup4\n              iszero\n              iszero\n              mul\n              or\n              swap1\n              sstore\n              pop\n                /* \"Campaign.sol\":2106:2113  request */\n              dup1\n                /* \"Campaign.sol\":2106:2127  request.approvalCount */\n              0x03\n              add\n              0x00\n                /* \"Campaign.sol\":2106:2129  request.approvalCount++ */\n              dup2\n              sload\n              dup1\n              swap3\n              swap2\n              swap1\n              tag_88\n              swap1\n              tag_79\n              jump\t// in\n            tag_88:\n              swap2\n              swap1\n              pop\n              sstore\n              pop\n                /* \"Campaign.sol\":1903:2137  {... */\n              pop\n                /* \"Campaign.sol\":1859:2137  function approveRequest(uint256 key) public {... */\n              pop\n              jump\t// out\n                /* \"#utility.yul\":7:82   */\n            tag_89:\n                /* \"#utility.yul\":40:46   */\n              0x00\n                /* \"#utility.yul\":73:75   */\n              0x40\n                /* \"#utility.yul\":67:76   */\n              mload\n                /* \"#utility.yul\":57:76   */\n              swap1\n              pop\n                /* \"#utility.yul\":7:82   */\n              swap1\n              jump\t// out\n                /* \"#utility.yul\":88:205   */\n            tag_90:\n                /* \"#utility.yul\":197:198   */\n              0x00\n                /* \"#utility.yul\":194:195   */\n              dup1\n                /* \"#utility.yul\":187:199   */\n              revert\n                /* \"#utility.yul\":211:328   */\n            tag_91:\n                /* \"#utility.yul\":320:321   */\n              0x00\n                /* \"#utility.yul\":317:318   */\n              dup1\n                /* \"#utility.yul\":310:322   */\n              revert\n                /* \"#utility.yul\":334:411   */\n            tag_92:\n                /* \"#utility.yul\":371:378   */\n              0x00\n                /* \"#utility.yul\":400:405   */\n              dup2\n                /* \"#utility.yul\":389:405   */\n              swap1\n              pop\n                /* \"#utility.yul\":334:411   */\n              swap2\n              swap1\n              pop\n              jump\t// out\n                /* \"#utility.yul\":417:539   */\n            tag_93:\n                /* \"#utility.yul\":490:514   */\n              tag_143\n                /* \"#utility.yul\":508:513   */\n              dup2\n                /* \"#utility.yul\":490:514   */\n              tag_92\n              jump\t// in\n            tag_143:\n                /* \"#utility.yul\":483:488   */\n              dup2\n                /* \"#utility.yul\":480:515   */\n              eq\n                /* \"#utility.yul\":470:533   */\n              tag_144\n              jumpi\n                /* \"#utility.yul\":529:530   */\n              0x00\n                /* \"#utility.yul\":526:527   */\n              dup1\n                /* \"#utility.yul\":519:531   */\n              revert\n                /* \"#utility.yul\":470:533   */\n            tag_144:\n                /* \"#utility.yul\":417:539   */\n              pop\n              jump\t// out\n                /* \"#utility.yul\":545:684   */\n            tag_94:\n                /* \"#utility.yul\":591:596   */\n              0x00\n                /* \"#utility.yul\":629:635   */\n              dup2\n                /* \"#utility.yul\":616:636   */\n              calldataload\n                /* \"#utility.yul\":607:636   */\n              swap1\n              pop\n                /* \"#utility.yul\":645:678   */\n              tag_146\n                /* \"#utility.yul\":672:677   */\n              dup2\n                /* \"#utility.yul\":645:678   */\n              tag_93\n              jump\t// in\n            tag_146:\n                /* \"#utility.yul\":545:684   */\n              swap3\n              swap2\n              pop\n              pop\n              jump\t// out\n                /* \"#utility.yul\":690:1019   */\n            tag_16:\n                /* \"#utility.yul\":749:755   */\n              0x00\n                /* \"#utility.yul\":798:800   */\n              0x20\n                /* \"#utility.yul\":786:795   */\n              dup3\n                /* \"#utility.yul\":777:784   */\n              dup5\n                /* \"#utility.yul\":773:796   */\n              sub\n                /* \"#utility.yul\":769:801   */\n              slt\n                /* \"#utility.yul\":766:885   */\n              iszero\n              tag_148\n              jumpi\n                /* \"#utility.yul\":804:883   */\n              tag_149\n              tag_90\n              jump\t// in\n            tag_149:\n                /* \"#utility.yul\":766:885   */\n            tag_148:\n                /* \"#utility.yul\":924:925   */\n              0x00\n                /* \"#utility.yul\":949:1002   */\n              tag_150\n                /* \"#utility.yul\":994:1001   */\n              dup5\n                /* \"#utility.yul\":985:991   */\n              dup3\n                /* \"#utility.yul\":974:983   */\n              dup6\n                /* \"#utility.yul\":970:992   */\n              add\n                /* \"#utility.yul\":949:1002   */\n              tag_94\n              jump\t// in\n            tag_150:\n                /* \"#utility.yul\":939:1002   */\n              swap2\n              pop\n                /* \"#utility.yul\":895:1012   */\n              pop\n                /* \"#utility.yul\":690:1019   */\n              swap3\n              swap2\n              pop\n              pop\n              jump\t// out\n                /* \"#utility.yul\":1025:1151   */\n            tag_95:\n                /* \"#utility.yul\":1062:1069   */\n              0x00\n                /* \"#utility.yul\":1102:1144   */\n              0xffffffffffffffffffffffffffffffffffffffff\n                /* \"#utility.yul\":1095:1100   */\n              dup3\n                /* \"#utility.yul\":1091:1145   */\n              and\n                /* \"#utility.yul\":1080:1145   */\n              swap1\n              pop\n                /* \"#utility.yul\":1025:1151   */\n              swap2\n              swap1\n              pop\n              jump\t// out\n                /* \"#utility.yul\":1157:1253   */\n            tag_96:\n                /* \"#utility.yul\":1194:1201   */\n              0x00\n                /* \"#utility.yul\":1223:1247   */\n              tag_153\n                /* \"#utility.yul\":1241:1246   */\n              dup3\n                /* \"#utility.yul\":1223:1247   */\n              tag_95\n              jump\t// in\n            tag_153:\n                /* \"#utility.yul\":1212:1247   */\n              swap1\n              pop\n                /* \"#utility.yul\":1157:1253   */\n              swap2\n              swap1\n              pop\n              jump\t// out\n                /* \"#utility.yul\":1259:1381   */\n            tag_97:\n                /* \"#utility.yul\":1332:1356   */\n              tag_155\n                /* \"#utility.yul\":1350:1355   */\n              dup2\n                /* \"#utility.yul\":1332:1356   */\n              tag_96\n              jump\t// in\n            tag_155:\n                /* \"#utility.yul\":1325:1330   */\n              dup2\n                /* \"#utility.yul\":1322:1357   */\n              eq\n                /* \"#utility.yul\":1312:1375   */\n              tag_156\n              jumpi\n                /* \"#utility.yul\":1371:1372   */\n              0x00\n                /* \"#utility.yul\":1368:1369   */\n              dup1\n                /* \"#utility.yul\":1361:1373   */\n              revert\n                /* \"#utility.yul\":1312:1375   */\n            tag_156:\n                /* \"#utility.yul\":1259:1381   */\n              pop\n              jump\t// out\n                /* \"#utility.yul\":1387:1526   */\n            tag_98:\n                /* \"#utility.yul\":1433:1438   */\n              0x00\n                /* \"#utility.yul\":1471:1477   */\n              dup2\n                /* \"#utility.yul\":1458:1478   */\n              calldataload\n                /* \"#utility.yul\":1449:1478   */\n              swap1\n              pop\n                /* \"#utility.yul\":1487:1520   */\n              tag_158\n                /* \"#utility.yul\":1514:1519   */\n              dup2\n                /* \"#utility.yul\":1487:1520   */\n              tag_97\n              jump\t// in\n            tag_158:\n                /* \"#utility.yul\":1387:1526   */\n              swap3\n              swap2\n              pop\n              pop\n              jump\t// out\n                /* \"#utility.yul\":1532:1861   */\n            tag_21:\n                /* \"#utility.yul\":1591:1597   */\n              0x00\n                /* \"#utility.yul\":1640:1642   */\n              0x20\n                /* \"#utility.yul\":1628:1637   */\n              dup3\n                /* \"#utility.yul\":1619:1626   */\n              dup5\n                /* \"#utility.yul\":1615:1638   */\n              sub\n                /* \"#utility.yul\":1611:1643   */\n              slt\n                /* \"#utility.yul\":1608:1727   */\n              iszero\n              tag_160\n              jumpi\n                /* \"#utility.yul\":1646:1725   */\n              tag_161\n              tag_90\n              jump\t// in\n            tag_161:\n                /* \"#utility.yul\":1608:1727   */\n            tag_160:\n                /* \"#utility.yul\":1766:1767   */\n              0x00\n                /* \"#utility.yul\":1791:1844   */\n              tag_162\n                /* \"#utility.yul\":1836:1843   */\n              dup5\n                /* \"#utility.yul\":1827:1833   */\n              dup3\n                /* \"#utility.yul\":1816:1825   */\n              dup6\n                /* \"#utility.yul\":1812:1834   */\n              add\n                /* \"#utility.yul\":1791:1844   */\n              tag_98\n              jump\t// in\n            tag_162:\n                /* \"#utility.yul\":1781:1844   */\n              swap2\n              pop\n                /* \"#utility.yul\":1737:1854   */\n              pop\n                /* \"#utility.yul\":1532:1861   */\n              swap3\n              swap2\n              pop\n              pop\n              jump\t// out\n                /* \"#utility.yul\":1867:1957   */\n            tag_99:\n                /* \"#utility.yul\":1901:1908   */\n              0x00\n                /* \"#utility.yul\":1944:1949   */\n              dup2\n                /* \"#utility.yul\":1937:1950   */\n              iszero\n                /* \"#utility.yul\":1930:1951   */\n              iszero\n                /* \"#utility.yul\":1919:1951   */\n              swap1\n              pop\n                /* \"#utility.yul\":1867:1957   */\n              swap2\n              swap1\n              pop\n              jump\t// out\n                /* \"#utility.yul\":1963:2072   */\n            tag_100:\n                /* \"#utility.yul\":2044:2065   */\n              tag_165\n                /* \"#utility.yul\":2059:2064   */\n              dup2\n                /* \"#utility.yul\":2044:2065   */\n              tag_99\n              jump\t// in\n            tag_165:\n                /* \"#utility.yul\":2039:2042   */\n              dup3\n                /* \"#utility.yul\":2032:2066   */\n              mstore\n                /* \"#utility.yul\":1963:2072   */\n              pop\n              pop\n              jump\t// out\n                /* \"#utility.yul\":2078:2288   */\n            tag_24:\n                /* \"#utility.yul\":2165:2169   */\n              0x00\n                /* \"#utility.yul\":2203:2205   */\n              0x20\n                /* \"#utility.yul\":2192:2201   */\n              dup3\n                /* \"#utility.yul\":2188:2206   */\n              add\n                /* \"#utility.yul\":2180:2206   */\n              swap1\n              pop\n                /* \"#utility.yul\":2216:2281   */\n              tag_167\n                /* \"#utility.yul\":2278:2279   */\n              0x00\n                /* \"#utility.yul\":2267:2276   */\n              dup4\n                /* \"#utility.yul\":2263:2280   */\n              add\n                /* \"#utility.yul\":2254:2260   */\n              dup5\n                /* \"#utility.yul\":2216:2281   */\n              tag_100\n              jump\t// in\n            tag_167:\n                /* \"#utility.yul\":2078:2288   */\n              swap3\n              swap2\n              pop\n              pop\n              jump\t// out\n                /* \"#utility.yul\":2294:2412   */\n            tag_101:\n                /* \"#utility.yul\":2381:2405   */\n              tag_169\n                /* \"#utility.yul\":2399:2404   */\n              dup2\n                /* \"#utility.yul\":2381:2405   */\n              tag_96\n              jump\t// in\n            tag_169:\n                /* \"#utility.yul\":2376:2379   */\n              dup3\n                /* \"#utility.yul\":2369:2406   */\n              mstore\n                /* \"#utility.yul\":2294:2412   */\n              pop\n              pop\n              jump\t// out\n                /* \"#utility.yul\":2418:2640   */\n            tag_29:\n                /* \"#utility.yul\":2511:2515   */\n              0x00\n                /* \"#utility.yul\":2549:2551   */\n              0x20\n                /* \"#utility.yul\":2538:2547   */\n              dup3\n                /* \"#utility.yul\":2534:2552   */\n              add\n                /* \"#utility.yul\":2526:2552   */\n              swap1\n              pop\n                /* \"#utility.yul\":2562:2633   */\n              tag_171\n                /* \"#utility.yul\":2630:2631   */\n              0x00\n                /* \"#utility.yul\":2619:2628   */\n              dup4\n                /* \"#utility.yul\":2615:2632   */\n              add\n                /* \"#utility.yul\":2606:2612   */\n              dup5\n                /* \"#utility.yul\":2562:2633   */\n              tag_101\n              jump\t// in\n            tag_171:\n                /* \"#utility.yul\":2418:2640   */\n              swap3\n              swap2\n              pop\n              pop\n              jump\t// out\n                /* \"#utility.yul\":2646:2745   */\n            tag_102:\n                /* \"#utility.yul\":2698:2704   */\n              0x00\n                /* \"#utility.yul\":2732:2737   */\n              dup2\n                /* \"#utility.yul\":2726:2738   */\n              mload\n                /* \"#utility.yul\":2716:2738   */\n              swap1\n              pop\n                /* \"#utility.yul\":2646:2745   */\n              swap2\n              swap1\n              pop\n              jump\t// out\n                /* \"#utility.yul\":2751:2920   */\n            tag_103:\n                /* \"#utility.yul\":2835:2846   */\n              0x00\n                /* \"#utility.yul\":2869:2875   */\n              dup3\n                /* \"#utility.yul\":2864:2867   */\n              dup3\n                /* \"#utility.yul\":2857:2876   */\n              mstore\n                /* \"#utility.yul\":2909:2913   */\n              0x20\n                /* \"#utility.yul\":2904:2907   */\n              dup3\n                /* \"#utility.yul\":2900:2914   */\n              add\n                /* \"#utility.yul\":2885:2914   */\n              swap1\n              pop\n                /* \"#utility.yul\":2751:2920   */\n              swap3\n              swap2\n              pop\n              pop\n              jump\t// out\n                /* \"#utility.yul\":2926:3233   */\n            tag_104:\n                /* \"#utility.yul\":2994:2995   */\n              0x00\n                /* \"#utility.yul\":3004:3117   */\n            tag_175:\n                /* \"#utility.yul\":3018:3024   */\n              dup4\n                /* \"#utility.yul\":3015:3016   */\n              dup2\n                /* \"#utility.yul\":3012:3025   */\n              lt\n                /* \"#utility.yul\":3004:3117   */\n              iszero\n              tag_177\n              jumpi\n                /* \"#utility.yul\":3103:3104   */\n              dup1\n                /* \"#utility.yul\":3098:3101   */\n              dup3\n                /* \"#utility.yul\":3094:3105   */\n              add\n                /* \"#utility.yul\":3088:3106   */\n              mload\n                /* \"#utility.yul\":3084:3085   */\n              dup2\n                /* \"#utility.yul\":3079:3082   */\n              dup5\n                /* \"#utility.yul\":3075:3086   */\n              add\n                /* \"#utility.yul\":3068:3107   */\n              mstore\n                /* \"#utility.yul\":3040:3042   */\n              0x20\n                /* \"#utility.yul\":3037:3038   */\n              dup2\n                /* \"#utility.yul\":3033:3043   */\n              add\n                /* \"#utility.yul\":3028:3043   */\n              swap1\n              pop\n                /* \"#utility.yul\":3004:3117   */\n              jump(tag_175)\n            tag_177:\n                /* \"#utility.yul\":3135:3141   */\n              dup4\n                /* \"#utility.yul\":3132:3133   */\n              dup2\n                /* \"#utility.yul\":3129:3142   */\n              gt\n                /* \"#utility.yul\":3126:3227   */\n              iszero\n              tag_178\n              jumpi\n                /* \"#utility.yul\":3215:3216   */\n              0x00\n                /* \"#utility.yul\":3206:3212   */\n              dup5\n                /* \"#utility.yul\":3201:3204   */\n              dup5\n                /* \"#utility.yul\":3197:3213   */\n              add\n                /* \"#utility.yul\":3190:3217   */\n              mstore\n                /* \"#utility.yul\":3126:3227   */\n            tag_178:\n                /* \"#utility.yul\":2975:3233   */\n              pop\n                /* \"#utility.yul\":2926:3233   */\n              pop\n              pop\n              pop\n              jump\t// out\n                /* \"#utility.yul\":3239:3341   */\n            tag_105:\n                /* \"#utility.yul\":3280:3286   */\n              0x00\n                /* \"#utility.yul\":3331:3333   */\n              0x1f\n                /* \"#utility.yul\":3327:3334   */\n              not\n                /* \"#utility.yul\":3322:3324   */\n              0x1f\n                /* \"#utility.yul\":3315:3320   */\n              dup4\n                /* \"#utility.yul\":3311:3325   */\n              add\n                /* \"#utility.yul\":3307:3335   */\n              and\n                /* \"#utility.yul\":3297:3335   */\n              swap1\n              pop\n                /* \"#utility.yul\":3239:3341   */\n              swap2\n              swap1\n              pop\n              jump\t// out\n                /* \"#utility.yul\":3347:3711   */\n            tag_106:\n                /* \"#utility.yul\":3435:3438   */\n              0x00\n                /* \"#utility.yul\":3463:3502   */\n              tag_181\n                /* \"#utility.yul\":3496:3501   */\n              dup3\n                /* \"#utility.yul\":3463:3502   */\n              tag_102\n              jump\t// in\n            tag_181:\n                /* \"#utility.yul\":3518:3589   */\n              tag_182\n                /* \"#utility.yul\":3582:3588   */\n              dup2\n                /* \"#utility.yul\":3577:3580   */\n              dup6\n                /* \"#utility.yul\":3518:3589   */\n              tag_103\n              jump\t// in\n            tag_182:\n                /* \"#utility.yul\":3511:3589   */\n              swap4\n              pop\n                /* \"#utility.yul\":3598:3650   */\n              tag_183\n                /* \"#utility.yul\":3643:3649   */\n              dup2\n                /* \"#utility.yul\":3638:3641   */\n              dup6\n                /* \"#utility.yul\":3631:3635   */\n              0x20\n                /* \"#utility.yul\":3624:3629   */\n              dup7\n                /* \"#utility.yul\":3620:3636   */\n              add\n                /* \"#utility.yul\":3598:3650   */\n              tag_104\n              jump\t// in\n            tag_183:\n                /* \"#utility.yul\":3675:3704   */\n              tag_184\n                /* \"#utility.yul\":3697:3703   */\n              dup2\n                /* \"#utility.yul\":3675:3704   */\n              tag_105\n              jump\t// in\n            tag_184:\n                /* \"#utility.yul\":3670:3673   */\n              dup5\n                /* \"#utility.yul\":3666:3705   */\n              add\n                /* \"#utility.yul\":3659:3705   */\n              swap2\n              pop\n                /* \"#utility.yul\":3439:3711   */\n              pop\n                /* \"#utility.yul\":3347:3711   */\n              swap3\n              swap2\n              pop\n              pop\n              jump\t// out\n                /* \"#utility.yul\":3717:3835   */\n            tag_107:\n                /* \"#utility.yul\":3804:3828   */\n              tag_186\n                /* \"#utility.yul\":3822:3827   */\n              dup2\n                /* \"#utility.yul\":3804:3828   */\n              tag_92\n              jump\t// in\n            tag_186:\n                /* \"#utility.yul\":3799:3802   */\n              dup3\n                /* \"#utility.yul\":3792:3829   */\n              mstore\n                /* \"#utility.yul\":3717:3835   */\n              pop\n              pop\n              jump\t// out\n                /* \"#utility.yul\":3841:3945   */\n            tag_108:\n                /* \"#utility.yul\":3886:3893   */\n              0x00\n                /* \"#utility.yul\":3915:3939   */\n              tag_188\n                /* \"#utility.yul\":3933:3938   */\n              dup3\n                /* \"#utility.yul\":3915:3939   */\n              tag_95\n              jump\t// in\n            tag_188:\n                /* \"#utility.yul\":3904:3939   */\n              swap1\n              pop\n                /* \"#utility.yul\":3841:3945   */\n              swap2\n              swap1\n              pop\n              jump\t// out\n                /* \"#utility.yul\":3951:4093   */\n            tag_109:\n                /* \"#utility.yul\":4054:4086   */\n              tag_190\n                /* \"#utility.yul\":4080:4085   */\n              dup2\n                /* \"#utility.yul\":4054:4086   */\n              tag_108\n              jump\t// in\n            tag_190:\n                /* \"#utility.yul\":4049:4052   */\n              dup3\n                /* \"#utility.yul\":4042:4087   */\n              mstore\n                /* \"#utility.yul\":3951:4093   */\n              pop\n              pop\n              jump\t// out\n                /* \"#utility.yul\":4099:4874   */\n            tag_35:\n                /* \"#utility.yul\":4334:4338   */\n              0x00\n                /* \"#utility.yul\":4372:4375   */\n              0xa0\n                /* \"#utility.yul\":4361:4370   */\n              dup3\n                /* \"#utility.yul\":4357:4376   */\n              add\n                /* \"#utility.yul\":4349:4376   */\n              swap1\n              pop\n                /* \"#utility.yul\":4422:4431   */\n              dup2\n                /* \"#utility.yul\":4416:4420   */\n              dup2\n                /* \"#utility.yul\":4412:4432   */\n              sub\n                /* \"#utility.yul\":4408:4409   */\n              0x00\n                /* \"#utility.yul\":4397:4406   */\n              dup4\n                /* \"#utility.yul\":4393:4410   */\n              add\n                /* \"#utility.yul\":4386:4433   */\n              mstore\n                /* \"#utility.yul\":4450:4528   */\n              tag_192\n                /* \"#utility.yul\":4523:4527   */\n              dup2\n                /* \"#utility.yul\":4514:4520   */\n              dup9\n                /* \"#utility.yul\":4450:4528   */\n              tag_106\n              jump\t// in\n            tag_192:\n                /* \"#utility.yul\":4442:4528   */\n              swap1\n              pop\n                /* \"#utility.yul\":4538:4610   */\n              tag_193\n                /* \"#utility.yul\":4606:4608   */\n              0x20\n                /* \"#utility.yul\":4595:4604   */\n              dup4\n                /* \"#utility.yul\":4591:4609   */\n              add\n                /* \"#utility.yul\":4582:4588   */\n              dup8\n                /* \"#utility.yul\":4538:4610   */\n              tag_107\n              jump\t// in\n            tag_193:\n                /* \"#utility.yul\":4620:4708   */\n              tag_194\n                /* \"#utility.yul\":4704:4706   */\n              0x40\n                /* \"#utility.yul\":4693:4702   */\n              dup4\n                /* \"#utility.yul\":4689:4707   */\n              add\n                /* \"#utility.yul\":4680:4686   */\n              dup7\n                /* \"#utility.yul\":4620:4708   */\n              tag_109\n              jump\t// in\n            tag_194:\n                /* \"#utility.yul\":4718:4784   */\n              tag_195\n                /* \"#utility.yul\":4780:4782   */\n              0x60\n                /* \"#utility.yul\":4769:4778   */\n              dup4\n                /* \"#utility.yul\":4765:4783   */\n              add\n                /* \"#utility.yul\":4756:4762   */\n              dup6\n                /* \"#utility.yul\":4718:4784   */\n              tag_100\n              jump\t// in\n            tag_195:\n                /* \"#utility.yul\":4794:4867   */\n              tag_196\n                /* \"#utility.yul\":4862:4865   */\n              0x80\n                /* \"#utility.yul\":4851:4860   */\n              dup4\n                /* \"#utility.yul\":4847:4866   */\n              add\n                /* \"#utility.yul\":4838:4844   */\n              dup5\n                /* \"#utility.yul\":4794:4867   */\n              tag_107\n              jump\t// in\n            tag_196:\n                /* \"#utility.yul\":4099:4874   */\n              swap7\n              swap6\n              pop\n              pop\n              pop\n              pop\n              pop\n              pop\n              jump\t// out\n                /* \"#utility.yul\":4880:5102   */\n            tag_40:\n                /* \"#utility.yul\":4973:4977   */\n              0x00\n                /* \"#utility.yul\":5011:5013   */\n              0x20\n                /* \"#utility.yul\":5000:5009   */\n              dup3\n                /* \"#utility.yul\":4996:5014   */\n              add\n                /* \"#utility.yul\":4988:5014   */\n              swap1\n              pop\n                /* \"#utility.yul\":5024:5095   */\n              tag_198\n                /* \"#utility.yul\":5092:5093   */\n              0x00\n                /* \"#utility.yul\":5081:5090   */\n              dup4\n                /* \"#utility.yul\":5077:5094   */\n              add\n                /* \"#utility.yul\":5068:5074   */\n              dup5\n                /* \"#utility.yul\":5024:5095   */\n              tag_107\n              jump\t// in\n            tag_198:\n                /* \"#utility.yul\":4880:5102   */\n              swap3\n              swap2\n              pop\n              pop\n              jump\t// out\n                /* \"#utility.yul\":5108:5225   */\n            tag_110:\n                /* \"#utility.yul\":5217:5218   */\n              0x00\n                /* \"#utility.yul\":5214:5215   */\n              dup1\n                /* \"#utility.yul\":5207:5219   */\n              revert\n                /* \"#utility.yul\":5231:5348   */\n            tag_111:\n                /* \"#utility.yul\":5340:5341   */\n              0x00\n                /* \"#utility.yul\":5337:5338   */\n              dup1\n                /* \"#utility.yul\":5330:5342   */\n              revert\n                /* \"#utility.yul\":5354:5534   */\n            tag_112:\n                /* \"#utility.yul\":5402:5479   */\n              0x4e487b7100000000000000000000000000000000000000000000000000000000\n                /* \"#utility.yul\":5399:5400   */\n              0x00\n                /* \"#utility.yul\":5392:5480   */\n              mstore\n                /* \"#utility.yul\":5499:5503   */\n              0x41\n                /* \"#utility.yul\":5496:5497   */\n              0x04\n                /* \"#utility.yul\":5489:5504   */\n              mstore\n                /* \"#utility.yul\":5523:5527   */\n              0x24\n                /* \"#utility.yul\":5520:5521   */\n              0x00\n                /* \"#utility.yul\":5513:5528   */\n              revert\n                /* \"#utility.yul\":5540:5821   */\n            tag_113:\n                /* \"#utility.yul\":5623:5650   */\n              tag_203\n                /* \"#utility.yul\":5645:5649   */\n              dup3\n                /* \"#utility.yul\":5623:5650   */\n              tag_105\n              jump\t// in\n            tag_203:\n                /* \"#utility.yul\":5615:5621   */\n              dup2\n                /* \"#utility.yul\":5611:5651   */\n              add\n                /* \"#utility.yul\":5753:5759   */\n              dup2\n                /* \"#utility.yul\":5741:5751   */\n              dup2\n                /* \"#utility.yul\":5738:5760   */\n              lt\n                /* \"#utility.yul\":5717:5735   */\n              0xffffffffffffffff\n                /* \"#utility.yul\":5705:5715   */\n              dup3\n                /* \"#utility.yul\":5702:5736   */\n              gt\n                /* \"#utility.yul\":5699:5761   */\n              or\n                /* \"#utility.yul\":5696:5784   */\n              iszero\n              tag_204\n              jumpi\n                /* \"#utility.yul\":5764:5782   */\n              tag_205\n              tag_112\n              jump\t// in\n            tag_205:\n                /* \"#utility.yul\":5696:5784   */\n            tag_204:\n                /* \"#utility.yul\":5804:5814   */\n              dup1\n                /* \"#utility.yul\":5800:5802   */\n              0x40\n                /* \"#utility.yul\":5793:5815   */\n              mstore\n                /* \"#utility.yul\":5583:5821   */\n              pop\n                /* \"#utility.yul\":5540:5821   */\n              pop\n              pop\n              jump\t// out\n                /* \"#utility.yul\":5827:5956   */\n            tag_114:\n                /* \"#utility.yul\":5861:5867   */\n              0x00\n                /* \"#utility.yul\":5888:5908   */\n              tag_207\n              tag_89\n              jump\t// in\n            tag_207:\n                /* \"#utility.yul\":5878:5908   */\n              swap1\n              pop\n                /* \"#utility.yul\":5917:5950   */\n              tag_208\n                /* \"#utility.yul\":5945:5949   */\n              dup3\n                /* \"#utility.yul\":5937:5943   */\n              dup3\n                /* \"#utility.yul\":5917:5950   */\n              tag_113\n              jump\t// in\n            tag_208:\n                /* \"#utility.yul\":5827:5956   */\n              swap2\n              swap1\n              pop\n              jump\t// out\n                /* \"#utility.yul\":5962:6270   */\n            tag_115:\n                /* \"#utility.yul\":6024:6028   */\n              0x00\n                /* \"#utility.yul\":6114:6132   */\n              0xffffffffffffffff\n                /* \"#utility.yul\":6106:6112   */\n              dup3\n                /* \"#utility.yul\":6103:6133   */\n              gt\n                /* \"#utility.yul\":6100:6156   */\n              iszero\n              tag_210\n              jumpi\n                /* \"#utility.yul\":6136:6154   */\n              tag_211\n              tag_112\n              jump\t// in\n            tag_211:\n                /* \"#utility.yul\":6100:6156   */\n            tag_210:\n                /* \"#utility.yul\":6174:6203   */\n              tag_212\n                /* \"#utility.yul\":6196:6202   */\n              dup3\n                /* \"#utility.yul\":6174:6203   */\n              tag_105\n              jump\t// in\n            tag_212:\n                /* \"#utility.yul\":6166:6203   */\n              swap1\n              pop\n                /* \"#utility.yul\":6258:6262   */\n              0x20\n                /* \"#utility.yul\":6252:6256   */\n              dup2\n                /* \"#utility.yul\":6248:6263   */\n              add\n                /* \"#utility.yul\":6240:6263   */\n              swap1\n              pop\n                /* \"#utility.yul\":5962:6270   */\n              swap2\n              swap1\n              pop\n              jump\t// out\n                /* \"#utility.yul\":6276:6430   */\n            tag_116:\n                /* \"#utility.yul\":6360:6366   */\n              dup3\n                /* \"#utility.yul\":6355:6358   */\n              dup2\n                /* \"#utility.yul\":6350:6353   */\n              dup4\n                /* \"#utility.yul\":6337:6367   */\n              calldatacopy\n                /* \"#utility.yul\":6422:6423   */\n              0x00\n                /* \"#utility.yul\":6413:6419   */\n              dup4\n                /* \"#utility.yul\":6408:6411   */\n              dup4\n                /* \"#utility.yul\":6404:6420   */\n              add\n                /* \"#utility.yul\":6397:6424   */\n              mstore\n                /* \"#utility.yul\":6276:6430   */\n              pop\n              pop\n              pop\n              jump\t// out\n                /* \"#utility.yul\":6436:6848   */\n            tag_117:\n                /* \"#utility.yul\":6514:6519   */\n              0x00\n                /* \"#utility.yul\":6539:6605   */\n              tag_215\n                /* \"#utility.yul\":6555:6604   */\n              tag_216\n                /* \"#utility.yul\":6597:6603   */\n              dup5\n                /* \"#utility.yul\":6555:6604   */\n              tag_115\n              jump\t// in\n            tag_216:\n                /* \"#utility.yul\":6539:6605   */\n              tag_114\n              jump\t// in\n            tag_215:\n                /* \"#utility.yul\":6530:6605   */\n              swap1\n              pop\n                /* \"#utility.yul\":6628:6634   */\n              dup3\n                /* \"#utility.yul\":6621:6626   */\n              dup2\n                /* \"#utility.yul\":6614:6635   */\n              mstore\n                /* \"#utility.yul\":6666:6670   */\n              0x20\n                /* \"#utility.yul\":6659:6664   */\n              dup2\n                /* \"#utility.yul\":6655:6671   */\n              add\n                /* \"#utility.yul\":6704:6707   */\n              dup5\n                /* \"#utility.yul\":6695:6701   */\n              dup5\n                /* \"#utility.yul\":6690:6693   */\n              dup5\n                /* \"#utility.yul\":6686:6702   */\n              add\n                /* \"#utility.yul\":6683:6708   */\n              gt\n                /* \"#utility.yul\":6680:6792   */\n              iszero\n              tag_217\n              jumpi\n                /* \"#utility.yul\":6711:6790   */\n              tag_218\n              tag_111\n              jump\t// in\n            tag_218:\n                /* \"#utility.yul\":6680:6792   */\n            tag_217:\n                /* \"#utility.yul\":6801:6842   */\n              tag_219\n                /* \"#utility.yul\":6835:6841   */\n              dup5\n                /* \"#utility.yul\":6830:6833   */\n              dup3\n                /* \"#utility.yul\":6825:6828   */\n              dup6\n                /* \"#utility.yul\":6801:6842   */\n              tag_116\n              jump\t// in\n            tag_219:\n                /* \"#utility.yul\":6520:6848   */\n              pop\n                /* \"#utility.yul\":6436:6848   */\n              swap4\n              swap3\n              pop\n              pop\n              pop\n              jump\t// out\n                /* \"#utility.yul\":6868:7208   */\n            tag_118:\n                /* \"#utility.yul\":6924:6929   */\n              0x00\n                /* \"#utility.yul\":6973:6976   */\n              dup3\n                /* \"#utility.yul\":6966:6970   */\n              0x1f\n                /* \"#utility.yul\":6958:6964   */\n              dup4\n                /* \"#utility.yul\":6954:6971   */\n              add\n                /* \"#utility.yul\":6950:6977   */\n              slt\n                /* \"#utility.yul\":6940:7062   */\n              tag_221\n              jumpi\n                /* \"#utility.yul\":6981:7060   */\n              tag_222\n              tag_110\n              jump\t// in\n            tag_222:\n                /* \"#utility.yul\":6940:7062   */\n            tag_221:\n                /* \"#utility.yul\":7098:7104   */\n              dup2\n                /* \"#utility.yul\":7085:7105   */\n              calldataload\n                /* \"#utility.yul\":7123:7202   */\n              tag_223\n                /* \"#utility.yul\":7198:7201   */\n              dup5\n                /* \"#utility.yul\":7190:7196   */\n              dup3\n                /* \"#utility.yul\":7183:7187   */\n              0x20\n                /* \"#utility.yul\":7175:7181   */\n              dup7\n                /* \"#utility.yul\":7171:7188   */\n              add\n                /* \"#utility.yul\":7123:7202   */\n              tag_117\n              jump\t// in\n            tag_223:\n                /* \"#utility.yul\":7114:7202   */\n              swap2\n              pop\n                /* \"#utility.yul\":6930:7208   */\n              pop\n                /* \"#utility.yul\":6868:7208   */\n              swap3\n              swap2\n              pop\n              pop\n              jump\t// out\n                /* \"#utility.yul\":7214:8013   */\n            tag_44:\n                /* \"#utility.yul\":7301:7307   */\n              0x00\n                /* \"#utility.yul\":7309:7315   */\n              dup1\n                /* \"#utility.yul\":7317:7323   */\n              0x00\n                /* \"#utility.yul\":7366:7368   */\n              0x60\n                /* \"#utility.yul\":7354:7363   */\n              dup5\n                /* \"#utility.yul\":7345:7352   */\n              dup7\n                /* \"#utility.yul\":7341:7364   */\n              sub\n                /* \"#utility.yul\":7337:7369   */\n              slt\n                /* \"#utility.yul\":7334:7453   */\n              iszero\n              tag_225\n              jumpi\n                /* \"#utility.yul\":7372:7451   */\n              tag_226\n              tag_90\n              jump\t// in\n            tag_226:\n                /* \"#utility.yul\":7334:7453   */\n            tag_225:\n                /* \"#utility.yul\":7520:7521   */\n              0x00\n                /* \"#utility.yul\":7509:7518   */\n              dup5\n                /* \"#utility.yul\":7505:7522   */\n              add\n                /* \"#utility.yul\":7492:7523   */\n              calldataload\n                /* \"#utility.yul\":7550:7568   */\n              0xffffffffffffffff\n                /* \"#utility.yul\":7542:7548   */\n              dup2\n                /* \"#utility.yul\":7539:7569   */\n              gt\n                /* \"#utility.yul\":7536:7653   */\n              iszero\n              tag_227\n              jumpi\n                /* \"#utility.yul\":7572:7651   */\n              tag_228\n              tag_91\n              jump\t// in\n            tag_228:\n                /* \"#utility.yul\":7536:7653   */\n            tag_227:\n                /* \"#utility.yul\":7677:7740   */\n              tag_229\n                /* \"#utility.yul\":7732:7739   */\n              dup7\n                /* \"#utility.yul\":7723:7729   */\n              dup3\n                /* \"#utility.yul\":7712:7721   */\n              dup8\n                /* \"#utility.yul\":7708:7730   */\n              add\n                /* \"#utility.yul\":7677:7740   */\n              tag_118\n              jump\t// in\n            tag_229:\n                /* \"#utility.yul\":7667:7740   */\n              swap4\n              pop\n                /* \"#utility.yul\":7463:7750   */\n              pop\n                /* \"#utility.yul\":7789:7791   */\n              0x20\n                /* \"#utility.yul\":7815:7868   */\n              tag_230\n                /* \"#utility.yul\":7860:7867   */\n              dup7\n                /* \"#utility.yul\":7851:7857   */\n              dup3\n                /* \"#utility.yul\":7840:7849   */\n              dup8\n                /* \"#utility.yul\":7836:7858   */\n              add\n                /* \"#utility.yul\":7815:7868   */\n              tag_94\n              jump\t// in\n            tag_230:\n                /* \"#utility.yul\":7805:7868   */\n              swap3\n              pop\n                /* \"#utility.yul\":7760:7878   */\n              pop\n                /* \"#utility.yul\":7917:7919   */\n              0x40\n                /* \"#utility.yul\":7943:7996   */\n              tag_231\n                /* \"#utility.yul\":7988:7995   */\n              dup7\n                /* \"#utility.yul\":7979:7985   */\n              dup3\n                /* \"#utility.yul\":7968:7977   */\n              dup8\n                /* \"#utility.yul\":7964:7986   */\n              add\n                /* \"#utility.yul\":7943:7996   */\n              tag_98\n              jump\t// in\n            tag_231:\n                /* \"#utility.yul\":7933:7996   */\n              swap2\n              pop\n                /* \"#utility.yul\":7888:8006   */\n              pop\n                /* \"#utility.yul\":7214:8013   */\n              swap3\n              pop\n              swap3\n              pop\n              swap3\n              jump\t// out\n                /* \"#utility.yul\":8019:8199   */\n            tag_119:\n                /* \"#utility.yul\":8067:8144   */\n              0x4e487b7100000000000000000000000000000000000000000000000000000000\n                /* \"#utility.yul\":8064:8065   */\n              0x00\n                /* \"#utility.yul\":8057:8145   */\n              mstore\n                /* \"#utility.yul\":8164:8168   */\n              0x12\n                /* \"#utility.yul\":8161:8162   */\n              0x04\n                /* \"#utility.yul\":8154:8169   */\n              mstore\n                /* \"#utility.yul\":8188:8192   */\n              0x24\n                /* \"#utility.yul\":8185:8186   */\n              0x00\n                /* \"#utility.yul\":8178:8193   */\n              revert\n                /* \"#utility.yul\":8205:8385   */\n            tag_120:\n                /* \"#utility.yul\":8253:8330   */\n              0x4e487b7100000000000000000000000000000000000000000000000000000000\n                /* \"#utility.yul\":8250:8251   */\n              0x00\n                /* \"#utility.yul\":8243:8331   */\n              mstore\n                /* \"#utility.yul\":8350:8354   */\n              0x11\n                /* \"#utility.yul\":8347:8348   */\n              0x04\n                /* \"#utility.yul\":8340:8355   */\n              mstore\n                /* \"#utility.yul\":8374:8378   */\n              0x24\n                /* \"#utility.yul\":8371:8372   */\n              0x00\n                /* \"#utility.yul\":8364:8379   */\n              revert\n                /* \"#utility.yul\":8391:8576   */\n            tag_65:\n                /* \"#utility.yul\":8431:8432   */\n              0x00\n                /* \"#utility.yul\":8448:8468   */\n              tag_235\n                /* \"#utility.yul\":8466:8467   */\n              dup3\n                /* \"#utility.yul\":8448:8468   */\n              tag_92\n              jump\t// in\n            tag_235:\n                /* \"#utility.yul\":8443:8468   */\n              swap2\n              pop\n                /* \"#utility.yul\":8482:8502   */\n              tag_236\n                /* \"#utility.yul\":8500:8501   */\n              dup4\n                /* \"#utility.yul\":8482:8502   */\n              tag_92\n              jump\t// in\n            tag_236:\n                /* \"#utility.yul\":8477:8502   */\n              swap3\n              pop\n                /* \"#utility.yul\":8521:8522   */\n              dup3\n                /* \"#utility.yul\":8511:8546   */\n              tag_237\n              jumpi\n                /* \"#utility.yul\":8526:8544   */\n              tag_238\n              tag_119\n              jump\t// in\n            tag_238:\n                /* \"#utility.yul\":8511:8546   */\n            tag_237:\n                /* \"#utility.yul\":8568:8569   */\n              dup3\n                /* \"#utility.yul\":8565:8566   */\n              dup3\n                /* \"#utility.yul\":8561:8570   */\n              div\n                /* \"#utility.yul\":8556:8570   */\n              swap1\n              pop\n                /* \"#utility.yul\":8391:8576   */\n              swap3\n              swap2\n              pop\n              pop\n              jump\t// out\n                /* \"#utility.yul\":8582:8762   */\n            tag_121:\n                /* \"#utility.yul\":8630:8707   */\n              0x4e487b7100000000000000000000000000000000000000000000000000000000\n                /* \"#utility.yul\":8627:8628   */\n              0x00\n                /* \"#utility.yul\":8620:8708   */\n              mstore\n                /* \"#utility.yul\":8727:8731   */\n              0x22\n                /* \"#utility.yul\":8724:8725   */\n              0x04\n                /* \"#utility.yul\":8717:8732   */\n              mstore\n                /* \"#utility.yul\":8751:8755   */\n              0x24\n                /* \"#utility.yul\":8748:8749   */\n              0x00\n                /* \"#utility.yul\":8741:8756   */\n              revert\n                /* \"#utility.yul\":8768:9088   */\n            tag_70:\n                /* \"#utility.yul\":8812:8818   */\n              0x00\n                /* \"#utility.yul\":8849:8850   */\n              0x02\n                /* \"#utility.yul\":8843:8847   */\n              dup3\n                /* \"#utility.yul\":8839:8851   */\n              div\n                /* \"#utility.yul\":8829:8851   */\n              swap1\n              pop\n                /* \"#utility.yul\":8896:8897   */\n              0x01\n                /* \"#utility.yul\":8890:8894   */\n              dup3\n                /* \"#utility.yul\":8886:8898   */\n              and\n                /* \"#utility.yul\":8917:8935   */\n              dup1\n                /* \"#utility.yul\":8907:8988   */\n              tag_241\n              jumpi\n                /* \"#utility.yul\":8973:8977   */\n              0x7f\n                /* \"#utility.yul\":8965:8971   */\n              dup3\n                /* \"#utility.yul\":8961:8978   */\n              and\n                /* \"#utility.yul\":8951:8978   */\n              swap2\n              pop\n                /* \"#utility.yul\":8907:8988   */\n            tag_241:\n                /* \"#utility.yul\":9035:9037   */\n              0x20\n                /* \"#utility.yul\":9027:9033   */\n              dup3\n                /* \"#utility.yul\":9024:9038   */\n              lt\n                /* \"#utility.yul\":9004:9022   */\n              dup2\n                /* \"#utility.yul\":9001:9039   */\n              sub\n                /* \"#utility.yul\":8998:9082   */\n              tag_242\n              jumpi\n                /* \"#utility.yul\":9054:9072   */\n              tag_243\n              tag_121\n              jump\t// in\n            tag_243:\n                /* \"#utility.yul\":8998:9082   */\n            tag_242:\n                /* \"#utility.yul\":8819:9088   */\n              pop\n                /* \"#utility.yul\":8768:9088   */\n              swap2\n              swap1\n              pop\n              jump\t// out\n                /* \"#utility.yul\":9094:9327   */\n            tag_79:\n                /* \"#utility.yul\":9133:9136   */\n              0x00\n                /* \"#utility.yul\":9156:9180   */\n              tag_245\n                /* \"#utility.yul\":9174:9179   */\n              dup3\n                /* \"#utility.yul\":9156:9180   */\n              tag_92\n              jump\t// in\n            tag_245:\n                /* \"#utility.yul\":9147:9180   */\n              swap2\n              pop\n                /* \"#utility.yul\":9202:9268   */\n              0xffffffffffffffffffffffffffffffffffffffffffffffffffffffffffffffff\n                /* \"#utility.yul\":9195:9200   */\n              dup3\n                /* \"#utility.yul\":9192:9269   */\n              sub\n                /* \"#utility.yul\":9189:9292   */\n              tag_246\n              jumpi\n                /* \"#utility.yul\":9272:9290   */\n              tag_247\n              tag_120\n              jump\t// in\n            tag_247:\n                /* \"#utility.yul\":9189:9292   */\n            tag_246:\n                /* \"#utility.yul\":9319:9320   */\n              0x01\n                /* \"#utility.yul\":9312:9317   */\n              dup3\n                /* \"#utility.yul\":9308:9321   */\n              add\n                /* \"#utility.yul\":9301:9321   */\n              swap1\n              pop\n                /* \"#utility.yul\":9094:9327   */\n              swap2\n              swap1\n              pop\n              jump\t// out\n                /* \"#utility.yul\":9333:9474   */\n            tag_122:\n                /* \"#utility.yul\":9382:9386   */\n              0x00\n                /* \"#utility.yul\":9405:9408   */\n              dup2\n                /* \"#utility.yul\":9397:9408   */\n              swap1\n              pop\n                /* \"#utility.yul\":9428:9431   */\n              dup2\n                /* \"#utility.yul\":9425:9426   */\n              0x00\n                /* \"#utility.yul\":9418:9432   */\n              mstore\n                /* \"#utility.yul\":9462:9466   */\n              0x20\n                /* \"#utility.yul\":9459:9460   */\n              0x00\n                /* \"#utility.yul\":9449:9467   */\n              keccak256\n                /* \"#utility.yul\":9441:9467   */\n              swap1\n              pop\n                /* \"#utility.yul\":9333:9474   */\n              swap2\n              swap1\n              pop\n              jump\t// out\n                /* \"#utility.yul\":9480:9573   */\n            tag_123:\n                /* \"#utility.yul\":9517:9523   */\n              0x00\n                /* \"#utility.yul\":9564:9566   */\n              0x20\n                /* \"#utility.yul\":9559:9561   */\n              0x1f\n                /* \"#utility.yul\":9552:9557   */\n              dup4\n                /* \"#utility.yul\":9548:9562   */\n              add\n                /* \"#utility.yul\":9544:9567   */\n              div\n                /* \"#utility.yul\":9534:9567   */\n              swap1\n              pop\n                /* \"#utility.yul\":9480:9573   */\n              swap2\n              swap1\n              pop\n              jump\t// out\n                /* \"#utility.yul\":9579:9686   */\n            tag_124:\n                /* \"#utility.yul\":9623:9631   */\n              0x00\n                /* \"#utility.yul\":9673:9678   */\n              dup3\n                /* \"#utility.yul\":9667:9671   */\n              dup3\n                /* \"#utility.yul\":9663:9679   */\n              shl\n                /* \"#utility.yul\":9642:9679   */\n              swap1\n              pop\n                /* \"#utility.yul\":9579:9686   */\n              swap3\n              swap2\n              pop\n              pop\n              jump\t// out\n                /* \"#utility.yul\":9692:10085   */\n            tag_125:\n                /* \"#utility.yul\":9761:9767   */\n              0x00\n                /* \"#utility.yul\":9811:9812   */\n              0x08\n                /* \"#utility.yul\":9799:9809   */\n              dup4\n                /* \"#utility.yul\":9795:9813   */\n              mul\n                /* \"#utility.yul\":9834:9931   */\n              tag_252\n                /* \"#utility.yul\":9864:9930   */\n              0xffffffffffffffffffffffffffffffffffffffffffffffffffffffffffffffff\n                /* \"#utility.yul\":9853:9862   */\n              dup3\n                /* \"#utility.yul\":9834:9931   */\n              tag_124\n              jump\t// in\n            tag_252:\n                /* \"#utility.yul\":9952:9991   */\n              tag_253\n                /* \"#utility.yul\":9982:9990   */\n              dup7\n                /* \"#utility.yul\":9971:9980   */\n              dup4\n                /* \"#utility.yul\":9952:9991   */\n              tag_124\n              jump\t// in\n            tag_253:\n                /* \"#utility.yul\":9940:9991   */\n              swap6\n              pop\n                /* \"#utility.yul\":10024:10028   */\n              dup1\n                /* \"#utility.yul\":10020:10029   */\n              not\n                /* \"#utility.yul\":10013:10018   */\n              dup5\n                /* \"#utility.yul\":10009:10030   */\n              and\n                /* \"#utility.yul\":10000:10030   */\n              swap4\n              pop\n                /* \"#utility.yul\":10073:10077   */\n              dup1\n                /* \"#utility.yul\":10063:10071   */\n              dup7\n                /* \"#utility.yul\":10059:10078   */\n              and\n                /* \"#utility.yul\":10052:10057   */\n              dup5\n                /* \"#utility.yul\":10049:10079   */\n              or\n                /* \"#utility.yul\":10039:10079   */\n              swap3\n              pop\n                /* \"#utility.yul\":9768:10085   */\n              pop\n              pop\n                /* \"#utility.yul\":9692:10085   */\n              swap4\n              swap3\n              pop\n              pop\n              pop\n              jump\t// out\n                /* \"#utility.yul\":10091:10151   */\n            tag_126:\n                /* \"#utility.yul\":10119:10122   */\n              0x00\n                /* \"#utility.yul\":10140:10145   */\n              dup2\n                /* \"#utility.yul\":10133:10145   */\n              swap1\n              pop\n                /* \"#utility.yul\":10091:10151   */\n              swap2\n              swap1\n              pop\n              jump\t// out\n                /* \"#utility.yul\":10157:10299   */\n            tag_127:\n                /* \"#utility.yul\":10207:10216   */\n              0x00\n                /* \"#utility.yul\":10240:10293   */\n              tag_256\n                /* \"#utility.yul\":10258:10292   */\n              tag_257\n                /* \"#utility.yul\":10267:10291   */\n              tag_258\n                /* \"#utility.yul\":10285:10290   */\n              dup5\n                /* \"#utility.yul\":10267:10291   */\n              tag_92\n              jump\t// in\n            tag_258:\n                /* \"#utility.yul\":10258:10292   */\n              tag_126\n              jump\t// in\n            tag_257:\n                /* \"#utility.yul\":10240:10293   */\n              tag_92\n              jump\t// in\n            tag_256:\n                /* \"#utility.yul\":10227:10293   */\n              swap1\n              pop\n                /* \"#utility.yul\":10157:10299   */\n              swap2\n              swap1\n              pop\n              jump\t// out\n                /* \"#utility.yul\":10305:10380   */\n            tag_128:\n                /* \"#utility.yul\":10348:10351   */\n              0x00\n                /* \"#utility.yul\":10369:10374   */\n              dup2\n                /* \"#utility.yul\":10362:10374   */\n              swap1\n              pop\n                /* \"#utility.yul\":10305:10380   */\n              swap2\n              swap1\n              pop\n              jump\t// out\n                /* \"#utility.yul\":10386:10655   */\n            tag_129:\n                /* \"#utility.yul\":10496:10535   */\n              tag_261\n                /* \"#utility.yul\":10527:10534   */\n              dup4\n                /* \"#utility.yul\":10496:10535   */\n              tag_127\n              jump\t// in\n            tag_261:\n                /* \"#utility.yul\":10557:10648   */\n              tag_262\n                /* \"#utility.yul\":10606:10647   */\n              tag_263\n                /* \"#utility.yul\":10630:10646   */\n              dup3\n                /* \"#utility.yul\":10606:10647   */\n              tag_128\n              jump\t// in\n            tag_263:\n                /* \"#utility.yul\":10598:10604   */\n              dup5\n                /* \"#utility.yul\":10591:10595   */\n              dup5\n                /* \"#utility.yul\":10585:10596   */\n              sload\n                /* \"#utility.yul\":10557:10648   */\n              tag_125\n              jump\t// in\n            tag_262:\n                /* \"#utility.yul\":10551:10555   */\n              dup3\n                /* \"#utility.yul\":10544:10649   */\n              sstore\n                /* \"#utility.yul\":10462:10655   */\n              pop\n                /* \"#utility.yul\":10386:10655   */\n              pop\n              pop\n              pop\n              jump\t// out\n                /* \"#utility.yul\":10661:10734   */\n            tag_130:\n                /* \"#utility.yul\":10706:10709   */\n              0x00\n                /* \"#utility.yul\":10661:10734   */\n              swap1\n              jump\t// out\n                /* \"#utility.yul\":10740:10929   */\n            tag_131:\n                /* \"#utility.yul\":10817:10849   */\n              tag_266\n              tag_130\n              jump\t// in\n            tag_266:\n                /* \"#utility.yul\":10858:10923   */\n              tag_267\n                /* \"#utility.yul\":10916:10922   */\n              dup2\n                /* \"#utility.yul\":10908:10914   */\n              dup5\n                /* \"#utility.yul\":10902:10906   */\n              dup5\n                /* \"#utility.yul\":10858:10923   */\n              tag_129\n              jump\t// in\n            tag_267:\n                /* \"#utility.yul\":10793:10929   */\n              pop\n                /* \"#utility.yul\":10740:10929   */\n              pop\n              pop\n              jump\t// out\n                /* \"#utility.yul\":10935:11121   */\n            tag_132:\n                /* \"#utility.yul\":10995:11115   */\n            tag_269:\n                /* \"#utility.yul\":11012:11015   */\n              dup2\n                /* \"#utility.yul\":11005:11010   */\n              dup2\n                /* \"#utility.yul\":11002:11016   */\n              lt\n                /* \"#utility.yul\":10995:11115   */\n              iszero\n              tag_271\n              jumpi\n                /* \"#utility.yul\":11066:11105   */\n              tag_272\n                /* \"#utility.yul\":11103:11104   */\n              0x00\n                /* \"#utility.yul\":11096:11101   */\n              dup3\n                /* \"#utility.yul\":11066:11105   */\n              tag_131\n              jump\t// in\n            tag_272:\n                /* \"#utility.yul\":11039:11040   */\n              0x01\n                /* \"#utility.yul\":11032:11037   */\n              dup2\n                /* \"#utility.yul\":11028:11041   */\n              add\n                /* \"#utility.yul\":11019:11041   */\n              swap1\n              pop\n                /* \"#utility.yul\":10995:11115   */\n              jump(tag_269)\n            tag_271:\n                /* \"#utility.yul\":10935:11121   */\n              pop\n              pop\n              jump\t// out\n                /* \"#utility.yul\":11127:11670   */\n            tag_133:\n                /* \"#utility.yul\":11228:11230   */\n              0x1f\n                /* \"#utility.yul\":11223:11226   */\n              dup3\n                /* \"#utility.yul\":11220:11231   */\n              gt\n                /* \"#utility.yul\":11217:11663   */\n              iszero\n              tag_274\n              jumpi\n                /* \"#utility.yul\":11262:11300   */\n              tag_275\n                /* \"#utility.yul\":11294:11299   */\n              dup2\n                /* \"#utility.yul\":11262:11300   */\n              tag_122\n              jump\t// in\n            tag_275:\n                /* \"#utility.yul\":11346:11375   */\n              tag_276\n                /* \"#utility.yul\":11364:11374   */\n              dup5\n                /* \"#utility.yul\":11346:11375   */\n              tag_123\n              jump\t// in\n            tag_276:\n                /* \"#utility.yul\":11336:11344   */\n              dup2\n                /* \"#utility.yul\":11332:11376   */\n              add\n                /* \"#utility.yul\":11529:11531   */\n              0x20\n                /* \"#utility.yul\":11517:11527   */\n              dup6\n                /* \"#utility.yul\":11514:11532   */\n              lt\n                /* \"#utility.yul\":11511:11560   */\n              iszero\n              tag_277\n              jumpi\n                /* \"#utility.yul\":11550:11558   */\n              dup2\n                /* \"#utility.yul\":11535:11558   */\n              swap1\n              pop\n                /* \"#utility.yul\":11511:11560   */\n            tag_277:\n                /* \"#utility.yul\":11573:11653   */\n              tag_278\n                /* \"#utility.yul\":11629:11651   */\n              tag_279\n                /* \"#utility.yul\":11647:11650   */\n              dup6\n                /* \"#utility.yul\":11629:11651   */\n              tag_123\n              jump\t// in\n            tag_279:\n                /* \"#utility.yul\":11619:11627   */\n              dup4\n                /* \"#utility.yul\":11615:11652   */\n              add\n                /* \"#utility.yul\":11602:11613   */\n              dup3\n                /* \"#utility.yul\":11573:11653   */\n              tag_132\n              jump\t// in\n            tag_278:\n                /* \"#utility.yul\":11232:11663   */\n              pop\n              pop\n                /* \"#utility.yul\":11217:11663   */\n            tag_274:\n                /* \"#utility.yul\":11127:11670   */\n              pop\n              pop\n              pop\n              jump\t// out\n                /* \"#utility.yul\":11676:11793   */\n            tag_134:\n                /* \"#utility.yul\":11730:11738   */\n              0x00\n                /* \"#utility.yul\":11780:11785   */\n              dup3\n                /* \"#utility.yul\":11774:11778   */\n              dup3\n                /* \"#utility.yul\":11770:11786   */\n              shr\n                /* \"#utility.yul\":11749:11786   */\n              swap1\n              pop\n                /* \"#utility.yul\":11676:11793   */\n              swap3\n              swap2\n              pop\n              pop\n              jump\t// out\n                /* \"#utility.yul\":11799:11968   */\n            tag_135:\n                /* \"#utility.yul\":11843:11849   */\n              0x00\n                /* \"#utility.yul\":11876:11927   */\n              tag_282\n                /* \"#utility.yul\":11924:11925   */\n              0x00\n                /* \"#utility.yul\":11920:11926   */\n              not\n                /* \"#utility.yul\":11912:11917   */\n              dup5\n                /* \"#utility.yul\":11909:11910   */\n              0x08\n                /* \"#utility.yul\":11905:11918   */\n              mul\n                /* \"#utility.yul\":11876:11927   */\n              tag_134\n              jump\t// in\n            tag_282:\n                /* \"#utility.yul\":11872:11928   */\n              not\n                /* \"#utility.yul\":11957:11961   */\n              dup1\n                /* \"#utility.yul\":11951:11955   */\n              dup4\n                /* \"#utility.yul\":11947:11962   */\n              and\n                /* \"#utility.yul\":11937:11962   */\n              swap2\n              pop\n                /* \"#utility.yul\":11850:11968   */\n              pop\n                /* \"#utility.yul\":11799:11968   */\n              swap3\n              swap2\n              pop\n              pop\n              jump\t// out\n                /* \"#utility.yul\":11973:12268   */\n            tag_136:\n                /* \"#utility.yul\":12049:12053   */\n              0x00\n                /* \"#utility.yul\":12195:12224   */\n              tag_284\n                /* \"#utility.yul\":12220:12223   */\n              dup4\n                /* \"#utility.yul\":12214:12218   */\n              dup4\n                /* \"#utility.yul\":12195:12224   */\n              tag_135\n              jump\t// in\n            tag_284:\n                /* \"#utility.yul\":12187:12224   */\n              swap2\n              pop\n                /* \"#utility.yul\":12257:12260   */\n              dup3\n                /* \"#utility.yul\":12254:12255   */\n              0x02\n                /* \"#utility.yul\":12250:12261   */\n              mul\n                /* \"#utility.yul\":12244:12248   */\n              dup3\n                /* \"#utility.yul\":12241:12262   */\n              or\n                /* \"#utility.yul\":12233:12262   */\n              swap1\n              pop\n                /* \"#utility.yul\":11973:12268   */\n              swap3\n              swap2\n              pop\n              pop\n              jump\t// out\n                /* \"#utility.yul\":12273:13668   */\n            tag_81:\n                /* \"#utility.yul\":12390:12427   */\n              tag_286\n                /* \"#utility.yul\":12423:12426   */\n              dup3\n                /* \"#utility.yul\":12390:12427   */\n              tag_102\n              jump\t// in\n            tag_286:\n                /* \"#utility.yul\":12492:12510   */\n              0xffffffffffffffff\n                /* \"#utility.yul\":12484:12490   */\n              dup2\n                /* \"#utility.yul\":12481:12511   */\n              gt\n                /* \"#utility.yul\":12478:12534   */\n              iszero\n              tag_287\n              jumpi\n                /* \"#utility.yul\":12514:12532   */\n              tag_288\n              tag_112\n              jump\t// in\n            tag_288:\n                /* \"#utility.yul\":12478:12534   */\n            tag_287:\n                /* \"#utility.yul\":12558:12596   */\n              tag_289\n                /* \"#utility.yul\":12590:12594   */\n              dup3\n                /* \"#utility.yul\":12584:12595   */\n              sload\n                /* \"#utility.yul\":12558:12596   */\n              tag_70\n              jump\t// in\n            tag_289:\n                /* \"#utility.yul\":12643:12710   */\n              tag_290\n                /* \"#utility.yul\":12703:12709   */\n              dup3\n                /* \"#utility.yul\":12695:12701   */\n              dup3\n                /* \"#utility.yul\":12689:12693   */\n              dup6\n                /* \"#utility.yul\":12643:12710   */\n              tag_133\n              jump\t// in\n            tag_290:\n                /* \"#utility.yul\":12737:12738   */\n              0x00\n                /* \"#utility.yul\":12761:12765   */\n              0x20\n                /* \"#utility.yul\":12748:12765   */\n              swap1\n              pop\n                /* \"#utility.yul\":12793:12795   */\n              0x1f\n                /* \"#utility.yul\":12785:12791   */\n              dup4\n                /* \"#utility.yul\":12782:12796   */\n              gt\n                /* \"#utility.yul\":12810:12811   */\n              0x01\n                /* \"#utility.yul\":12805:13423   */\n              dup2\n              eq\n              tag_292\n              jumpi\n                /* \"#utility.yul\":13467:13468   */\n              0x00\n                /* \"#utility.yul\":13484:13490   */\n              dup5\n                /* \"#utility.yul\":13481:13558   */\n              iszero\n              tag_293\n              jumpi\n                /* \"#utility.yul\":13533:13542   */\n              dup3\n                /* \"#utility.yul\":13528:13531   */\n              dup8\n                /* \"#utility.yul\":13524:13543   */\n              add\n                /* \"#utility.yul\":13518:13544   */\n              mload\n                /* \"#utility.yul\":13509:13544   */\n              swap1\n              pop\n                /* \"#utility.yul\":13481:13558   */\n            tag_293:\n                /* \"#utility.yul\":13584:13651   */\n              tag_294\n                /* \"#utility.yul\":13644:13650   */\n              dup6\n                /* \"#utility.yul\":13637:13642   */\n              dup3\n                /* \"#utility.yul\":13584:13651   */\n              tag_136\n              jump\t// in\n            tag_294:\n                /* \"#utility.yul\":13578:13582   */\n              dup7\n                /* \"#utility.yul\":13571:13652   */\n              sstore\n                /* \"#utility.yul\":13440:13662   */\n              pop\n                /* \"#utility.yul\":12775:13662   */\n              jump(tag_291)\n                /* \"#utility.yul\":12805:13423   */\n            tag_292:\n                /* \"#utility.yul\":12857:12861   */\n              0x1f\n                /* \"#utility.yul\":12853:12862   */\n              not\n                /* \"#utility.yul\":12845:12851   */\n              dup5\n                /* \"#utility.yul\":12841:12863   */\n              and\n                /* \"#utility.yul\":12891:12928   */\n              tag_295\n                /* \"#utility.yul\":12923:12927   */\n              dup7\n                /* \"#utility.yul\":12891:12928   */\n              tag_122\n              jump\t// in\n            tag_295:\n                /* \"#utility.yul\":12950:12951   */\n              0x00\n                /* \"#utility.yul\":12964:13172   */\n            tag_296:\n                /* \"#utility.yul\":12978:12985   */\n              dup3\n                /* \"#utility.yul\":12975:12976   */\n              dup2\n                /* \"#utility.yul\":12972:12986   */\n              lt\n                /* \"#utility.yul\":12964:13172   */\n              iszero\n              tag_298\n              jumpi\n                /* \"#utility.yul\":13057:13066   */\n              dup5\n                /* \"#utility.yul\":13052:13055   */\n              dup10\n                /* \"#utility.yul\":13048:13067   */\n              add\n                /* \"#utility.yul\":13042:13068   */\n              mload\n                /* \"#utility.yul\":13034:13040   */\n              dup3\n                /* \"#utility.yul\":13027:13069   */\n              sstore\n                /* \"#utility.yul\":13108:13109   */\n              0x01\n                /* \"#utility.yul\":13100:13106   */\n              dup3\n                /* \"#utility.yul\":13096:13110   */\n              add\n                /* \"#utility.yul\":13086:13110   */\n              swap2\n              pop\n                /* \"#utility.yul\":13155:13157   */\n              0x20\n                /* \"#utility.yul\":13144:13153   */\n              dup6\n                /* \"#utility.yul\":13140:13158   */\n              add\n                /* \"#utility.yul\":13127:13158   */\n              swap5\n              pop\n                /* \"#utility.yul\":13001:13005   */\n              0x20\n                /* \"#utility.yul\":12998:12999   */\n              dup2\n                /* \"#utility.yul\":12994:13006   */\n              add\n                /* \"#utility.yul\":12989:13006   */\n              swap1\n              pop\n                /* \"#utility.yul\":12964:13172   */\n              jump(tag_296)\n            tag_298:\n                /* \"#utility.yul\":13200:13206   */\n              dup7\n                /* \"#utility.yul\":13191:13198   */\n              dup4\n                /* \"#utility.yul\":13188:13207   */\n              lt\n                /* \"#utility.yul\":13185:13364   */\n              iszero\n              tag_299\n              jumpi\n                /* \"#utility.yul\":13258:13267   */\n              dup5\n                /* \"#utility.yul\":13253:13256   */\n              dup10\n                /* \"#utility.yul\":13249:13268   */\n              add\n                /* \"#utility.yul\":13243:13269   */\n              mload\n                /* \"#utility.yul\":13301:13349   */\n              tag_300\n                /* \"#utility.yul\":13343:13347   */\n              0x1f\n                /* \"#utility.yul\":13335:13341   */\n              dup10\n                /* \"#utility.yul\":13331:13348   */\n              and\n                /* \"#utility.yul\":13320:13329   */\n              dup3\n                /* \"#utility.yul\":13301:13349   */\n              tag_135\n              jump\t// in\n            tag_300:\n                /* \"#utility.yul\":13293:13299   */\n              dup4\n                /* \"#utility.yul\":13286:13350   */\n              sstore\n                /* \"#utility.yul\":13208:13364   */\n              pop\n                /* \"#utility.yul\":13185:13364   */\n            tag_299:\n                /* \"#utility.yul\":13410:13411   */\n              0x01\n                /* \"#utility.yul\":13406:13407   */\n              0x02\n                /* \"#utility.yul\":13398:13404   */\n              dup9\n                /* \"#utility.yul\":13394:13408   */\n              mul\n                /* \"#utility.yul\":13390:13412   */\n              add\n                /* \"#utility.yul\":13384:13388   */\n              dup9\n                /* \"#utility.yul\":13377:13413   */\n              sstore\n                /* \"#utility.yul\":12812:13423   */\n              pop\n              pop\n              pop\n                /* \"#utility.yul\":12775:13662   */\n            tag_291:\n              pop\n                /* \"#utility.yul\":12365:13668   */\n              pop\n              pop\n              pop\n                /* \"#utility.yul\":12273:13668   */\n              pop\n              pop\n              jump\t// out\n\n            auxdata: 0xa26469706673582212200dfc2da2de91981566832ec251631174a5e984b1921f81ebdd76607f7623bcee64736f6c634300080f0033\n        }\n    }\n\n    auxdata: 0xa2646970667358221220215c0ef265d1fd814c437cc35e00d93dcbafa7159fc264c31187a2ff9b1e1ffa64736f6c634300080f0033\n}\n",
        "bytecode": {
            "linkReferences": {},
            "object": "608060405234801561001057600080fd5b506115db806100206000396000f3fe608060405234801561001057600080fd5b50600436106100415760003560e01c8063339d50a514610046578063a3303a7514610076578063a6b0363314610092575b600080fd5b610060600480360381019061005b9190610266565b6100b0565b60405161006d9190610312565b60405180910390f35b610090600480360381019061008b9190610266565b6100ef565b005b61009a610190565b6040516100a791906103eb565b60405180910390f35b600081815481106100c057600080fd5b906000526020600020016000915054906101000a900473ffffffffffffffffffffffffffffffffffffffff1681565b600081336040516100ff9061021e565b61010a92919061043d565b604051809103906000f080158015610126573d6000803e3d6000fd5b5090506000819080600181540180825580915050600190039060005260206000200160009091909190916101000a81548173ffffffffffffffffffffffffffffffffffffffff021916908373ffffffffffffffffffffffffffffffffffffffff1602179055505050565b6060600080548060200260200160405190810160405280929190818152602001828054801561021457602002820191906000526020600020905b8160009054906101000a900473ffffffffffffffffffffffffffffffffffffffff1673ffffffffffffffffffffffffffffffffffffffff16815260200190600101908083116101ca575b5050505050905090565b61113f8061046783390190565b600080fd5b6000819050919050565b61024381610230565b811461024e57600080fd5b50565b6000813590506102608161023a565b92915050565b60006020828403121561027c5761027b61022b565b5b600061028a84828501610251565b91505092915050565b600073ffffffffffffffffffffffffffffffffffffffff82169050919050565b6000819050919050565b60006102d86102d36102ce84610293565b6102b3565b610293565b9050919050565b60006102ea826102bd565b9050919050565b60006102fc826102df565b9050919050565b61030c816102f1565b82525050565b60006020820190506103276000830184610303565b92915050565b600081519050919050565b600082825260208201905092915050565b6000819050602082019050919050565b610362816102f1565b82525050565b60006103748383610359565b60208301905092915050565b6000602082019050919050565b60006103988261032d565b6103a28185610338565b93506103ad83610349565b8060005b838110156103de5781516103c58882610368565b97506103d083610380565b9250506001810190506103b1565b5085935050505092915050565b60006020820190508181036000830152610405818461038d565b905092915050565b61041681610230565b82525050565b600061042782610293565b9050919050565b6104378161041c565b82525050565b6000604082019050610452600083018561040d565b61045f602083018461042e565b939250505056fe60806040523480156200001157600080fd5b506040516200113f3803806200113f83398181016040528101906200003791906200012b565b806000806101000a81548173ffffffffffffffffffffffffffffffffffffffff021916908373ffffffffffffffffffffffffffffffffffffffff16021790555081600381905550505062000172565b600080fd5b6000819050919050565b620000a0816200008b565b8114620000ac57600080fd5b50565b600081519050620000c08162000095565b92915050565b600073ffffffffffffffffffffffffffffffffffffffff82169050919050565b6000620000f382620000c6565b9050919050565b6200010581620000e6565b81146200011157600080fd5b50565b6000815190506200012581620000fa565b92915050565b6000806040838503121562000145576200014462000086565b5b60006200015585828601620000af565b9250506020620001688582860162000114565b9150509250929050565b610fbd80620001826000396000f3fe6080604052600436106100915760003560e01c80638a9cfd55116100595780638a9cfd5514610193578063937e09b1146101bc5780639fb42b1f146101e7578063d7bb99ba14610212578063d7d1bbdb1461021c57610091565b806303441006146100965780630a144391146100bf578063481c6a75146100fc57806381d12c581461012757806382fde09314610168575b600080fd5b3480156100a257600080fd5b506100bd60048036038101906100b891906107d8565b610245565b005b3480156100cb57600080fd5b506100e660048036038101906100e19190610863565b61037e565b6040516100f391906108ab565b60405180910390f35b34801561010857600080fd5b5061011161039e565b60405161011e91906108d5565b60405180910390f35b34801561013357600080fd5b5061014e600480360381019061014991906107d8565b6103c2565b60405161015f9594939291906109b9565b60405180910390f35b34801561017457600080fd5b5061017d6104ad565b60405161018a9190610a13565b60405180910390f35b34801561019f57600080fd5b506101ba60048036038101906101b59190610b63565b6104b3565b005b3480156101c857600080fd5b506101d16105c3565b6040516101de9190610a13565b60405180910390f35b3480156101f357600080fd5b506101fc6105c9565b6040516102099190610a13565b60405180910390f35b61021a6105cf565b005b34801561022857600080fd5b50610243600480360381019061023e91906107d8565b610650565b005b60008054906101000a900473ffffffffffffffffffffffffffffffffffffffff1673ffffffffffffffffffffffffffffffffffffffff163373ffffffffffffffffffffffffffffffffffffffff161461029d57600080fd5b60006005600083815260200190815260200160002090508060020160149054906101000a900460ff16156102d057600080fd5b60026004546102df9190610c30565b8160030154116102ee57600080fd5b8060020160009054906101000a900473ffffffffffffffffffffffffffffffffffffffff1673ffffffffffffffffffffffffffffffffffffffff166108fc82600101549081150290604051600060405180830381858888f1935050505015801561035c573d6000803e3d6000fd5b5060018160020160146101000a81548160ff0219169083151502179055505050565b60026020528060005260406000206000915054906101000a900460ff1681565b60008054906101000a900473ffffffffffffffffffffffffffffffffffffffff1681565b60056020528060005260406000206000915090508060000180546103e590610c90565b80601f016020809104026020016040519081016040528092919081815260200182805461041190610c90565b801561045e5780601f106104335761010080835404028352916020019161045e565b820191906000526020600020905b81548152906001019060200180831161044157829003601f168201915b5050505050908060010154908060020160009054906101000a900473ffffffffffffffffffffffffffffffffffffffff16908060020160149054906101000a900460ff16908060030154905085565b60045481565b60008054906101000a900473ffffffffffffffffffffffffffffffffffffffff1673ffffffffffffffffffffffffffffffffffffffff163373ffffffffffffffffffffffffffffffffffffffff161461050b57600080fd5b6000600560006001600081548092919061052490610cc1565b9190505581526020019081526020016000209050838160000190816105499190610eb5565b50828160010181905550818160020160006101000a81548173ffffffffffffffffffffffffffffffffffffffff021916908373ffffffffffffffffffffffffffffffffffffffff16021790555060008160020160146101000a81548160ff0219169083151502179055506000816003018190555050505050565b60035481565b60015481565b6003543410156105de57600080fd5b6001600260003373ffffffffffffffffffffffffffffffffffffffff1673ffffffffffffffffffffffffffffffffffffffff16815260200190815260200160002060006101000a81548160ff0219169083151502179055506004600081548092919061064990610cc1565b9190505550565b6000600560008381526020019081526020016000209050600260003373ffffffffffffffffffffffffffffffffffffffff1673ffffffffffffffffffffffffffffffffffffffff16815260200190815260200160002060009054906101000a900460ff166106bd57600080fd5b8060040160003373ffffffffffffffffffffffffffffffffffffffff1673ffffffffffffffffffffffffffffffffffffffff16815260200190815260200160002060009054906101000a900460ff161561071657600080fd5b60018160040160003373ffffffffffffffffffffffffffffffffffffffff1673ffffffffffffffffffffffffffffffffffffffff16815260200190815260200160002060006101000a81548160ff02191690831515021790555080600301600081548092919061078590610cc1565b91905055505050565b6000604051905090565b600080fd5b600080fd5b6000819050919050565b6107b5816107a2565b81146107c057600080fd5b50565b6000813590506107d2816107ac565b92915050565b6000602082840312156107ee576107ed610798565b5b60006107fc848285016107c3565b91505092915050565b600073ffffffffffffffffffffffffffffffffffffffff82169050919050565b600061083082610805565b9050919050565b61084081610825565b811461084b57600080fd5b50565b60008135905061085d81610837565b92915050565b60006020828403121561087957610878610798565b5b60006108878482850161084e565b91505092915050565b60008115159050919050565b6108a581610890565b82525050565b60006020820190506108c0600083018461089c565b92915050565b6108cf81610825565b82525050565b60006020820190506108ea60008301846108c6565b92915050565b600081519050919050565b600082825260208201905092915050565b60005b8381101561092a57808201518184015260208101905061090f565b83811115610939576000848401525b50505050565b6000601f19601f8301169050919050565b600061095b826108f0565b61096581856108fb565b935061097581856020860161090c565b61097e8161093f565b840191505092915050565b610992816107a2565b82525050565b60006109a382610805565b9050919050565b6109b381610998565b82525050565b600060a08201905081810360008301526109d38188610950565b90506109e26020830187610989565b6109ef60408301866109aa565b6109fc606083018561089c565b610a096080830184610989565b9695505050505050565b6000602082019050610a286000830184610989565b92915050565b600080fd5b600080fd5b7f4e487b7100000000000000000000000000000000000000000000000000000000600052604160045260246000fd5b610a708261093f565b810181811067ffffffffffffffff82111715610a8f57610a8e610a38565b5b80604052505050565b6000610aa261078e565b9050610aae8282610a67565b919050565b600067ffffffffffffffff821115610ace57610acd610a38565b5b610ad78261093f565b9050602081019050919050565b82818337600083830152505050565b6000610b06610b0184610ab3565b610a98565b905082815260208101848484011115610b2257610b21610a33565b5b610b2d848285610ae4565b509392505050565b600082601f830112610b4a57610b49610a2e565b5b8135610b5a848260208601610af3565b91505092915050565b600080600060608486031215610b7c57610b7b610798565b5b600084013567ffffffffffffffff811115610b9a57610b9961079d565b5b610ba686828701610b35565b9350506020610bb7868287016107c3565b9250506040610bc88682870161084e565b9150509250925092565b7f4e487b7100000000000000000000000000000000000000000000000000000000600052601260045260246000fd5b7f4e487b7100000000000000000000000000000000000000000000000000000000600052601160045260246000fd5b6000610c3b826107a2565b9150610c46836107a2565b925082610c5657610c55610bd2565b5b828204905092915050565b7f4e487b7100000000000000000000000000000000000000000000000000000000600052602260045260246000fd5b60006002820490506001821680610ca857607f821691505b602082108103610cbb57610cba610c61565b5b50919050565b6000610ccc826107a2565b91507fffffffffffffffffffffffffffffffffffffffffffffffffffffffffffffffff8203610cfe57610cfd610c01565b5b600182019050919050565b60008190508160005260206000209050919050565b60006020601f8301049050919050565b600082821b905092915050565b600060088302610d6b7fffffffffffffffffffffffffffffffffffffffffffffffffffffffffffffffff82610d2e565b610d758683610d2e565b95508019841693508086168417925050509392505050565b6000819050919050565b6000610db2610dad610da8846107a2565b610d8d565b6107a2565b9050919050565b6000819050919050565b610dcc83610d97565b610de0610dd882610db9565b848454610d3b565b825550505050565b600090565b610df5610de8565b610e00818484610dc3565b505050565b5b81811015610e2457610e19600082610ded565b600181019050610e06565b5050565b601f821115610e6957610e3a81610d09565b610e4384610d1e565b81016020851015610e52578190505b610e66610e5e85610d1e565b830182610e05565b50505b505050565b600082821c905092915050565b6000610e8c60001984600802610e6e565b1980831691505092915050565b6000610ea58383610e7b565b9150826002028217905092915050565b610ebe826108f0565b67ffffffffffffffff811115610ed757610ed6610a38565b5b610ee18254610c90565b610eec828285610e28565b600060209050601f831160018114610f1f5760008415610f0d578287015190505b610f178582610e99565b865550610f7f565b601f198416610f2d86610d09565b60005b82811015610f5557848901518255600182019150602085019450602081019050610f30565b86831015610f725784890151610f6e601f891682610e7b565b8355505b6001600288020188555050505b50505050505056fea26469706673582212200dfc2da2de91981566832ec251631174a5e984b1921f81ebdd76607f7623bcee64736f6c634300080f0033a2646970667358221220215c0ef265d1fd814c437cc35e00d93dcbafa7159fc264c31187a2ff9b1e1ffa64736f6c634300080f0033",
            "opcodes": "PUSH1 0x80 PUSH1 0x40 MSTORE CALLVALUE DUP1 ISZERO PUSH2 0x10 JUMPI PUSH1 0x0 DUP1 REVERT JUMPDEST POP PUSH2 0x15DB DUP1 PUSH2 0x20 PUSH1 0x0 CODECOPY PUSH1 0x0 RETURN INVALID PUSH1 0x80 PUSH1 0x40 MSTORE CALLVALUE DUP1 ISZERO PUSH2 0x10 JUMPI PUSH1 0x0 DUP1 REVERT JUMPDEST POP PUSH1 0x4 CALLDATASIZE LT PUSH2 0x41 JUMPI PUSH1 0x0 CALLDATALOAD PUSH1 0xE0 SHR DUP1 PUSH4 0x339D50A5 EQ PUSH2 0x46 JUMPI DUP1 PUSH4 0xA3303A75 EQ PUSH2 0x76 JUMPI DUP1 PUSH4 0xA6B03633 EQ PUSH2 0x92 JUMPI JUMPDEST PUSH1 0x0 DUP1 REVERT JUMPDEST PUSH2 0x60 PUSH1 0x4 DUP1 CALLDATASIZE SUB DUP2 ADD SWAP1 PUSH2 0x5B SWAP2 SWAP1 PUSH2 0x266 JUMP JUMPDEST PUSH2 0xB0 JUMP JUMPDEST PUSH1 0x40 MLOAD PUSH2 0x6D SWAP2 SWAP1 PUSH2 0x312 JUMP JUMPDEST PUSH1 0x40 MLOAD DUP1 SWAP2 SUB SWAP1 RETURN JUMPDEST PUSH2 0x90 PUSH1 0x4 DUP1 CALLDATASIZE SUB DUP2 ADD SWAP1 PUSH2 0x8B SWAP2 SWAP1 PUSH2 0x266 JUMP JUMPDEST PUSH2 0xEF JUMP JUMPDEST STOP JUMPDEST PUSH2 0x9A PUSH2 0x190 JUMP JUMPDEST PUSH1 0x40 MLOAD PUSH2 0xA7 SWAP2 SWAP1 PUSH2 0x3EB JUMP JUMPDEST PUSH1 0x40 MLOAD DUP1 SWAP2 SUB SWAP1 RETURN JUMPDEST PUSH1 0x0 DUP2 DUP2 SLOAD DUP2 LT PUSH2 0xC0 JUMPI PUSH1 0x0 DUP1 REVERT JUMPDEST SWAP1 PUSH1 0x0 MSTORE PUSH1 0x20 PUSH1 0x0 KECCAK256 ADD PUSH1 0x0 SWAP2 POP SLOAD SWAP1 PUSH2 0x100 EXP SWAP1 DIV PUSH20 0xFFFFFFFFFFFFFFFFFFFFFFFFFFFFFFFFFFFFFFFF AND DUP2 JUMP JUMPDEST PUSH1 0x0 DUP2 CALLER PUSH1 0x40 MLOAD PUSH2 0xFF SWAP1 PUSH2 0x21E JUMP JUMPDEST PUSH2 0x10A SWAP3 SWAP2 SWAP1 PUSH2 0x43D JUMP JUMPDEST PUSH1 0x40 MLOAD DUP1 SWAP2 SUB SWAP1 PUSH1 0x0 CREATE DUP1 ISZERO DUP1 ISZERO PUSH2 0x126 JUMPI RETURNDATASIZE PUSH1 0x0 DUP1 RETURNDATACOPY RETURNDATASIZE PUSH1 0x0 REVERT JUMPDEST POP SWAP1 POP PUSH1 0x0 DUP2 SWAP1 DUP1 PUSH1 0x1 DUP2 SLOAD ADD DUP1 DUP3 SSTORE DUP1 SWAP2 POP POP PUSH1 0x1 SWAP1 SUB SWAP1 PUSH1 0x0 MSTORE PUSH1 0x20 PUSH1 0x0 KECCAK256 ADD PUSH1 0x0 SWAP1 SWAP2 SWAP1 SWAP2 SWAP1 SWAP2 PUSH2 0x100 EXP DUP2 SLOAD DUP2 PUSH20 0xFFFFFFFFFFFFFFFFFFFFFFFFFFFFFFFFFFFFFFFF MUL NOT AND SWAP1 DUP4 PUSH20 0xFFFFFFFFFFFFFFFFFFFFFFFFFFFFFFFFFFFFFFFF AND MUL OR SWAP1 SSTORE POP POP POP JUMP JUMPDEST PUSH1 0x60 PUSH1 0x0 DUP1 SLOAD DUP1 PUSH1 0x20 MUL PUSH1 0x20 ADD PUSH1 0x40 MLOAD SWAP1 DUP2 ADD PUSH1 0x40 MSTORE DUP1 SWAP3 SWAP2 SWAP1 DUP2 DUP2 MSTORE PUSH1 0x20 ADD DUP3 DUP1 SLOAD DUP1 ISZERO PUSH2 0x214 JUMPI PUSH1 0x20 MUL DUP3 ADD SWAP2 SWAP1 PUSH1 0x0 MSTORE PUSH1 0x20 PUSH1 0x0 KECCAK256 SWAP1 JUMPDEST DUP2 PUSH1 0x0 SWAP1 SLOAD SWAP1 PUSH2 0x100 EXP SWAP1 DIV PUSH20 0xFFFFFFFFFFFFFFFFFFFFFFFFFFFFFFFFFFFFFFFF AND PUSH20 0xFFFFFFFFFFFFFFFFFFFFFFFFFFFFFFFFFFFFFFFF AND DUP2 MSTORE PUSH1 0x20 ADD SWAP1 PUSH1 0x1 ADD SWAP1 DUP1 DUP4 GT PUSH2 0x1CA JUMPI JUMPDEST POP POP POP POP POP SWAP1 POP SWAP1 JUMP JUMPDEST PUSH2 0x113F DUP1 PUSH2 0x467 DUP4 CODECOPY ADD SWAP1 JUMP JUMPDEST PUSH1 0x0 DUP1 REVERT JUMPDEST PUSH1 0x0 DUP2 SWAP1 POP SWAP2 SWAP1 POP JUMP JUMPDEST PUSH2 0x243 DUP2 PUSH2 0x230 JUMP JUMPDEST DUP2 EQ PUSH2 0x24E JUMPI PUSH1 0x0 DUP1 REVERT JUMPDEST POP JUMP JUMPDEST PUSH1 0x0 DUP2 CALLDATALOAD SWAP1 POP PUSH2 0x260 DUP2 PUSH2 0x23A JUMP JUMPDEST SWAP3 SWAP2 POP POP JUMP JUMPDEST PUSH1 0x0 PUSH1 0x20 DUP3 DUP5 SUB SLT ISZERO PUSH2 0x27C JUMPI PUSH2 0x27B PUSH2 0x22B JUMP JUMPDEST JUMPDEST PUSH1 0x0 PUSH2 0x28A DUP5 DUP3 DUP6 ADD PUSH2 0x251 JUMP JUMPDEST SWAP2 POP POP SWAP3 SWAP2 POP POP JUMP JUMPDEST PUSH1 0x0 PUSH20 0xFFFFFFFFFFFFFFFFFFFFFFFFFFFFFFFFFFFFFFFF DUP3 AND SWAP1 POP SWAP2 SWAP1 POP JUMP JUMPDEST PUSH1 0x0 DUP2 SWAP1 POP SWAP2 SWAP1 POP JUMP JUMPDEST PUSH1 0x0 PUSH2 0x2D8 PUSH2 0x2D3 PUSH2 0x2CE DUP5 PUSH2 0x293 JUMP JUMPDEST PUSH2 0x2B3 JUMP JUMPDEST PUSH2 0x293 JUMP JUMPDEST SWAP1 POP SWAP2 SWAP1 POP JUMP JUMPDEST PUSH1 0x0 PUSH2 0x2EA DUP3 PUSH2 0x2BD JUMP JUMPDEST SWAP1 POP SWAP2 SWAP1 POP JUMP JUMPDEST PUSH1 0x0 PUSH2 0x2FC DUP3 PUSH2 0x2DF JUMP JUMPDEST SWAP1 POP SWAP2 SWAP1 POP JUMP JUMPDEST PUSH2 0x30C DUP2 PUSH2 0x2F1 JUMP JUMPDEST DUP3 MSTORE POP POP JUMP JUMPDEST PUSH1 0x0 PUSH1 0x20 DUP3 ADD SWAP1 POP PUSH2 0x327 PUSH1 0x0 DUP4 ADD DUP5 PUSH2 0x303 JUMP JUMPDEST SWAP3 SWAP2 POP POP JUMP JUMPDEST PUSH1 0x0 DUP2 MLOAD SWAP1 POP SWAP2 SWAP1 POP JUMP JUMPDEST PUSH1 0x0 DUP3 DUP3 MSTORE PUSH1 0x20 DUP3 ADD SWAP1 POP SWAP3 SWAP2 POP POP JUMP JUMPDEST PUSH1 0x0 DUP2 SWAP1 POP PUSH1 0x20 DUP3 ADD SWAP1 POP SWAP2 SWAP1 POP JUMP JUMPDEST PUSH2 0x362 DUP2 PUSH2 0x2F1 JUMP JUMPDEST DUP3 MSTORE POP POP JUMP JUMPDEST PUSH1 0x0 PUSH2 0x374 DUP4 DUP4 PUSH2 0x359 JUMP JUMPDEST PUSH1 0x20 DUP4 ADD SWAP1 POP SWAP3 SWAP2 POP POP JUMP JUMPDEST PUSH1 0x0 PUSH1 0x20 DUP3 ADD SWAP1 POP SWAP2 SWAP1 POP JUMP JUMPDEST PUSH1 0x0 PUSH2 0x398 DUP3 PUSH2 0x32D JUMP JUMPDEST PUSH2 0x3A2 DUP2 DUP6 PUSH2 0x338 JUMP JUMPDEST SWAP4 POP PUSH2 0x3AD DUP4 PUSH2 0x349 JUMP JUMPDEST DUP1 PUSH1 0x0 JUMPDEST DUP4 DUP2 LT ISZERO PUSH2 0x3DE JUMPI DUP2 MLOAD PUSH2 0x3C5 DUP9 DUP3 PUSH2 0x368 JUMP JUMPDEST SWAP8 POP PUSH2 0x3D0 DUP4 PUSH2 0x380 JUMP JUMPDEST SWAP3 POP POP PUSH1 0x1 DUP2 ADD SWAP1 POP PUSH2 0x3B1 JUMP JUMPDEST POP DUP6 SWAP4 POP POP POP POP SWAP3 SWAP2 POP POP JUMP JUMPDEST PUSH1 0x0 PUSH1 0x20 DUP3 ADD SWAP1 POP DUP2 DUP2 SUB PUSH1 0x0 DUP4 ADD MSTORE PUSH2 0x405 DUP2 DUP5 PUSH2 0x38D JUMP JUMPDEST SWAP1 POP SWAP3 SWAP2 POP POP JUMP JUMPDEST PUSH2 0x416 DUP2 PUSH2 0x230 JUMP JUMPDEST DUP3 MSTORE POP POP JUMP JUMPDEST PUSH1 0x0 PUSH2 0x427 DUP3 PUSH2 0x293 JUMP JUMPDEST SWAP1 POP SWAP2 SWAP1 POP JUMP JUMPDEST PUSH2 0x437 DUP2 PUSH2 0x41C JUMP JUMPDEST DUP3 MSTORE POP POP JUMP JUMPDEST PUSH1 0x0 PUSH1 0x40 DUP3 ADD SWAP1 POP PUSH2 0x452 PUSH1 0x0 DUP4 ADD DUP6 PUSH2 0x40D JUMP JUMPDEST PUSH2 0x45F PUSH1 0x20 DUP4 ADD DUP5 PUSH2 0x42E JUMP JUMPDEST SWAP4 SWAP3 POP POP POP JUMP INVALID PUSH1 0x80 PUSH1 0x40 MSTORE CALLVALUE DUP1 ISZERO PUSH3 0x11 JUMPI PUSH1 0x0 DUP1 REVERT JUMPDEST POP PUSH1 0x40 MLOAD PUSH3 0x113F CODESIZE SUB DUP1 PUSH3 0x113F DUP4 CODECOPY DUP2 DUP2 ADD PUSH1 0x40 MSTORE DUP2 ADD SWAP1 PUSH3 0x37 SWAP2 SWAP1 PUSH3 0x12B JUMP JUMPDEST DUP1 PUSH1 0x0 DUP1 PUSH2 0x100 EXP DUP2 SLOAD DUP2 PUSH20 0xFFFFFFFFFFFFFFFFFFFFFFFFFFFFFFFFFFFFFFFF MUL NOT AND SWAP1 DUP4 PUSH20 0xFFFFFFFFFFFFFFFFFFFFFFFFFFFFFFFFFFFFFFFF AND MUL OR SWAP1 SSTORE POP DUP2 PUSH1 0x3 DUP2 SWAP1 SSTORE POP POP POP PUSH3 0x172 JUMP JUMPDEST PUSH1 0x0 DUP1 REVERT JUMPDEST PUSH1 0x0 DUP2 SWAP1 POP SWAP2 SWAP1 POP JUMP JUMPDEST PUSH3 0xA0 DUP2 PUSH3 0x8B JUMP JUMPDEST DUP2 EQ PUSH3 0xAC JUMPI PUSH1 0x0 DUP1 REVERT JUMPDEST POP JUMP JUMPDEST PUSH1 0x0 DUP2 MLOAD SWAP1 POP PUSH3 0xC0 DUP2 PUSH3 0x95 JUMP JUMPDEST SWAP3 SWAP2 POP POP JUMP JUMPDEST PUSH1 0x0 PUSH20 0xFFFFFFFFFFFFFFFFFFFFFFFFFFFFFFFFFFFFFFFF DUP3 AND SWAP1 POP SWAP2 SWAP1 POP JUMP JUMPDEST PUSH1 0x0 PUSH3 0xF3 DUP3 PUSH3 0xC6 JUMP JUMPDEST SWAP1 POP SWAP2 SWAP1 POP JUMP JUMPDEST PUSH3 0x105 DUP2 PUSH3 0xE6 JUMP JUMPDEST DUP2 EQ PUSH3 0x111 JUMPI PUSH1 0x0 DUP1 REVERT JUMPDEST POP JUMP JUMPDEST PUSH1 0x0 DUP2 MLOAD SWAP1 POP PUSH3 0x125 DUP2 PUSH3 0xFA JUMP JUMPDEST SWAP3 SWAP2 POP POP JUMP JUMPDEST PUSH1 0x0 DUP1 PUSH1 0x40 DUP4 DUP6 SUB SLT ISZERO PUSH3 0x145 JUMPI PUSH3 0x144 PUSH3 0x86 JUMP JUMPDEST JUMPDEST PUSH1 0x0 PUSH3 0x155 DUP6 DUP3 DUP7 ADD PUSH3 0xAF JUMP JUMPDEST SWAP3 POP POP PUSH1 0x20 PUSH3 0x168 DUP6 DUP3 DUP7 ADD PUSH3 0x114 JUMP JUMPDEST SWAP2 POP POP SWAP3 POP SWAP3 SWAP1 POP JUMP JUMPDEST PUSH2 0xFBD DUP1 PUSH3 0x182 PUSH1 0x0 CODECOPY PUSH1 0x0 RETURN INVALID PUSH1 0x80 PUSH1 0x40 MSTORE PUSH1 0x4 CALLDATASIZE LT PUSH2 0x91 JUMPI PUSH1 0x0 CALLDATALOAD PUSH1 0xE0 SHR DUP1 PUSH4 0x8A9CFD55 GT PUSH2 0x59 JUMPI DUP1 PUSH4 0x8A9CFD55 EQ PUSH2 0x193 JUMPI DUP1 PUSH4 0x937E09B1 EQ PUSH2 0x1BC JUMPI DUP1 PUSH4 0x9FB42B1F EQ PUSH2 0x1E7 JUMPI DUP1 PUSH4 0xD7BB99BA EQ PUSH2 0x212 JUMPI DUP1 PUSH4 0xD7D1BBDB EQ PUSH2 0x21C JUMPI PUSH2 0x91 JUMP JUMPDEST DUP1 PUSH4 0x3441006 EQ PUSH2 0x96 JUMPI DUP1 PUSH4 0xA144391 EQ PUSH2 0xBF JUMPI DUP1 PUSH4 0x481C6A75 EQ PUSH2 0xFC JUMPI DUP1 PUSH4 0x81D12C58 EQ PUSH2 0x127 JUMPI DUP1 PUSH4 0x82FDE093 EQ PUSH2 0x168 JUMPI JUMPDEST PUSH1 0x0 DUP1 REVERT JUMPDEST CALLVALUE DUP1 ISZERO PUSH2 0xA2 JUMPI PUSH1 0x0 DUP1 REVERT JUMPDEST POP PUSH2 0xBD PUSH1 0x4 DUP1 CALLDATASIZE SUB DUP2 ADD SWAP1 PUSH2 0xB8 SWAP2 SWAP1 PUSH2 0x7D8 JUMP JUMPDEST PUSH2 0x245 JUMP JUMPDEST STOP JUMPDEST CALLVALUE DUP1 ISZERO PUSH2 0xCB JUMPI PUSH1 0x0 DUP1 REVERT JUMPDEST POP PUSH2 0xE6 PUSH1 0x4 DUP1 CALLDATASIZE SUB DUP2 ADD SWAP1 PUSH2 0xE1 SWAP2 SWAP1 PUSH2 0x863 JUMP JUMPDEST PUSH2 0x37E JUMP JUMPDEST PUSH1 0x40 MLOAD PUSH2 0xF3 SWAP2 SWAP1 PUSH2 0x8AB JUMP JUMPDEST PUSH1 0x40 MLOAD DUP1 SWAP2 SUB SWAP1 RETURN JUMPDEST CALLVALUE DUP1 ISZERO PUSH2 0x108 JUMPI PUSH1 0x0 DUP1 REVERT JUMPDEST POP PUSH2 0x111 PUSH2 0x39E JUMP JUMPDEST PUSH1 0x40 MLOAD PUSH2 0x11E SWAP2 SWAP1 PUSH2 0x8D5 JUMP JUMPDEST PUSH1 0x40 MLOAD DUP1 SWAP2 SUB SWAP1 RETURN JUMPDEST CALLVALUE DUP1 ISZERO PUSH2 0x133 JUMPI PUSH1 0x0 DUP1 REVERT JUMPDEST POP PUSH2 0x14E PUSH1 0x4 DUP1 CALLDATASIZE SUB DUP2 ADD SWAP1 PUSH2 0x149 SWAP2 SWAP1 PUSH2 0x7D8 JUMP JUMPDEST PUSH2 0x3C2 JUMP JUMPDEST PUSH1 0x40 MLOAD PUSH2 0x15F SWAP6 SWAP5 SWAP4 SWAP3 SWAP2 SWAP1 PUSH2 0x9B9 JUMP JUMPDEST PUSH1 0x40 MLOAD DUP1 SWAP2 SUB SWAP1 RETURN JUMPDEST CALLVALUE DUP1 ISZERO PUSH2 0x174 JUMPI PUSH1 0x0 DUP1 REVERT JUMPDEST POP PUSH2 0x17D PUSH2 0x4AD JUMP JUMPDEST PUSH1 0x40 MLOAD PUSH2 0x18A SWAP2 SWAP1 PUSH2 0xA13 JUMP JUMPDEST PUSH1 0x40 MLOAD DUP1 SWAP2 SUB SWAP1 RETURN JUMPDEST CALLVALUE DUP1 ISZERO PUSH2 0x19F JUMPI PUSH1 0x0 DUP1 REVERT JUMPDEST POP PUSH2 0x1BA PUSH1 0x4 DUP1 CALLDATASIZE SUB DUP2 ADD SWAP1 PUSH2 0x1B5 SWAP2 SWAP1 PUSH2 0xB63 JUMP JUMPDEST PUSH2 0x4B3 JUMP JUMPDEST STOP JUMPDEST CALLVALUE DUP1 ISZERO PUSH2 0x1C8 JUMPI PUSH1 0x0 DUP1 REVERT JUMPDEST POP PUSH2 0x1D1 PUSH2 0x5C3 JUMP JUMPDEST PUSH1 0x40 MLOAD PUSH2 0x1DE SWAP2 SWAP1 PUSH2 0xA13 JUMP JUMPDEST PUSH1 0x40 MLOAD DUP1 SWAP2 SUB SWAP1 RETURN JUMPDEST CALLVALUE DUP1 ISZERO PUSH2 0x1F3 JUMPI PUSH1 0x0 DUP1 REVERT JUMPDEST POP PUSH2 0x1FC PUSH2 0x5C9 JUMP JUMPDEST PUSH1 0x40 MLOAD PUSH2 0x209 SWAP2 SWAP1 PUSH2 0xA13 JUMP JUMPDEST PUSH1 0x40 MLOAD DUP1 SWAP2 SUB SWAP1 RETURN JUMPDEST PUSH2 0x21A PUSH2 0x5CF JUMP JUMPDEST STOP JUMPDEST CALLVALUE DUP1 ISZERO PUSH2 0x228 JUMPI PUSH1 0x0 DUP1 REVERT JUMPDEST POP PUSH2 0x243 PUSH1 0x4 DUP1 CALLDATASIZE SUB DUP2 ADD SWAP1 PUSH2 0x23E SWAP2 SWAP1 PUSH2 0x7D8 JUMP JUMPDEST PUSH2 0x650 JUMP JUMPDEST STOP JUMPDEST PUSH1 0x0 DUP1 SLOAD SWAP1 PUSH2 0x100 EXP SWAP1 DIV PUSH20 0xFFFFFFFFFFFFFFFFFFFFFFFFFFFFFFFFFFFFFFFF AND PUSH20 0xFFFFFFFFFFFFFFFFFFFFFFFFFFFFFFFFFFFFFFFF AND CALLER PUSH20 0xFFFFFFFFFFFFFFFFFFFFFFFFFFFFFFFFFFFFFFFF AND EQ PUSH2 0x29D JUMPI PUSH1 0x0 DUP1 REVERT JUMPDEST PUSH1 0x0 PUSH1 0x5 PUSH1 0x0 DUP4 DUP2 MSTORE PUSH1 0x20 ADD SWAP1 DUP2 MSTORE PUSH1 0x20 ADD PUSH1 0x0 KECCAK256 SWAP1 POP DUP1 PUSH1 0x2 ADD PUSH1 0x14 SWAP1 SLOAD SWAP1 PUSH2 0x100 EXP SWAP1 DIV PUSH1 0xFF AND ISZERO PUSH2 0x2D0 JUMPI PUSH1 0x0 DUP1 REVERT JUMPDEST PUSH1 0x2 PUSH1 0x4 SLOAD PUSH2 0x2DF SWAP2 SWAP1 PUSH2 0xC30 JUMP JUMPDEST DUP2 PUSH1 0x3 ADD SLOAD GT PUSH2 0x2EE JUMPI PUSH1 0x0 DUP1 REVERT JUMPDEST DUP1 PUSH1 0x2 ADD PUSH1 0x0 SWAP1 SLOAD SWAP1 PUSH2 0x100 EXP SWAP1 DIV PUSH20 0xFFFFFFFFFFFFFFFFFFFFFFFFFFFFFFFFFFFFFFFF AND PUSH20 0xFFFFFFFFFFFFFFFFFFFFFFFFFFFFFFFFFFFFFFFF AND PUSH2 0x8FC DUP3 PUSH1 0x1 ADD SLOAD SWAP1 DUP2 ISZERO MUL SWAP1 PUSH1 0x40 MLOAD PUSH1 0x0 PUSH1 0x40 MLOAD DUP1 DUP4 SUB DUP2 DUP6 DUP9 DUP9 CALL SWAP4 POP POP POP POP ISZERO DUP1 ISZERO PUSH2 0x35C JUMPI RETURNDATASIZE PUSH1 0x0 DUP1 RETURNDATACOPY RETURNDATASIZE PUSH1 0x0 REVERT JUMPDEST POP PUSH1 0x1 DUP2 PUSH1 0x2 ADD PUSH1 0x14 PUSH2 0x100 EXP DUP2 SLOAD DUP2 PUSH1 0xFF MUL NOT AND SWAP1 DUP4 ISZERO ISZERO MUL OR SWAP1 SSTORE POP POP POP JUMP JUMPDEST PUSH1 0x2 PUSH1 0x20 MSTORE DUP1 PUSH1 0x0 MSTORE PUSH1 0x40 PUSH1 0x0 KECCAK256 PUSH1 0x0 SWAP2 POP SLOAD SWAP1 PUSH2 0x100 EXP SWAP1 DIV PUSH1 0xFF AND DUP2 JUMP JUMPDEST PUSH1 0x0 DUP1 SLOAD SWAP1 PUSH2 0x100 EXP SWAP1 DIV PUSH20 0xFFFFFFFFFFFFFFFFFFFFFFFFFFFFFFFFFFFFFFFF AND DUP2 JUMP JUMPDEST PUSH1 0x5 PUSH1 0x20 MSTORE DUP1 PUSH1 0x0 MSTORE PUSH1 0x40 PUSH1 0x0 KECCAK256 PUSH1 0x0 SWAP2 POP SWAP1 POP DUP1 PUSH1 0x0 ADD DUP1 SLOAD PUSH2 0x3E5 SWAP1 PUSH2 0xC90 JUMP JUMPDEST DUP1 PUSH1 0x1F ADD PUSH1 0x20 DUP1 SWAP2 DIV MUL PUSH1 0x20 ADD PUSH1 0x40 MLOAD SWAP1 DUP2 ADD PUSH1 0x40 MSTORE DUP1 SWAP3 SWAP2 SWAP1 DUP2 DUP2 MSTORE PUSH1 0x20 ADD DUP3 DUP1 SLOAD PUSH2 0x411 SWAP1 PUSH2 0xC90 JUMP JUMPDEST DUP1 ISZERO PUSH2 0x45E JUMPI DUP1 PUSH1 0x1F LT PUSH2 0x433 JUMPI PUSH2 0x100 DUP1 DUP4 SLOAD DIV MUL DUP4 MSTORE SWAP2 PUSH1 0x20 ADD SWAP2 PUSH2 0x45E JUMP JUMPDEST DUP3 ADD SWAP2 SWAP1 PUSH1 0x0 MSTORE PUSH1 0x20 PUSH1 0x0 KECCAK256 SWAP1 JUMPDEST DUP2 SLOAD DUP2 MSTORE SWAP1 PUSH1 0x1 ADD SWAP1 PUSH1 0x20 ADD DUP1 DUP4 GT PUSH2 0x441 JUMPI DUP3 SWAP1 SUB PUSH1 0x1F AND DUP3 ADD SWAP2 JUMPDEST POP POP POP POP POP SWAP1 DUP1 PUSH1 0x1 ADD SLOAD SWAP1 DUP1 PUSH1 0x2 ADD PUSH1 0x0 SWAP1 SLOAD SWAP1 PUSH2 0x100 EXP SWAP1 DIV PUSH20 0xFFFFFFFFFFFFFFFFFFFFFFFFFFFFFFFFFFFFFFFF AND SWAP1 DUP1 PUSH1 0x2 ADD PUSH1 0x14 SWAP1 SLOAD SWAP1 PUSH2 0x100 EXP SWAP1 DIV PUSH1 0xFF AND SWAP1 DUP1 PUSH1 0x3 ADD SLOAD SWAP1 POP DUP6 JUMP JUMPDEST PUSH1 0x4 SLOAD DUP2 JUMP JUMPDEST PUSH1 0x0 DUP1 SLOAD SWAP1 PUSH2 0x100 EXP SWAP1 DIV PUSH20 0xFFFFFFFFFFFFFFFFFFFFFFFFFFFFFFFFFFFFFFFF AND PUSH20 0xFFFFFFFFFFFFFFFFFFFFFFFFFFFFFFFFFFFFFFFF AND CALLER PUSH20 0xFFFFFFFFFFFFFFFFFFFFFFFFFFFFFFFFFFFFFFFF AND EQ PUSH2 0x50B JUMPI PUSH1 0x0 DUP1 REVERT JUMPDEST PUSH1 0x0 PUSH1 0x5 PUSH1 0x0 PUSH1 0x1 PUSH1 0x0 DUP2 SLOAD DUP1 SWAP3 SWAP2 SWAP1 PUSH2 0x524 SWAP1 PUSH2 0xCC1 JUMP JUMPDEST SWAP2 SWAP1 POP SSTORE DUP2 MSTORE PUSH1 0x20 ADD SWAP1 DUP2 MSTORE PUSH1 0x20 ADD PUSH1 0x0 KECCAK256 SWAP1 POP DUP4 DUP2 PUSH1 0x0 ADD SWAP1 DUP2 PUSH2 0x549 SWAP2 SWAP1 PUSH2 0xEB5 JUMP JUMPDEST POP DUP3 DUP2 PUSH1 0x1 ADD DUP2 SWAP1 SSTORE POP DUP2 DUP2 PUSH1 0x2 ADD PUSH1 0x0 PUSH2 0x100 EXP DUP2 SLOAD DUP2 PUSH20 0xFFFFFFFFFFFFFFFFFFFFFFFFFFFFFFFFFFFFFFFF MUL NOT AND SWAP1 DUP4 PUSH20 0xFFFFFFFFFFFFFFFFFFFFFFFFFFFFFFFFFFFFFFFF AND MUL OR SWAP1 SSTORE POP PUSH1 0x0 DUP2 PUSH1 0x2 ADD PUSH1 0x14 PUSH2 0x100 EXP DUP2 SLOAD DUP2 PUSH1 0xFF MUL NOT AND SWAP1 DUP4 ISZERO ISZERO MUL OR SWAP1 SSTORE POP PUSH1 0x0 DUP2 PUSH1 0x3 ADD DUP2 SWAP1 SSTORE POP POP POP POP POP JUMP JUMPDEST PUSH1 0x3 SLOAD DUP2 JUMP JUMPDEST PUSH1 0x1 SLOAD DUP2 JUMP JUMPDEST PUSH1 0x3 SLOAD CALLVALUE LT ISZERO PUSH2 0x5DE JUMPI PUSH1 0x0 DUP1 REVERT JUMPDEST PUSH1 0x1 PUSH1 0x2 PUSH1 0x0 CALLER PUSH20 0xFFFFFFFFFFFFFFFFFFFFFFFFFFFFFFFFFFFFFFFF AND PUSH20 0xFFFFFFFFFFFFFFFFFFFFFFFFFFFFFFFFFFFFFFFF AND DUP2 MSTORE PUSH1 0x20 ADD SWAP1 DUP2 MSTORE PUSH1 0x20 ADD PUSH1 0x0 KECCAK256 PUSH1 0x0 PUSH2 0x100 EXP DUP2 SLOAD DUP2 PUSH1 0xFF MUL NOT AND SWAP1 DUP4 ISZERO ISZERO MUL OR SWAP1 SSTORE POP PUSH1 0x4 PUSH1 0x0 DUP2 SLOAD DUP1 SWAP3 SWAP2 SWAP1 PUSH2 0x649 SWAP1 PUSH2 0xCC1 JUMP JUMPDEST SWAP2 SWAP1 POP SSTORE POP JUMP JUMPDEST PUSH1 0x0 PUSH1 0x5 PUSH1 0x0 DUP4 DUP2 MSTORE PUSH1 0x20 ADD SWAP1 DUP2 MSTORE PUSH1 0x20 ADD PUSH1 0x0 KECCAK256 SWAP1 POP PUSH1 0x2 PUSH1 0x0 CALLER PUSH20 0xFFFFFFFFFFFFFFFFFFFFFFFFFFFFFFFFFFFFFFFF AND PUSH20 0xFFFFFFFFFFFFFFFFFFFFFFFFFFFFFFFFFFFFFFFF AND DUP2 MSTORE PUSH1 0x20 ADD SWAP1 DUP2 MSTORE PUSH1 0x20 ADD PUSH1 0x0 KECCAK256 PUSH1 0x0 SWAP1 SLOAD SWAP1 PUSH2 0x100 EXP SWAP1 DIV PUSH1 0xFF AND PUSH2 0x6BD JUMPI PUSH1 0x0 DUP1 REVERT JUMPDEST DUP1 PUSH1 0x4 ADD PUSH1 0x0 CALLER PUSH20 0xFFFFFFFFFFFFFFFFFFFFFFFFFFFFFFFFFFFFFFFF AND PUSH20 0xFFFFFFFFFFFFFFFFFFFFFFFFFFFFFFFFFFFFFFFF AND DUP2 MSTORE PUSH1 0x20 ADD SWAP1 DUP2 MSTORE PUSH1 0x20 ADD PUSH1 0x0 KECCAK256 PUSH1 0x0 SWAP1 SLOAD SWAP1 PUSH2 0x100 EXP SWAP1 DIV PUSH1 0xFF AND ISZERO PUSH2 0x716 JUMPI PUSH1 0x0 DUP1 REVERT JUMPDEST PUSH1 0x1 DUP2 PUSH1 0x4 ADD PUSH1 0x0 CALLER PUSH20 0xFFFFFFFFFFFFFFFFFFFFFFFFFFFFFFFFFFFFFFFF AND PUSH20 0xFFFFFFFFFFFFFFFFFFFFFFFFFFFFFFFFFFFFFFFF AND DUP2 MSTORE PUSH1 0x20 ADD SWAP1 DUP2 MSTORE PUSH1 0x20 ADD PUSH1 0x0 KECCAK256 PUSH1 0x0 PUSH2 0x100 EXP DUP2 SLOAD DUP2 PUSH1 0xFF MUL NOT AND SWAP1 DUP4 ISZERO ISZERO MUL OR SWAP1 SSTORE POP DUP1 PUSH1 0x3 ADD PUSH1 0x0 DUP2 SLOAD DUP1 SWAP3 SWAP2 SWAP1 PUSH2 0x785 SWAP1 PUSH2 0xCC1 JUMP JUMPDEST SWAP2 SWAP1 POP SSTORE POP POP POP JUMP JUMPDEST PUSH1 0x0 PUSH1 0x40 MLOAD SWAP1 POP SWAP1 JUMP JUMPDEST PUSH1 0x0 DUP1 REVERT JUMPDEST PUSH1 0x0 DUP1 REVERT JUMPDEST PUSH1 0x0 DUP2 SWAP1 POP SWAP2 SWAP1 POP JUMP JUMPDEST PUSH2 0x7B5 DUP2 PUSH2 0x7A2 JUMP JUMPDEST DUP2 EQ PUSH2 0x7C0 JUMPI PUSH1 0x0 DUP1 REVERT JUMPDEST POP JUMP JUMPDEST PUSH1 0x0 DUP2 CALLDATALOAD SWAP1 POP PUSH2 0x7D2 DUP2 PUSH2 0x7AC JUMP JUMPDEST SWAP3 SWAP2 POP POP JUMP JUMPDEST PUSH1 0x0 PUSH1 0x20 DUP3 DUP5 SUB SLT ISZERO PUSH2 0x7EE JUMPI PUSH2 0x7ED PUSH2 0x798 JUMP JUMPDEST JUMPDEST PUSH1 0x0 PUSH2 0x7FC DUP5 DUP3 DUP6 ADD PUSH2 0x7C3 JUMP JUMPDEST SWAP2 POP POP SWAP3 SWAP2 POP POP JUMP JUMPDEST PUSH1 0x0 PUSH20 0xFFFFFFFFFFFFFFFFFFFFFFFFFFFFFFFFFFFFFFFF DUP3 AND SWAP1 POP SWAP2 SWAP1 POP JUMP JUMPDEST PUSH1 0x0 PUSH2 0x830 DUP3 PUSH2 0x805 JUMP JUMPDEST SWAP1 POP SWAP2 SWAP1 POP JUMP JUMPDEST PUSH2 0x840 DUP2 PUSH2 0x825 JUMP JUMPDEST DUP2 EQ PUSH2 0x84B JUMPI PUSH1 0x0 DUP1 REVERT JUMPDEST POP JUMP JUMPDEST PUSH1 0x0 DUP2 CALLDATALOAD SWAP1 POP PUSH2 0x85D DUP2 PUSH2 0x837 JUMP JUMPDEST SWAP3 SWAP2 POP POP JUMP JUMPDEST PUSH1 0x0 PUSH1 0x20 DUP3 DUP5 SUB SLT ISZERO PUSH2 0x879 JUMPI PUSH2 0x878 PUSH2 0x798 JUMP JUMPDEST JUMPDEST PUSH1 0x0 PUSH2 0x887 DUP5 DUP3 DUP6 ADD PUSH2 0x84E JUMP JUMPDEST SWAP2 POP POP SWAP3 SWAP2 POP POP JUMP JUMPDEST PUSH1 0x0 DUP2 ISZERO ISZERO SWAP1 POP SWAP2 SWAP1 POP JUMP JUMPDEST PUSH2 0x8A5 DUP2 PUSH2 0x890 JUMP JUMPDEST DUP3 MSTORE POP POP JUMP JUMPDEST PUSH1 0x0 PUSH1 0x20 DUP3 ADD SWAP1 POP PUSH2 0x8C0 PUSH1 0x0 DUP4 ADD DUP5 PUSH2 0x89C JUMP JUMPDEST SWAP3 SWAP2 POP POP JUMP JUMPDEST PUSH2 0x8CF DUP2 PUSH2 0x825 JUMP JUMPDEST DUP3 MSTORE POP POP JUMP JUMPDEST PUSH1 0x0 PUSH1 0x20 DUP3 ADD SWAP1 POP PUSH2 0x8EA PUSH1 0x0 DUP4 ADD DUP5 PUSH2 0x8C6 JUMP JUMPDEST SWAP3 SWAP2 POP POP JUMP JUMPDEST PUSH1 0x0 DUP2 MLOAD SWAP1 POP SWAP2 SWAP1 POP JUMP JUMPDEST PUSH1 0x0 DUP3 DUP3 MSTORE PUSH1 0x20 DUP3 ADD SWAP1 POP SWAP3 SWAP2 POP POP JUMP JUMPDEST PUSH1 0x0 JUMPDEST DUP4 DUP2 LT ISZERO PUSH2 0x92A JUMPI DUP1 DUP3 ADD MLOAD DUP2 DUP5 ADD MSTORE PUSH1 0x20 DUP2 ADD SWAP1 POP PUSH2 0x90F JUMP JUMPDEST DUP4 DUP2 GT ISZERO PUSH2 0x939 JUMPI PUSH1 0x0 DUP5 DUP5 ADD MSTORE JUMPDEST POP POP POP POP JUMP JUMPDEST PUSH1 0x0 PUSH1 0x1F NOT PUSH1 0x1F DUP4 ADD AND SWAP1 POP SWAP2 SWAP1 POP JUMP JUMPDEST PUSH1 0x0 PUSH2 0x95B DUP3 PUSH2 0x8F0 JUMP JUMPDEST PUSH2 0x965 DUP2 DUP6 PUSH2 0x8FB JUMP JUMPDEST SWAP4 POP PUSH2 0x975 DUP2 DUP6 PUSH1 0x20 DUP7 ADD PUSH2 0x90C JUMP JUMPDEST PUSH2 0x97E DUP2 PUSH2 0x93F JUMP JUMPDEST DUP5 ADD SWAP2 POP POP SWAP3 SWAP2 POP POP JUMP JUMPDEST PUSH2 0x992 DUP2 PUSH2 0x7A2 JUMP JUMPDEST DUP3 MSTORE POP POP JUMP JUMPDEST PUSH1 0x0 PUSH2 0x9A3 DUP3 PUSH2 0x805 JUMP JUMPDEST SWAP1 POP SWAP2 SWAP1 POP JUMP JUMPDEST PUSH2 0x9B3 DUP2 PUSH2 0x998 JUMP JUMPDEST DUP3 MSTORE POP POP JUMP JUMPDEST PUSH1 0x0 PUSH1 0xA0 DUP3 ADD SWAP1 POP DUP2 DUP2 SUB PUSH1 0x0 DUP4 ADD MSTORE PUSH2 0x9D3 DUP2 DUP9 PUSH2 0x950 JUMP JUMPDEST SWAP1 POP PUSH2 0x9E2 PUSH1 0x20 DUP4 ADD DUP8 PUSH2 0x989 JUMP JUMPDEST PUSH2 0x9EF PUSH1 0x40 DUP4 ADD DUP7 PUSH2 0x9AA JUMP JUMPDEST PUSH2 0x9FC PUSH1 0x60 DUP4 ADD DUP6 PUSH2 0x89C JUMP JUMPDEST PUSH2 0xA09 PUSH1 0x80 DUP4 ADD DUP5 PUSH2 0x989 JUMP JUMPDEST SWAP7 SWAP6 POP POP POP POP POP POP JUMP JUMPDEST PUSH1 0x0 PUSH1 0x20 DUP3 ADD SWAP1 POP PUSH2 0xA28 PUSH1 0x0 DUP4 ADD DUP5 PUSH2 0x989 JUMP JUMPDEST SWAP3 SWAP2 POP POP JUMP JUMPDEST PUSH1 0x0 DUP1 REVERT JUMPDEST PUSH1 0x0 DUP1 REVERT JUMPDEST PUSH32 0x4E487B7100000000000000000000000000000000000000000000000000000000 PUSH1 0x0 MSTORE PUSH1 0x41 PUSH1 0x4 MSTORE PUSH1 0x24 PUSH1 0x0 REVERT JUMPDEST PUSH2 0xA70 DUP3 PUSH2 0x93F JUMP JUMPDEST DUP2 ADD DUP2 DUP2 LT PUSH8 0xFFFFFFFFFFFFFFFF DUP3 GT OR ISZERO PUSH2 0xA8F JUMPI PUSH2 0xA8E PUSH2 0xA38 JUMP JUMPDEST JUMPDEST DUP1 PUSH1 0x40 MSTORE POP POP POP JUMP JUMPDEST PUSH1 0x0 PUSH2 0xAA2 PUSH2 0x78E JUMP JUMPDEST SWAP1 POP PUSH2 0xAAE DUP3 DUP3 PUSH2 0xA67 JUMP JUMPDEST SWAP2 SWAP1 POP JUMP JUMPDEST PUSH1 0x0 PUSH8 0xFFFFFFFFFFFFFFFF DUP3 GT ISZERO PUSH2 0xACE JUMPI PUSH2 0xACD PUSH2 0xA38 JUMP JUMPDEST JUMPDEST PUSH2 0xAD7 DUP3 PUSH2 0x93F JUMP JUMPDEST SWAP1 POP PUSH1 0x20 DUP2 ADD SWAP1 POP SWAP2 SWAP1 POP JUMP JUMPDEST DUP3 DUP2 DUP4 CALLDATACOPY PUSH1 0x0 DUP4 DUP4 ADD MSTORE POP POP POP JUMP JUMPDEST PUSH1 0x0 PUSH2 0xB06 PUSH2 0xB01 DUP5 PUSH2 0xAB3 JUMP JUMPDEST PUSH2 0xA98 JUMP JUMPDEST SWAP1 POP DUP3 DUP2 MSTORE PUSH1 0x20 DUP2 ADD DUP5 DUP5 DUP5 ADD GT ISZERO PUSH2 0xB22 JUMPI PUSH2 0xB21 PUSH2 0xA33 JUMP JUMPDEST JUMPDEST PUSH2 0xB2D DUP5 DUP3 DUP6 PUSH2 0xAE4 JUMP JUMPDEST POP SWAP4 SWAP3 POP POP POP JUMP JUMPDEST PUSH1 0x0 DUP3 PUSH1 0x1F DUP4 ADD SLT PUSH2 0xB4A JUMPI PUSH2 0xB49 PUSH2 0xA2E JUMP JUMPDEST JUMPDEST DUP2 CALLDATALOAD PUSH2 0xB5A DUP5 DUP3 PUSH1 0x20 DUP7 ADD PUSH2 0xAF3 JUMP JUMPDEST SWAP2 POP POP SWAP3 SWAP2 POP POP JUMP JUMPDEST PUSH1 0x0 DUP1 PUSH1 0x0 PUSH1 0x60 DUP5 DUP7 SUB SLT ISZERO PUSH2 0xB7C JUMPI PUSH2 0xB7B PUSH2 0x798 JUMP JUMPDEST JUMPDEST PUSH1 0x0 DUP5 ADD CALLDATALOAD PUSH8 0xFFFFFFFFFFFFFFFF DUP2 GT ISZERO PUSH2 0xB9A JUMPI PUSH2 0xB99 PUSH2 0x79D JUMP JUMPDEST JUMPDEST PUSH2 0xBA6 DUP7 DUP3 DUP8 ADD PUSH2 0xB35 JUMP JUMPDEST SWAP4 POP POP PUSH1 0x20 PUSH2 0xBB7 DUP7 DUP3 DUP8 ADD PUSH2 0x7C3 JUMP JUMPDEST SWAP3 POP POP PUSH1 0x40 PUSH2 0xBC8 DUP7 DUP3 DUP8 ADD PUSH2 0x84E JUMP JUMPDEST SWAP2 POP POP SWAP3 POP SWAP3 POP SWAP3 JUMP JUMPDEST PUSH32 0x4E487B7100000000000000000000000000000000000000000000000000000000 PUSH1 0x0 MSTORE PUSH1 0x12 PUSH1 0x4 MSTORE PUSH1 0x24 PUSH1 0x0 REVERT JUMPDEST PUSH32 0x4E487B7100000000000000000000000000000000000000000000000000000000 PUSH1 0x0 MSTORE PUSH1 0x11 PUSH1 0x4 MSTORE PUSH1 0x24 PUSH1 0x0 REVERT JUMPDEST PUSH1 0x0 PUSH2 0xC3B DUP3 PUSH2 0x7A2 JUMP JUMPDEST SWAP2 POP PUSH2 0xC46 DUP4 PUSH2 0x7A2 JUMP JUMPDEST SWAP3 POP DUP3 PUSH2 0xC56 JUMPI PUSH2 0xC55 PUSH2 0xBD2 JUMP JUMPDEST JUMPDEST DUP3 DUP3 DIV SWAP1 POP SWAP3 SWAP2 POP POP JUMP JUMPDEST PUSH32 0x4E487B7100000000000000000000000000000000000000000000000000000000 PUSH1 0x0 MSTORE PUSH1 0x22 PUSH1 0x4 MSTORE PUSH1 0x24 PUSH1 0x0 REVERT JUMPDEST PUSH1 0x0 PUSH1 0x2 DUP3 DIV SWAP1 POP PUSH1 0x1 DUP3 AND DUP1 PUSH2 0xCA8 JUMPI PUSH1 0x7F DUP3 AND SWAP2 POP JUMPDEST PUSH1 0x20 DUP3 LT DUP2 SUB PUSH2 0xCBB JUMPI PUSH2 0xCBA PUSH2 0xC61 JUMP JUMPDEST JUMPDEST POP SWAP2 SWAP1 POP JUMP JUMPDEST PUSH1 0x0 PUSH2 0xCCC DUP3 PUSH2 0x7A2 JUMP JUMPDEST SWAP2 POP PUSH32 0xFFFFFFFFFFFFFFFFFFFFFFFFFFFFFFFFFFFFFFFFFFFFFFFFFFFFFFFFFFFFFFFF DUP3 SUB PUSH2 0xCFE JUMPI PUSH2 0xCFD PUSH2 0xC01 JUMP JUMPDEST JUMPDEST PUSH1 0x1 DUP3 ADD SWAP1 POP SWAP2 SWAP1 POP JUMP JUMPDEST PUSH1 0x0 DUP2 SWAP1 POP DUP2 PUSH1 0x0 MSTORE PUSH1 0x20 PUSH1 0x0 KECCAK256 SWAP1 POP SWAP2 SWAP1 POP JUMP JUMPDEST PUSH1 0x0 PUSH1 0x20 PUSH1 0x1F DUP4 ADD DIV SWAP1 POP SWAP2 SWAP1 POP JUMP JUMPDEST PUSH1 0x0 DUP3 DUP3 SHL SWAP1 POP SWAP3 SWAP2 POP POP JUMP JUMPDEST PUSH1 0x0 PUSH1 0x8 DUP4 MUL PUSH2 0xD6B PUSH32 0xFFFFFFFFFFFFFFFFFFFFFFFFFFFFFFFFFFFFFFFFFFFFFFFFFFFFFFFFFFFFFFFF DUP3 PUSH2 0xD2E JUMP JUMPDEST PUSH2 0xD75 DUP7 DUP4 PUSH2 0xD2E JUMP JUMPDEST SWAP6 POP DUP1 NOT DUP5 AND SWAP4 POP DUP1 DUP7 AND DUP5 OR SWAP3 POP POP POP SWAP4 SWAP3 POP POP POP JUMP JUMPDEST PUSH1 0x0 DUP2 SWAP1 POP SWAP2 SWAP1 POP JUMP JUMPDEST PUSH1 0x0 PUSH2 0xDB2 PUSH2 0xDAD PUSH2 0xDA8 DUP5 PUSH2 0x7A2 JUMP JUMPDEST PUSH2 0xD8D JUMP JUMPDEST PUSH2 0x7A2 JUMP JUMPDEST SWAP1 POP SWAP2 SWAP1 POP JUMP JUMPDEST PUSH1 0x0 DUP2 SWAP1 POP SWAP2 SWAP1 POP JUMP JUMPDEST PUSH2 0xDCC DUP4 PUSH2 0xD97 JUMP JUMPDEST PUSH2 0xDE0 PUSH2 0xDD8 DUP3 PUSH2 0xDB9 JUMP JUMPDEST DUP5 DUP5 SLOAD PUSH2 0xD3B JUMP JUMPDEST DUP3 SSTORE POP POP POP POP JUMP JUMPDEST PUSH1 0x0 SWAP1 JUMP JUMPDEST PUSH2 0xDF5 PUSH2 0xDE8 JUMP JUMPDEST PUSH2 0xE00 DUP2 DUP5 DUP5 PUSH2 0xDC3 JUMP JUMPDEST POP POP POP JUMP JUMPDEST JUMPDEST DUP2 DUP2 LT ISZERO PUSH2 0xE24 JUMPI PUSH2 0xE19 PUSH1 0x0 DUP3 PUSH2 0xDED JUMP JUMPDEST PUSH1 0x1 DUP2 ADD SWAP1 POP PUSH2 0xE06 JUMP JUMPDEST POP POP JUMP JUMPDEST PUSH1 0x1F DUP3 GT ISZERO PUSH2 0xE69 JUMPI PUSH2 0xE3A DUP2 PUSH2 0xD09 JUMP JUMPDEST PUSH2 0xE43 DUP5 PUSH2 0xD1E JUMP JUMPDEST DUP2 ADD PUSH1 0x20 DUP6 LT ISZERO PUSH2 0xE52 JUMPI DUP2 SWAP1 POP JUMPDEST PUSH2 0xE66 PUSH2 0xE5E DUP6 PUSH2 0xD1E JUMP JUMPDEST DUP4 ADD DUP3 PUSH2 0xE05 JUMP JUMPDEST POP POP JUMPDEST POP POP POP JUMP JUMPDEST PUSH1 0x0 DUP3 DUP3 SHR SWAP1 POP SWAP3 SWAP2 POP POP JUMP JUMPDEST PUSH1 0x0 PUSH2 0xE8C PUSH1 0x0 NOT DUP5 PUSH1 0x8 MUL PUSH2 0xE6E JUMP JUMPDEST NOT DUP1 DUP4 AND SWAP2 POP POP SWAP3 SWAP2 POP POP JUMP JUMPDEST PUSH1 0x0 PUSH2 0xEA5 DUP4 DUP4 PUSH2 0xE7B JUMP JUMPDEST SWAP2 POP DUP3 PUSH1 0x2 MUL DUP3 OR SWAP1 POP SWAP3 SWAP2 POP POP JUMP JUMPDEST PUSH2 0xEBE DUP3 PUSH2 0x8F0 JUMP JUMPDEST PUSH8 0xFFFFFFFFFFFFFFFF DUP2 GT ISZERO PUSH2 0xED7 JUMPI PUSH2 0xED6 PUSH2 0xA38 JUMP JUMPDEST JUMPDEST PUSH2 0xEE1 DUP3 SLOAD PUSH2 0xC90 JUMP JUMPDEST PUSH2 0xEEC DUP3 DUP3 DUP6 PUSH2 0xE28 JUMP JUMPDEST PUSH1 0x0 PUSH1 0x20 SWAP1 POP PUSH1 0x1F DUP4 GT PUSH1 0x1 DUP2 EQ PUSH2 0xF1F JUMPI PUSH1 0x0 DUP5 ISZERO PUSH2 0xF0D JUMPI DUP3 DUP8 ADD MLOAD SWAP1 POP JUMPDEST PUSH2 0xF17 DUP6 DUP3 PUSH2 0xE99 JUMP JUMPDEST DUP7 SSTORE POP PUSH2 0xF7F JUMP JUMPDEST PUSH1 0x1F NOT DUP5 AND PUSH2 0xF2D DUP7 PUSH2 0xD09 JUMP JUMPDEST PUSH1 0x0 JUMPDEST DUP3 DUP2 LT ISZERO PUSH2 0xF55 JUMPI DUP5 DUP10 ADD MLOAD DUP3 SSTORE PUSH1 0x1 DUP3 ADD SWAP2 POP PUSH1 0x20 DUP6 ADD SWAP5 POP PUSH1 0x20 DUP2 ADD SWAP1 POP PUSH2 0xF30 JUMP JUMPDEST DUP7 DUP4 LT ISZERO PUSH2 0xF72 JUMPI DUP5 DUP10 ADD MLOAD PUSH2 0xF6E PUSH1 0x1F DUP10 AND DUP3 PUSH2 0xE7B JUMP JUMPDEST DUP4 SSTORE POP JUMPDEST PUSH1 0x1 PUSH1 0x2 DUP9 MUL ADD DUP9 SSTORE POP POP POP JUMPDEST POP POP POP POP POP POP JUMP INVALID LOG2 PUSH5 0x6970667358 0x22 SLT KECCAK256 0xD 0xFC 0x2D LOG2 0xDE SWAP2 SWAP9 ISZERO PUSH7 0x832EC251631174 0xA5 0xE9 DUP5 0xB1 SWAP3 0x1F DUP2 0xEB 0xDD PUSH23 0x607F7623BCEE64736F6C634300080F0033A26469706673 PC 0x22 SLT KECCAK256 0x21 0x5C 0xE CALLCODE PUSH6 0xD1FD814C437C 0xC3 0x5E STOP 0xD9 RETURNDATASIZE 0xCB 0xAF 0xA7 ISZERO SWAP16 0xC2 PUSH5 0xC31187A2FF SWAP12 0x1E 0x1F STATICCALL PUSH5 0x736F6C6343 STOP ADDMOD 0xF STOP CALLER "
        },
        "gasEstimates": {
            "creation": {
                "codeDepositCost": "1119000",
                "executionCost": "1160",
                "totalCost": "1120160"
            },
            "external": {
                "createCampaign(uint256)": "infinite",
                "deployedCampaigns(uint256)": "infinite",
                "getCampaigns()": "infinite"
            }
        },
        "methodIdentifiers": {
            "createCampaign(uint256)": "a3303a75",
            "deployedCampaigns(uint256)": "339d50a5",
            "getCampaigns()": "a6b03633"
        }
    },
    "storageLayout": {
        "storage": [
            {
                "astId": 5,
                "contract": "Campaign.sol:CampaignFactory",
                "label": "deployedCampaigns",
                "offset": 0,
                "slot": "0",
                "type": "t_array(t_contract(Campaign)262)dyn_storage"
            }
        ],
        "types": {
            "t_array(t_contract(Campaign)262)dyn_storage": {
                "base": "t_contract(Campaign)262",
                "encoding": "dynamic_array",
                "label": "contract Campaign[]",
                "numberOfBytes": "32"
            },
            "t_contract(Campaign)262": {
                "encoding": "inplace",
                "label": "contract Campaign",
                "numberOfBytes": "20"
            }
        }
    },
    "userdoc": {
        "kind": "user",
        "methods": {},
        "version": 1
    }
}