{"abi":[{"inputs":[{"internalType":"uint256","name":"minContribution","type":"uint256"},{"internalType":"address","name":"managerAddress","type":"address"}],"stateMutability":"nonpayable","type":"constructor"},{"inputs":[{"internalType":"uint256","name":"key","type":"uint256"}],"name":"approveRequest","outputs":[],"stateMutability":"nonpayable","type":"function"},{"inputs":[{"internalType":"address","name":"","type":"address"}],"name":"approvers","outputs":[{"internalType":"bool","name":"","type":"bool"}],"stateMutability":"view","type":"function"},{"inputs":[],"name":"approversCount","outputs":[{"internalType":"uint256","name":"","type":"uint256"}],"stateMutability":"view","type":"function"},{"inputs":[],"name":"contribute","outputs":[],"stateMutability":"payable","type":"function"},{"inputs":[{"internalType":"string","name":"description","type":"string"},{"internalType":"uint256","name":"value","type":"uint256"},{"internalType":"address","name":"recipient","type":"address"}],"name":"createRequest","outputs":[],"stateMutability":"nonpayable","type":"function"},{"inputs":[{"internalType":"uint256","name":"key","type":"uint256"}],"name":"finalizeRequest","outputs":[],"stateMutability":"nonpayable","type":"function"},{"inputs":[],"name":"getRequestsCount","outputs":[{"internalType":"uint256","name":"","type":"uint256"}],"stateMutability":"view","type":"function"},{"inputs":[],"name":"getSummary","outputs":[{"internalType":"uint256","name":"","type":"uint256"},{"internalType":"uint256","name":"","type":"uint256"},{"internalType":"uint256","name":"","type":"uint256"},{"internalType":"uint256","name":"","type":"uint256"},{"internalType":"address","name":"","type":"address"}],"stateMutability":"view","type":"function"},{"inputs":[],"name":"manager","outputs":[{"internalType":"address","name":"","type":"address"}],"stateMutability":"view","type":"function"},{"inputs":[],"name":"minimumContribution","outputs":[{"internalType":"uint256","name":"","type":"uint256"}],"stateMutability":"view","type":"function"},{"inputs":[],"name":"numRequests","outputs":[{"internalType":"uint256","name":"","type":"uint256"}],"stateMutability":"view","type":"function"},{"inputs":[{"internalType":"uint256","name":"","type":"uint256"}],"name":"requests","outputs":[{"internalType":"string","name":"description","type":"string"},{"internalType":"uint256","name":"value","type":"uint256"},{"internalType":"address payable","name":"recipient","type":"address"},{"internalType":"bool","name":"complete","type":"bool"},{"internalType":"uint256","name":"approvalCount","type":"uint256"}],"stateMutability":"view","type":"function"}],"devdoc":{"kind":"dev","methods":{},"version":1},"evm":{"assembly":"    /* \"Campaign.sol\":502:2815  contract Campaign {... */\n  mstore(0x40, 0x80)\n    /* \"Campaign.sol\":987:1139  constructor(uint256 minContribution, address managerAddress) {... */\n  callvalue\n  dup1\n  iszero\n  tag_1\n  jumpi\n  0x00\n  dup1\n  revert\ntag_1:\n  pop\n  mload(0x40)\n  sub(codesize, bytecodeSize)\n  dup1\n  bytecodeSize\n  dup4\n  codecopy\n  dup2\n  dup2\n  add\n  0x40\n  mstore\n  dup2\n  add\n  swap1\n  tag_2\n  swap2\n  swap1\n  tag_3\n  jump\t// in\ntag_2:\n    /* \"Campaign.sol\":1069:1083  managerAddress */\n  dup1\n    /* \"Campaign.sol\":1059:1066  manager */\n  0x00\n  dup1\n    /* \"Campaign.sol\":1059:1083  manager = managerAddress */\n  0x0100\n  exp\n  dup2\n  sload\n  dup2\n  0xffffffffffffffffffffffffffffffffffffffff\n  mul\n  not\n  and\n  swap1\n  dup4\n  0xffffffffffffffffffffffffffffffffffffffff\n  and\n  mul\n  or\n  swap1\n  sstore\n  pop\n    /* \"Campaign.sol\":1116:1131  minContribution */\n  dup2\n    /* \"Campaign.sol\":1094:1113  minimumContribution */\n  0x03\n    /* \"Campaign.sol\":1094:1131  minimumContribution = minContribution */\n  dup2\n  swap1\n  sstore\n  pop\n    /* \"Campaign.sol\":987:1139  constructor(uint256 minContribution, address managerAddress) {... */\n  pop\n  pop\n    /* \"Campaign.sol\":502:2815  contract Campaign {... */\n  jump(tag_6)\n    /* \"#utility.yul\":88:205   */\ntag_8:\n    /* \"#utility.yul\":197:198   */\n  0x00\n    /* \"#utility.yul\":194:195   */\n  dup1\n    /* \"#utility.yul\":187:199   */\n  revert\n    /* \"#utility.yul\":334:411   */\ntag_10:\n    /* \"#utility.yul\":371:378   */\n  0x00\n    /* \"#utility.yul\":400:405   */\n  dup2\n    /* \"#utility.yul\":389:405   */\n  swap1\n  pop\n    /* \"#utility.yul\":334:411   */\n  swap2\n  swap1\n  pop\n  jump\t// out\n    /* \"#utility.yul\":417:539   */\ntag_11:\n    /* \"#utility.yul\":490:514   */\n  tag_23\n    /* \"#utility.yul\":508:513   */\n  dup2\n    /* \"#utility.yul\":490:514   */\n  tag_10\n  jump\t// in\ntag_23:\n    /* \"#utility.yul\":483:488   */\n  dup2\n    /* \"#utility.yul\":480:515   */\n  eq\n    /* \"#utility.yul\":470:533   */\n  tag_24\n  jumpi\n    /* \"#utility.yul\":529:530   */\n  0x00\n    /* \"#utility.yul\":526:527   */\n  dup1\n    /* \"#utility.yul\":519:531   */\n  revert\n    /* \"#utility.yul\":470:533   */\ntag_24:\n    /* \"#utility.yul\":417:539   */\n  pop\n  jump\t// out\n    /* \"#utility.yul\":545:688   */\ntag_12:\n    /* \"#utility.yul\":602:607   */\n  0x00\n    /* \"#utility.yul\":633:639   */\n  dup2\n    /* \"#utility.yul\":627:640   */\n  mload\n    /* \"#utility.yul\":618:640   */\n  swap1\n  pop\n    /* \"#utility.yul\":649:682   */\n  tag_26\n    /* \"#utility.yul\":676:681   */\n  dup2\n    /* \"#utility.yul\":649:682   */\n  tag_11\n  jump\t// in\ntag_26:\n    /* \"#utility.yul\":545:688   */\n  swap3\n  swap2\n  pop\n  pop\n  jump\t// out\n    /* \"#utility.yul\":694:820   */\ntag_13:\n    /* \"#utility.yul\":731:738   */\n  0x00\n    /* \"#utility.yul\":771:813   */\n  0xffffffffffffffffffffffffffffffffffffffff\n    /* \"#utility.yul\":764:769   */\n  dup3\n    /* \"#utility.yul\":760:814   */\n  and\n    /* \"#utility.yul\":749:814   */\n  swap1\n  pop\n    /* \"#utility.yul\":694:820   */\n  swap2\n  swap1\n  pop\n  jump\t// out\n    /* \"#utility.yul\":826:922   */\ntag_14:\n    /* \"#utility.yul\":863:870   */\n  0x00\n    /* \"#utility.yul\":892:916   */\n  tag_29\n    /* \"#utility.yul\":910:915   */\n  dup3\n    /* \"#utility.yul\":892:916   */\n  tag_13\n  jump\t// in\ntag_29:\n    /* \"#utility.yul\":881:916   */\n  swap1\n  pop\n    /* \"#utility.yul\":826:922   */\n  swap2\n  swap1\n  pop\n  jump\t// out\n    /* \"#utility.yul\":928:1050   */\ntag_15:\n    /* \"#utility.yul\":1001:1025   */\n  tag_31\n    /* \"#utility.yul\":1019:1024   */\n  dup2\n    /* \"#utility.yul\":1001:1025   */\n  tag_14\n  jump\t// in\ntag_31:\n    /* \"#utility.yul\":994:999   */\n  dup2\n    /* \"#utility.yul\":991:1026   */\n  eq\n    /* \"#utility.yul\":981:1044   */\n  tag_32\n  jumpi\n    /* \"#utility.yul\":1040:1041   */\n  0x00\n    /* \"#utility.yul\":1037:1038   */\n  dup1\n    /* \"#utility.yul\":1030:1042   */\n  revert\n    /* \"#utility.yul\":981:1044   */\ntag_32:\n    /* \"#utility.yul\":928:1050   */\n  pop\n  jump\t// out\n    /* \"#utility.yul\":1056:1199   */\ntag_16:\n    /* \"#utility.yul\":1113:1118   */\n  0x00\n    /* \"#utility.yul\":1144:1150   */\n  dup2\n    /* \"#utility.yul\":1138:1151   */\n  mload\n    /* \"#utility.yul\":1129:1151   */\n  swap1\n  pop\n    /* \"#utility.yul\":1160:1193   */\n  tag_34\n    /* \"#utility.yul\":1187:1192   */\n  dup2\n    /* \"#utility.yul\":1160:1193   */\n  tag_15\n  jump\t// in\ntag_34:\n    /* \"#utility.yul\":1056:1199   */\n  swap3\n  swap2\n  pop\n  pop\n  jump\t// out\n    /* \"#utility.yul\":1205:1712   */\ntag_3:\n    /* \"#utility.yul\":1284:1290   */\n  0x00\n    /* \"#utility.yul\":1292:1298   */\n  dup1\n    /* \"#utility.yul\":1341:1343   */\n  0x40\n    /* \"#utility.yul\":1329:1338   */\n  dup4\n    /* \"#utility.yul\":1320:1327   */\n  dup6\n    /* \"#utility.yul\":1316:1339   */\n  sub\n    /* \"#utility.yul\":1312:1344   */\n  slt\n    /* \"#utility.yul\":1309:1428   */\n  iszero\n  tag_36\n  jumpi\n    /* \"#utility.yul\":1347:1426   */\n  tag_37\n  tag_8\n  jump\t// in\ntag_37:\n    /* \"#utility.yul\":1309:1428   */\ntag_36:\n    /* \"#utility.yul\":1467:1468   */\n  0x00\n    /* \"#utility.yul\":1492:1556   */\n  tag_38\n    /* \"#utility.yul\":1548:1555   */\n  dup6\n    /* \"#utility.yul\":1539:1545   */\n  dup3\n    /* \"#utility.yul\":1528:1537   */\n  dup7\n    /* \"#utility.yul\":1524:1546   */\n  add\n    /* \"#utility.yul\":1492:1556   */\n  tag_12\n  jump\t// in\ntag_38:\n    /* \"#utility.yul\":1482:1556   */\n  swap3\n  pop\n    /* \"#utility.yul\":1438:1566   */\n  pop\n    /* \"#utility.yul\":1605:1607   */\n  0x20\n    /* \"#utility.yul\":1631:1695   */\n  tag_39\n    /* \"#utility.yul\":1687:1694   */\n  dup6\n    /* \"#utility.yul\":1678:1684   */\n  dup3\n    /* \"#utility.yul\":1667:1676   */\n  dup7\n    /* \"#utility.yul\":1663:1685   */\n  add\n    /* \"#utility.yul\":1631:1695   */\n  tag_16\n  jump\t// in\ntag_39:\n    /* \"#utility.yul\":1621:1695   */\n  swap2\n  pop\n    /* \"#utility.yul\":1576:1705   */\n  pop\n    /* \"#utility.yul\":1205:1712   */\n  swap3\n  pop\n  swap3\n  swap1\n  pop\n  jump\t// out\n    /* \"Campaign.sol\":502:2815  contract Campaign {... */\ntag_6:\n  dataSize(sub_0)\n  dup1\n  dataOffset(sub_0)\n  0x00\n  codecopy\n  0x00\n  return\nstop\n\nsub_0: assembly {\n        /* \"Campaign.sol\":502:2815  contract Campaign {... */\n      mstore(0x40, 0x80)\n      jumpi(tag_1, lt(calldatasize, 0x04))\n      shr(0xe0, calldataload(0x00))\n      dup1\n      0x82fde093\n      gt\n      tag_14\n      jumpi\n      dup1\n      0x82fde093\n      eq\n      tag_8\n      jumpi\n      dup1\n      0x8a9cfd55\n      eq\n      tag_9\n      jumpi\n      dup1\n      0x937e09b1\n      eq\n      tag_10\n      jumpi\n      dup1\n      0x9fb42b1f\n      eq\n      tag_11\n      jumpi\n      dup1\n      0xd7bb99ba\n      eq\n      tag_12\n      jumpi\n      dup1\n      0xd7d1bbdb\n      eq\n      tag_13\n      jumpi\n      jump(tag_1)\n    tag_14:\n      dup1\n      0x03441006\n      eq\n      tag_2\n      jumpi\n      dup1\n      0x0a144391\n      eq\n      tag_3\n      jumpi\n      dup1\n      0x3410452a\n      eq\n      tag_4\n      jumpi\n      dup1\n      0x4051ddac\n      eq\n      tag_5\n      jumpi\n      dup1\n      0x481c6a75\n      eq\n      tag_6\n      jumpi\n      dup1\n      0x81d12c58\n      eq\n      tag_7\n      jumpi\n    tag_1:\n      0x00\n      dup1\n      revert\n        /* \"Campaign.sol\":2145:2446  function finalizeRequest(uint256 key) public restricted {... */\n    tag_2:\n      callvalue\n      dup1\n      iszero\n      tag_15\n      jumpi\n      0x00\n      dup1\n      revert\n    tag_15:\n      pop\n      tag_16\n      0x04\n      dup1\n      calldatasize\n      sub\n      dup2\n      add\n      swap1\n      tag_17\n      swap2\n      swap1\n      tag_18\n      jump\t// in\n    tag_17:\n      tag_19\n      jump\t// in\n    tag_16:\n      stop\n        /* \"Campaign.sol\":810:851  mapping(address => bool) public approvers */\n    tag_3:\n      callvalue\n      dup1\n      iszero\n      tag_20\n      jumpi\n      0x00\n      dup1\n      revert\n    tag_20:\n      pop\n      tag_21\n      0x04\n      dup1\n      calldatasize\n      sub\n      dup2\n      add\n      swap1\n      tag_22\n      swap2\n      swap1\n      tag_23\n      jump\t// in\n    tag_22:\n      tag_24\n      jump\t// in\n    tag_21:\n      mload(0x40)\n      tag_25\n      swap2\n      swap1\n      tag_26\n      jump\t// in\n    tag_25:\n      mload(0x40)\n      dup1\n      swap2\n      sub\n      swap1\n      return\n        /* \"Campaign.sol\":2721:2812  function getRequestsCount() public view returns(uint) {... */\n    tag_4:\n      callvalue\n      dup1\n      iszero\n      tag_27\n      jumpi\n      0x00\n      dup1\n      revert\n    tag_27:\n      pop\n      tag_28\n      tag_29\n      jump\t// in\n    tag_28:\n      mload(0x40)\n      tag_30\n      swap2\n      swap1\n      tag_31\n      jump\t// in\n    tag_30:\n      mload(0x40)\n      dup1\n      swap2\n      sub\n      swap1\n      return\n        /* \"Campaign.sol\":2454:2713  function getSummary() public view returns(uint, uint, uint, uint, address) {... */\n    tag_5:\n      callvalue\n      dup1\n      iszero\n      tag_32\n      jumpi\n      0x00\n      dup1\n      revert\n    tag_32:\n      pop\n      tag_33\n      tag_34\n      jump\t// in\n    tag_33:\n      mload(0x40)\n      tag_35\n      swap6\n      swap5\n      swap4\n      swap3\n      swap2\n      swap1\n      tag_36\n      jump\t// in\n    tag_35:\n      mload(0x40)\n      dup1\n      swap2\n      sub\n      swap1\n      return\n        /* \"Campaign.sol\":748:770  address public manager */\n    tag_6:\n      callvalue\n      dup1\n      iszero\n      tag_37\n      jumpi\n      0x00\n      dup1\n      revert\n    tag_37:\n      pop\n      tag_38\n      tag_39\n      jump\t// in\n    tag_38:\n      mload(0x40)\n      tag_40\n      swap2\n      swap1\n      tag_41\n      jump\t// in\n    tag_40:\n      mload(0x40)\n      dup1\n      swap2\n      sub\n      swap1\n      return\n        /* \"Campaign.sol\":935:978  mapping(uint256 => Request) public requests */\n    tag_7:\n      callvalue\n      dup1\n      iszero\n      tag_42\n      jumpi\n      0x00\n      dup1\n      revert\n    tag_42:\n      pop\n      tag_43\n      0x04\n      dup1\n      calldatasize\n      sub\n      dup2\n      add\n      swap1\n      tag_44\n      swap2\n      swap1\n      tag_18\n      jump\t// in\n    tag_44:\n      tag_45\n      jump\t// in\n    tag_43:\n      mload(0x40)\n      tag_46\n      swap6\n      swap5\n      swap4\n      swap3\n      swap2\n      swap1\n      tag_47\n      jump\t// in\n    tag_46:\n      mload(0x40)\n      dup1\n      swap2\n      sub\n      swap1\n      return\n        /* \"Campaign.sol\":899:928  uint256 public approversCount */\n    tag_8:\n      callvalue\n      dup1\n      iszero\n      tag_48\n      jumpi\n      0x00\n      dup1\n      revert\n    tag_48:\n      pop\n      tag_49\n      tag_50\n      jump\t// in\n    tag_49:\n      mload(0x40)\n      tag_51\n      swap2\n      swap1\n      tag_31\n      jump\t// in\n    tag_51:\n      mload(0x40)\n      dup1\n      swap2\n      sub\n      swap1\n      return\n        /* \"Campaign.sol\":1451:1851  function createRequest(... */\n    tag_9:\n      callvalue\n      dup1\n      iszero\n      tag_52\n      jumpi\n      0x00\n      dup1\n      revert\n    tag_52:\n      pop\n      tag_53\n      0x04\n      dup1\n      calldatasize\n      sub\n      dup2\n      add\n      swap1\n      tag_54\n      swap2\n      swap1\n      tag_55\n      jump\t// in\n    tag_54:\n      tag_56\n      jump\t// in\n    tag_53:\n      stop\n        /* \"Campaign.sol\":858:892  uint256 public minimumContribution */\n    tag_10:\n      callvalue\n      dup1\n      iszero\n      tag_57\n      jumpi\n      0x00\n      dup1\n      revert\n    tag_57:\n      pop\n      tag_58\n      tag_59\n      jump\t// in\n    tag_58:\n      mload(0x40)\n      tag_60\n      swap2\n      swap1\n      tag_31\n      jump\t// in\n    tag_60:\n      mload(0x40)\n      dup1\n      swap2\n      sub\n      swap1\n      return\n        /* \"Campaign.sol\":777:803  uint256 public numRequests */\n    tag_11:\n      callvalue\n      dup1\n      iszero\n      tag_61\n      jumpi\n      0x00\n      dup1\n      revert\n    tag_61:\n      pop\n      tag_62\n      tag_63\n      jump\t// in\n    tag_62:\n      mload(0x40)\n      tag_64\n      swap2\n      swap1\n      tag_31\n      jump\t// in\n    tag_64:\n      mload(0x40)\n      dup1\n      swap2\n      sub\n      swap1\n      return\n        /* \"Campaign.sol\":1238:1443  function contribute() public payable {... */\n    tag_12:\n      tag_65\n      tag_66\n      jump\t// in\n    tag_65:\n      stop\n        /* \"Campaign.sol\":1859:2137  function approveRequest(uint256 key) public {... */\n    tag_13:\n      callvalue\n      dup1\n      iszero\n      tag_67\n      jumpi\n      0x00\n      dup1\n      revert\n    tag_67:\n      pop\n      tag_68\n      0x04\n      dup1\n      calldatasize\n      sub\n      dup2\n      add\n      swap1\n      tag_69\n      swap2\n      swap1\n      tag_18\n      jump\t// in\n    tag_69:\n      tag_70\n      jump\t// in\n    tag_68:\n      stop\n        /* \"Campaign.sol\":2145:2446  function finalizeRequest(uint256 key) public restricted {... */\n    tag_19:\n        /* \"Campaign.sol\":1202:1209  manager */\n      0x00\n      dup1\n      sload\n      swap1\n      0x0100\n      exp\n      swap1\n      div\n      0xffffffffffffffffffffffffffffffffffffffff\n      and\n        /* \"Campaign.sol\":1188:1209  msg.sender == manager */\n      0xffffffffffffffffffffffffffffffffffffffff\n      and\n        /* \"Campaign.sol\":1188:1198  msg.sender */\n      caller\n        /* \"Campaign.sol\":1188:1209  msg.sender == manager */\n      0xffffffffffffffffffffffffffffffffffffffff\n      and\n      eq\n        /* \"Campaign.sol\":1180:1210  require(msg.sender == manager) */\n      tag_72\n      jumpi\n      0x00\n      dup1\n      revert\n    tag_72:\n        /* \"Campaign.sol\":2212:2235  Request storage request */\n      0x00\n        /* \"Campaign.sol\":2238:2246  requests */\n      0x05\n        /* \"Campaign.sol\":2238:2251  requests[key] */\n      0x00\n        /* \"Campaign.sol\":2247:2250  key */\n      dup4\n        /* \"Campaign.sol\":2238:2251  requests[key] */\n      dup2\n      mstore\n      0x20\n      add\n      swap1\n      dup2\n      mstore\n      0x20\n      add\n      0x00\n      keccak256\n        /* \"Campaign.sol\":2212:2251  Request storage request = requests[key] */\n      swap1\n      pop\n        /* \"Campaign.sol\":2271:2278  request */\n      dup1\n        /* \"Campaign.sol\":2271:2287  request.complete */\n      0x02\n      add\n      0x14\n      swap1\n      sload\n      swap1\n      0x0100\n      exp\n      swap1\n      div\n      0xff\n      and\n        /* \"Campaign.sol\":2270:2287  !request.complete */\n      iszero\n        /* \"Campaign.sol\":2262:2288  require(!request.complete) */\n      tag_74\n      jumpi\n      0x00\n      dup1\n      revert\n    tag_74:\n        /* \"Campaign.sol\":2349:2350  2 */\n      0x02\n        /* \"Campaign.sol\":2332:2346  approversCount */\n      sload(0x04)\n        /* \"Campaign.sol\":2332:2350  approversCount / 2 */\n      tag_75\n      swap2\n      swap1\n      tag_76\n      jump\t// in\n    tag_75:\n        /* \"Campaign.sol\":2307:2314  request */\n      dup2\n        /* \"Campaign.sol\":2307:2328  request.approvalCount */\n      0x03\n      add\n      sload\n        /* \"Campaign.sol\":2307:2351  request.approvalCount > (approversCount / 2) */\n      gt\n        /* \"Campaign.sol\":2299:2352  require(request.approvalCount > (approversCount / 2)) */\n      tag_77\n      jumpi\n      0x00\n      dup1\n      revert\n    tag_77:\n        /* \"Campaign.sol\":2363:2370  request */\n      dup1\n        /* \"Campaign.sol\":2363:2380  request.recipient */\n      0x02\n      add\n      0x00\n      swap1\n      sload\n      swap1\n      0x0100\n      exp\n      swap1\n      div\n      0xffffffffffffffffffffffffffffffffffffffff\n      and\n        /* \"Campaign.sol\":2363:2389  request.recipient.transfer */\n      0xffffffffffffffffffffffffffffffffffffffff\n      and\n        /* \"Campaign.sol\":2363:2404  request.recipient.transfer(request.value) */\n      0x08fc\n        /* \"Campaign.sol\":2390:2397  request */\n      dup3\n        /* \"Campaign.sol\":2390:2403  request.value */\n      0x01\n      add\n      sload\n        /* \"Campaign.sol\":2363:2404  request.recipient.transfer(request.value) */\n      swap1\n      dup2\n      iszero\n      mul\n      swap1\n      mload(0x40)\n      0x00\n      mload(0x40)\n      dup1\n      dup4\n      sub\n      dup2\n      dup6\n      dup9\n      dup9\n      call\n      swap4\n      pop\n      pop\n      pop\n      pop\n      iszero\n      dup1\n      iszero\n      tag_79\n      jumpi\n      returndatasize\n      0x00\n      dup1\n      returndatacopy\n      revert(0x00, returndatasize)\n    tag_79:\n      pop\n        /* \"Campaign.sol\":2434:2438  true */\n      0x01\n        /* \"Campaign.sol\":2415:2422  request */\n      dup2\n        /* \"Campaign.sol\":2415:2431  request.complete */\n      0x02\n      add\n      0x14\n        /* \"Campaign.sol\":2415:2438  request.complete = true */\n      0x0100\n      exp\n      dup2\n      sload\n      dup2\n      0xff\n      mul\n      not\n      and\n      swap1\n      dup4\n      iszero\n      iszero\n      mul\n      or\n      swap1\n      sstore\n      pop\n        /* \"Campaign.sol\":2201:2446  {... */\n      pop\n        /* \"Campaign.sol\":2145:2446  function finalizeRequest(uint256 key) public restricted {... */\n      pop\n      jump\t// out\n        /* \"Campaign.sol\":810:851  mapping(address => bool) public approvers */\n    tag_24:\n      mstore(0x20, 0x02)\n      dup1\n      0x00\n      mstore\n      keccak256(0x00, 0x40)\n      0x00\n      swap2\n      pop\n      sload\n      swap1\n      0x0100\n      exp\n      swap1\n      div\n      0xff\n      and\n      dup2\n      jump\t// out\n        /* \"Campaign.sol\":2721:2812  function getRequestsCount() public view returns(uint) {... */\n    tag_29:\n        /* \"Campaign.sol\":2769:2773  uint */\n      0x00\n        /* \"Campaign.sol\":2793:2804  numRequests */\n      sload(0x01)\n        /* \"Campaign.sol\":2786:2804  return numRequests */\n      swap1\n      pop\n        /* \"Campaign.sol\":2721:2812  function getRequestsCount() public view returns(uint) {... */\n      swap1\n      jump\t// out\n        /* \"Campaign.sol\":2454:2713  function getSummary() public view returns(uint, uint, uint, uint, address) {... */\n    tag_34:\n        /* \"Campaign.sol\":2496:2500  uint */\n      0x00\n        /* \"Campaign.sol\":2502:2506  uint */\n      dup1\n        /* \"Campaign.sol\":2508:2512  uint */\n      0x00\n        /* \"Campaign.sol\":2514:2518  uint */\n      dup1\n        /* \"Campaign.sol\":2520:2527  address */\n      0x00\n        /* \"Campaign.sol\":2562:2581  minimumContribution */\n      sload(0x03)\n        /* \"Campaign.sol\":2596:2617  address(this).balance */\n      selfbalance\n        /* \"Campaign.sol\":2632:2643  numRequests */\n      sload(0x01)\n        /* \"Campaign.sol\":2658:2672  approversCount */\n      sload(0x04)\n        /* \"Campaign.sol\":2687:2694  manager */\n      0x00\n      dup1\n      sload\n      swap1\n      0x0100\n      exp\n      swap1\n      div\n      0xffffffffffffffffffffffffffffffffffffffff\n      and\n        /* \"Campaign.sol\":2540:2705  return (... */\n      swap5\n      pop\n      swap5\n      pop\n      swap5\n      pop\n      swap5\n      pop\n      swap5\n      pop\n        /* \"Campaign.sol\":2454:2713  function getSummary() public view returns(uint, uint, uint, uint, address) {... */\n      swap1\n      swap2\n      swap3\n      swap4\n      swap5\n      jump\t// out\n        /* \"Campaign.sol\":748:770  address public manager */\n    tag_39:\n      0x00\n      dup1\n      sload\n      swap1\n      0x0100\n      exp\n      swap1\n      div\n      0xffffffffffffffffffffffffffffffffffffffff\n      and\n      dup2\n      jump\t// out\n        /* \"Campaign.sol\":935:978  mapping(uint256 => Request) public requests */\n    tag_45:\n      mstore(0x20, 0x05)\n      dup1\n      0x00\n      mstore\n      keccak256(0x00, 0x40)\n      0x00\n      swap2\n      pop\n      swap1\n      pop\n      dup1\n      0x00\n      add\n      dup1\n      sload\n      tag_82\n      swap1\n      tag_83\n      jump\t// in\n    tag_82:\n      dup1\n      0x1f\n      add\n      0x20\n      dup1\n      swap2\n      div\n      mul\n      0x20\n      add\n      mload(0x40)\n      swap1\n      dup2\n      add\n      0x40\n      mstore\n      dup1\n      swap3\n      swap2\n      swap1\n      dup2\n      dup2\n      mstore\n      0x20\n      add\n      dup3\n      dup1\n      sload\n      tag_84\n      swap1\n      tag_83\n      jump\t// in\n    tag_84:\n      dup1\n      iszero\n      tag_85\n      jumpi\n      dup1\n      0x1f\n      lt\n      tag_86\n      jumpi\n      0x0100\n      dup1\n      dup4\n      sload\n      div\n      mul\n      dup4\n      mstore\n      swap2\n      0x20\n      add\n      swap2\n      jump(tag_85)\n    tag_86:\n      dup3\n      add\n      swap2\n      swap1\n      0x00\n      mstore\n      keccak256(0x00, 0x20)\n      swap1\n    tag_87:\n      dup2\n      sload\n      dup2\n      mstore\n      swap1\n      0x01\n      add\n      swap1\n      0x20\n      add\n      dup1\n      dup4\n      gt\n      tag_87\n      jumpi\n      dup3\n      swap1\n      sub\n      0x1f\n      and\n      dup3\n      add\n      swap2\n    tag_85:\n      pop\n      pop\n      pop\n      pop\n      pop\n      swap1\n      dup1\n      0x01\n      add\n      sload\n      swap1\n      dup1\n      0x02\n      add\n      0x00\n      swap1\n      sload\n      swap1\n      0x0100\n      exp\n      swap1\n      div\n      0xffffffffffffffffffffffffffffffffffffffff\n      and\n      swap1\n      dup1\n      0x02\n      add\n      0x14\n      swap1\n      sload\n      swap1\n      0x0100\n      exp\n      swap1\n      div\n      0xff\n      and\n      swap1\n      dup1\n      0x03\n      add\n      sload\n      swap1\n      pop\n      dup6\n      jump\t// out\n        /* \"Campaign.sol\":899:928  uint256 public approversCount */\n    tag_50:\n      sload(0x04)\n      dup2\n      jump\t// out\n        /* \"Campaign.sol\":1451:1851  function createRequest(... */\n    tag_56:\n        /* \"Campaign.sol\":1202:1209  manager */\n      0x00\n      dup1\n      sload\n      swap1\n      0x0100\n      exp\n      swap1\n      div\n      0xffffffffffffffffffffffffffffffffffffffff\n      and\n        /* \"Campaign.sol\":1188:1209  msg.sender == manager */\n      0xffffffffffffffffffffffffffffffffffffffff\n      and\n        /* \"Campaign.sol\":1188:1198  msg.sender */\n      caller\n        /* \"Campaign.sol\":1188:1209  msg.sender == manager */\n      0xffffffffffffffffffffffffffffffffffffffff\n      and\n      eq\n        /* \"Campaign.sol\":1180:1210  require(msg.sender == manager) */\n      tag_89\n      jumpi\n      0x00\n      dup1\n      revert\n    tag_89:\n        /* \"Campaign.sol\":1598:1621  Request storage request */\n      0x00\n        /* \"Campaign.sol\":1624:1632  requests */\n      0x05\n        /* \"Campaign.sol\":1624:1647  requests[numRequests++] */\n      0x00\n        /* \"Campaign.sol\":1633:1644  numRequests */\n      0x01\n      0x00\n        /* \"Campaign.sol\":1633:1646  numRequests++ */\n      dup2\n      sload\n      dup1\n      swap3\n      swap2\n      swap1\n      tag_91\n      swap1\n      tag_92\n      jump\t// in\n    tag_91:\n      swap2\n      swap1\n      pop\n      sstore\n        /* \"Campaign.sol\":1624:1647  requests[numRequests++] */\n      dup2\n      mstore\n      0x20\n      add\n      swap1\n      dup2\n      mstore\n      0x20\n      add\n      0x00\n      keccak256\n        /* \"Campaign.sol\":1598:1647  Request storage request = requests[numRequests++] */\n      swap1\n      pop\n        /* \"Campaign.sol\":1680:1691  description */\n      dup4\n        /* \"Campaign.sol\":1658:1665  request */\n      dup2\n        /* \"Campaign.sol\":1658:1677  request.description */\n      0x00\n      add\n        /* \"Campaign.sol\":1658:1691  request.description = description */\n      swap1\n      dup2\n      tag_93\n      swap2\n      swap1\n      tag_94\n      jump\t// in\n    tag_93:\n      pop\n        /* \"Campaign.sol\":1718:1723  value */\n      dup3\n        /* \"Campaign.sol\":1702:1709  request */\n      dup2\n        /* \"Campaign.sol\":1702:1715  request.value */\n      0x01\n      add\n        /* \"Campaign.sol\":1702:1723  request.value = value */\n      dup2\n      swap1\n      sstore\n      pop\n        /* \"Campaign.sol\":1762:1771  recipient */\n      dup2\n        /* \"Campaign.sol\":1734:1741  request */\n      dup2\n        /* \"Campaign.sol\":1734:1751  request.recipient */\n      0x02\n      add\n      0x00\n        /* \"Campaign.sol\":1734:1772  request.recipient = payable(recipient) */\n      0x0100\n      exp\n      dup2\n      sload\n      dup2\n      0xffffffffffffffffffffffffffffffffffffffff\n      mul\n      not\n      and\n      swap1\n      dup4\n      0xffffffffffffffffffffffffffffffffffffffff\n      and\n      mul\n      or\n      swap1\n      sstore\n      pop\n        /* \"Campaign.sol\":1802:1807  false */\n      0x00\n        /* \"Campaign.sol\":1783:1790  request */\n      dup2\n        /* \"Campaign.sol\":1783:1799  request.complete */\n      0x02\n      add\n      0x14\n        /* \"Campaign.sol\":1783:1807  request.complete = false */\n      0x0100\n      exp\n      dup2\n      sload\n      dup2\n      0xff\n      mul\n      not\n      and\n      swap1\n      dup4\n      iszero\n      iszero\n      mul\n      or\n      swap1\n      sstore\n      pop\n        /* \"Campaign.sol\":1842:1843  0 */\n      0x00\n        /* \"Campaign.sol\":1818:1825  request */\n      dup2\n        /* \"Campaign.sol\":1818:1839  request.approvalCount */\n      0x03\n      add\n        /* \"Campaign.sol\":1818:1843  request.approvalCount = 0 */\n      dup2\n      swap1\n      sstore\n      pop\n        /* \"Campaign.sol\":1587:1851  {... */\n      pop\n        /* \"Campaign.sol\":1451:1851  function createRequest(... */\n      pop\n      pop\n      pop\n      jump\t// out\n        /* \"Campaign.sol\":858:892  uint256 public minimumContribution */\n    tag_59:\n      sload(0x03)\n      dup2\n      jump\t// out\n        /* \"Campaign.sol\":777:803  uint256 public numRequests */\n    tag_63:\n      sload(0x01)\n      dup2\n      jump\t// out\n        /* \"Campaign.sol\":1238:1443  function contribute() public payable {... */\n    tag_66:\n        /* \"Campaign.sol\":1307:1326  minimumContribution */\n      sload(0x03)\n        /* \"Campaign.sol\":1294:1303  msg.value */\n      callvalue\n        /* \"Campaign.sol\":1294:1326  msg.value >= minimumContribution */\n      lt\n      iszero\n        /* \"Campaign.sol\":1286:1327  require(msg.value >= minimumContribution) */\n      tag_96\n      jumpi\n      0x00\n      dup1\n      revert\n    tag_96:\n        /* \"Campaign.sol\":1404:1408  true */\n      0x01\n        /* \"Campaign.sol\":1380:1389  approvers */\n      0x02\n        /* \"Campaign.sol\":1380:1401  approvers[msg.sender] */\n      0x00\n        /* \"Campaign.sol\":1390:1400  msg.sender */\n      caller\n        /* \"Campaign.sol\":1380:1401  approvers[msg.sender] */\n      0xffffffffffffffffffffffffffffffffffffffff\n      and\n      0xffffffffffffffffffffffffffffffffffffffff\n      and\n      dup2\n      mstore\n      0x20\n      add\n      swap1\n      dup2\n      mstore\n      0x20\n      add\n      0x00\n      keccak256\n      0x00\n        /* \"Campaign.sol\":1380:1408  approvers[msg.sender] = true */\n      0x0100\n      exp\n      dup2\n      sload\n      dup2\n      0xff\n      mul\n      not\n      and\n      swap1\n      dup4\n      iszero\n      iszero\n      mul\n      or\n      swap1\n      sstore\n      pop\n        /* \"Campaign.sol\":1419:1433  approversCount */\n      0x04\n      0x00\n        /* \"Campaign.sol\":1419:1435  approversCount++ */\n      dup2\n      sload\n      dup1\n      swap3\n      swap2\n      swap1\n      tag_97\n      swap1\n      tag_92\n      jump\t// in\n    tag_97:\n      swap2\n      swap1\n      pop\n      sstore\n      pop\n        /* \"Campaign.sol\":1238:1443  function contribute() public payable {... */\n      jump\t// out\n        /* \"Campaign.sol\":1859:2137  function approveRequest(uint256 key) public {... */\n    tag_70:\n        /* \"Campaign.sol\":1914:1937  Request storage request */\n      0x00\n        /* \"Campaign.sol\":1940:1948  requests */\n      0x05\n        /* \"Campaign.sol\":1940:1953  requests[key] */\n      0x00\n        /* \"Campaign.sol\":1949:1952  key */\n      dup4\n        /* \"Campaign.sol\":1940:1953  requests[key] */\n      dup2\n      mstore\n      0x20\n      add\n      swap1\n      dup2\n      mstore\n      0x20\n      add\n      0x00\n      keccak256\n        /* \"Campaign.sol\":1914:1953  Request storage request = requests[key] */\n      swap1\n      pop\n        /* \"Campaign.sol\":1974:1983  approvers */\n      0x02\n        /* \"Campaign.sol\":1974:1995  approvers[msg.sender] */\n      0x00\n        /* \"Campaign.sol\":1984:1994  msg.sender */\n      caller\n        /* \"Campaign.sol\":1974:1995  approvers[msg.sender] */\n      0xffffffffffffffffffffffffffffffffffffffff\n      and\n      0xffffffffffffffffffffffffffffffffffffffff\n      and\n      dup2\n      mstore\n      0x20\n      add\n      swap1\n      dup2\n      mstore\n      0x20\n      add\n      0x00\n      keccak256\n      0x00\n      swap1\n      sload\n      swap1\n      0x0100\n      exp\n      swap1\n      div\n      0xff\n      and\n        /* \"Campaign.sol\":1966:1996  require(approvers[msg.sender]) */\n      tag_99\n      jumpi\n      0x00\n      dup1\n      revert\n    tag_99:\n        /* \"Campaign.sol\":2016:2023  request */\n      dup1\n        /* \"Campaign.sol\":2016:2033  request.approvals */\n      0x04\n      add\n        /* \"Campaign.sol\":2016:2045  request.approvals[msg.sender] */\n      0x00\n        /* \"Campaign.sol\":2034:2044  msg.sender */\n      caller\n        /* \"Campaign.sol\":2016:2045  request.approvals[msg.sender] */\n      0xffffffffffffffffffffffffffffffffffffffff\n      and\n      0xffffffffffffffffffffffffffffffffffffffff\n      and\n      dup2\n      mstore\n      0x20\n      add\n      swap1\n      dup2\n      mstore\n      0x20\n      add\n      0x00\n      keccak256\n      0x00\n      swap1\n      sload\n      swap1\n      0x0100\n      exp\n      swap1\n      div\n      0xff\n      and\n        /* \"Campaign.sol\":2015:2045  !request.approvals[msg.sender] */\n      iszero\n        /* \"Campaign.sol\":2007:2046  require(!request.approvals[msg.sender]) */\n      tag_100\n      jumpi\n      0x00\n      dup1\n      revert\n    tag_100:\n        /* \"Campaign.sol\":2091:2095  true */\n      0x01\n        /* \"Campaign.sol\":2059:2066  request */\n      dup2\n        /* \"Campaign.sol\":2059:2076  request.approvals */\n      0x04\n      add\n        /* \"Campaign.sol\":2059:2088  request.approvals[msg.sender] */\n      0x00\n        /* \"Campaign.sol\":2077:2087  msg.sender */\n      caller\n        /* \"Campaign.sol\":2059:2088  request.approvals[msg.sender] */\n      0xffffffffffffffffffffffffffffffffffffffff\n      and\n      0xffffffffffffffffffffffffffffffffffffffff\n      and\n      dup2\n      mstore\n      0x20\n      add\n      swap1\n      dup2\n      mstore\n      0x20\n      add\n      0x00\n      keccak256\n      0x00\n        /* \"Campaign.sol\":2059:2095  request.approvals[msg.sender] = true */\n      0x0100\n      exp\n      dup2\n      sload\n      dup2\n      0xff\n      mul\n      not\n      and\n      swap1\n      dup4\n      iszero\n      iszero\n      mul\n      or\n      swap1\n      sstore\n      pop\n        /* \"Campaign.sol\":2106:2113  request */\n      dup1\n        /* \"Campaign.sol\":2106:2127  request.approvalCount */\n      0x03\n      add\n      0x00\n        /* \"Campaign.sol\":2106:2129  request.approvalCount++ */\n      dup2\n      sload\n      dup1\n      swap3\n      swap2\n      swap1\n      tag_101\n      swap1\n      tag_92\n      jump\t// in\n    tag_101:\n      swap2\n      swap1\n      pop\n      sstore\n      pop\n        /* \"Campaign.sol\":1903:2137  {... */\n      pop\n        /* \"Campaign.sol\":1859:2137  function approveRequest(uint256 key) public {... */\n      pop\n      jump\t// out\n        /* \"#utility.yul\":7:82   */\n    tag_102:\n        /* \"#utility.yul\":40:46   */\n      0x00\n        /* \"#utility.yul\":73:75   */\n      0x40\n        /* \"#utility.yul\":67:76   */\n      mload\n        /* \"#utility.yul\":57:76   */\n      swap1\n      pop\n        /* \"#utility.yul\":7:82   */\n      swap1\n      jump\t// out\n        /* \"#utility.yul\":88:205   */\n    tag_103:\n        /* \"#utility.yul\":197:198   */\n      0x00\n        /* \"#utility.yul\":194:195   */\n      dup1\n        /* \"#utility.yul\":187:199   */\n      revert\n        /* \"#utility.yul\":211:328   */\n    tag_104:\n        /* \"#utility.yul\":320:321   */\n      0x00\n        /* \"#utility.yul\":317:318   */\n      dup1\n        /* \"#utility.yul\":310:322   */\n      revert\n        /* \"#utility.yul\":334:411   */\n    tag_105:\n        /* \"#utility.yul\":371:378   */\n      0x00\n        /* \"#utility.yul\":400:405   */\n      dup2\n        /* \"#utility.yul\":389:405   */\n      swap1\n      pop\n        /* \"#utility.yul\":334:411   */\n      swap2\n      swap1\n      pop\n      jump\t// out\n        /* \"#utility.yul\":417:539   */\n    tag_106:\n        /* \"#utility.yul\":490:514   */\n      tag_156\n        /* \"#utility.yul\":508:513   */\n      dup2\n        /* \"#utility.yul\":490:514   */\n      tag_105\n      jump\t// in\n    tag_156:\n        /* \"#utility.yul\":483:488   */\n      dup2\n        /* \"#utility.yul\":480:515   */\n      eq\n        /* \"#utility.yul\":470:533   */\n      tag_157\n      jumpi\n        /* \"#utility.yul\":529:530   */\n      0x00\n        /* \"#utility.yul\":526:527   */\n      dup1\n        /* \"#utility.yul\":519:531   */\n      revert\n        /* \"#utility.yul\":470:533   */\n    tag_157:\n        /* \"#utility.yul\":417:539   */\n      pop\n      jump\t// out\n        /* \"#utility.yul\":545:684   */\n    tag_107:\n        /* \"#utility.yul\":591:596   */\n      0x00\n        /* \"#utility.yul\":629:635   */\n      dup2\n        /* \"#utility.yul\":616:636   */\n      calldataload\n        /* \"#utility.yul\":607:636   */\n      swap1\n      pop\n        /* \"#utility.yul\":645:678   */\n      tag_159\n        /* \"#utility.yul\":672:677   */\n      dup2\n        /* \"#utility.yul\":645:678   */\n      tag_106\n      jump\t// in\n    tag_159:\n        /* \"#utility.yul\":545:684   */\n      swap3\n      swap2\n      pop\n      pop\n      jump\t// out\n        /* \"#utility.yul\":690:1019   */\n    tag_18:\n        /* \"#utility.yul\":749:755   */\n      0x00\n        /* \"#utility.yul\":798:800   */\n      0x20\n        /* \"#utility.yul\":786:795   */\n      dup3\n        /* \"#utility.yul\":777:784   */\n      dup5\n        /* \"#utility.yul\":773:796   */\n      sub\n        /* \"#utility.yul\":769:801   */\n      slt\n        /* \"#utility.yul\":766:885   */\n      iszero\n      tag_161\n      jumpi\n        /* \"#utility.yul\":804:883   */\n      tag_162\n      tag_103\n      jump\t// in\n    tag_162:\n        /* \"#utility.yul\":766:885   */\n    tag_161:\n        /* \"#utility.yul\":924:925   */\n      0x00\n        /* \"#utility.yul\":949:1002   */\n      tag_163\n        /* \"#utility.yul\":994:1001   */\n      dup5\n        /* \"#utility.yul\":985:991   */\n      dup3\n        /* \"#utility.yul\":974:983   */\n      dup6\n        /* \"#utility.yul\":970:992   */\n      add\n        /* \"#utility.yul\":949:1002   */\n      tag_107\n      jump\t// in\n    tag_163:\n        /* \"#utility.yul\":939:1002   */\n      swap2\n      pop\n        /* \"#utility.yul\":895:1012   */\n      pop\n        /* \"#utility.yul\":690:1019   */\n      swap3\n      swap2\n      pop\n      pop\n      jump\t// out\n        /* \"#utility.yul\":1025:1151   */\n    tag_108:\n        /* \"#utility.yul\":1062:1069   */\n      0x00\n        /* \"#utility.yul\":1102:1144   */\n      0xffffffffffffffffffffffffffffffffffffffff\n        /* \"#utility.yul\":1095:1100   */\n      dup3\n        /* \"#utility.yul\":1091:1145   */\n      and\n        /* \"#utility.yul\":1080:1145   */\n      swap1\n      pop\n        /* \"#utility.yul\":1025:1151   */\n      swap2\n      swap1\n      pop\n      jump\t// out\n        /* \"#utility.yul\":1157:1253   */\n    tag_109:\n        /* \"#utility.yul\":1194:1201   */\n      0x00\n        /* \"#utility.yul\":1223:1247   */\n      tag_166\n        /* \"#utility.yul\":1241:1246   */\n      dup3\n        /* \"#utility.yul\":1223:1247   */\n      tag_108\n      jump\t// in\n    tag_166:\n        /* \"#utility.yul\":1212:1247   */\n      swap1\n      pop\n        /* \"#utility.yul\":1157:1253   */\n      swap2\n      swap1\n      pop\n      jump\t// out\n        /* \"#utility.yul\":1259:1381   */\n    tag_110:\n        /* \"#utility.yul\":1332:1356   */\n      tag_168\n        /* \"#utility.yul\":1350:1355   */\n      dup2\n        /* \"#utility.yul\":1332:1356   */\n      tag_109\n      jump\t// in\n    tag_168:\n        /* \"#utility.yul\":1325:1330   */\n      dup2\n        /* \"#utility.yul\":1322:1357   */\n      eq\n        /* \"#utility.yul\":1312:1375   */\n      tag_169\n      jumpi\n        /* \"#utility.yul\":1371:1372   */\n      0x00\n        /* \"#utility.yul\":1368:1369   */\n      dup1\n        /* \"#utility.yul\":1361:1373   */\n      revert\n        /* \"#utility.yul\":1312:1375   */\n    tag_169:\n        /* \"#utility.yul\":1259:1381   */\n      pop\n      jump\t// out\n        /* \"#utility.yul\":1387:1526   */\n    tag_111:\n        /* \"#utility.yul\":1433:1438   */\n      0x00\n        /* \"#utility.yul\":1471:1477   */\n      dup2\n        /* \"#utility.yul\":1458:1478   */\n      calldataload\n        /* \"#utility.yul\":1449:1478   */\n      swap1\n      pop\n        /* \"#utility.yul\":1487:1520   */\n      tag_171\n        /* \"#utility.yul\":1514:1519   */\n      dup2\n        /* \"#utility.yul\":1487:1520   */\n      tag_110\n      jump\t// in\n    tag_171:\n        /* \"#utility.yul\":1387:1526   */\n      swap3\n      swap2\n      pop\n      pop\n      jump\t// out\n        /* \"#utility.yul\":1532:1861   */\n    tag_23:\n        /* \"#utility.yul\":1591:1597   */\n      0x00\n        /* \"#utility.yul\":1640:1642   */\n      0x20\n        /* \"#utility.yul\":1628:1637   */\n      dup3\n        /* \"#utility.yul\":1619:1626   */\n      dup5\n        /* \"#utility.yul\":1615:1638   */\n      sub\n        /* \"#utility.yul\":1611:1643   */\n      slt\n        /* \"#utility.yul\":1608:1727   */\n      iszero\n      tag_173\n      jumpi\n        /* \"#utility.yul\":1646:1725   */\n      tag_174\n      tag_103\n      jump\t// in\n    tag_174:\n        /* \"#utility.yul\":1608:1727   */\n    tag_173:\n        /* \"#utility.yul\":1766:1767   */\n      0x00\n        /* \"#utility.yul\":1791:1844   */\n      tag_175\n        /* \"#utility.yul\":1836:1843   */\n      dup5\n        /* \"#utility.yul\":1827:1833   */\n      dup3\n        /* \"#utility.yul\":1816:1825   */\n      dup6\n        /* \"#utility.yul\":1812:1834   */\n      add\n        /* \"#utility.yul\":1791:1844   */\n      tag_111\n      jump\t// in\n    tag_175:\n        /* \"#utility.yul\":1781:1844   */\n      swap2\n      pop\n        /* \"#utility.yul\":1737:1854   */\n      pop\n        /* \"#utility.yul\":1532:1861   */\n      swap3\n      swap2\n      pop\n      pop\n      jump\t// out\n        /* \"#utility.yul\":1867:1957   */\n    tag_112:\n        /* \"#utility.yul\":1901:1908   */\n      0x00\n        /* \"#utility.yul\":1944:1949   */\n      dup2\n        /* \"#utility.yul\":1937:1950   */\n      iszero\n        /* \"#utility.yul\":1930:1951   */\n      iszero\n        /* \"#utility.yul\":1919:1951   */\n      swap1\n      pop\n        /* \"#utility.yul\":1867:1957   */\n      swap2\n      swap1\n      pop\n      jump\t// out\n        /* \"#utility.yul\":1963:2072   */\n    tag_113:\n        /* \"#utility.yul\":2044:2065   */\n      tag_178\n        /* \"#utility.yul\":2059:2064   */\n      dup2\n        /* \"#utility.yul\":2044:2065   */\n      tag_112\n      jump\t// in\n    tag_178:\n        /* \"#utility.yul\":2039:2042   */\n      dup3\n        /* \"#utility.yul\":2032:2066   */\n      mstore\n        /* \"#utility.yul\":1963:2072   */\n      pop\n      pop\n      jump\t// out\n        /* \"#utility.yul\":2078:2288   */\n    tag_26:\n        /* \"#utility.yul\":2165:2169   */\n      0x00\n        /* \"#utility.yul\":2203:2205   */\n      0x20\n        /* \"#utility.yul\":2192:2201   */\n      dup3\n        /* \"#utility.yul\":2188:2206   */\n      add\n        /* \"#utility.yul\":2180:2206   */\n      swap1\n      pop\n        /* \"#utility.yul\":2216:2281   */\n      tag_180\n        /* \"#utility.yul\":2278:2279   */\n      0x00\n        /* \"#utility.yul\":2267:2276   */\n      dup4\n        /* \"#utility.yul\":2263:2280   */\n      add\n        /* \"#utility.yul\":2254:2260   */\n      dup5\n        /* \"#utility.yul\":2216:2281   */\n      tag_113\n      jump\t// in\n    tag_180:\n        /* \"#utility.yul\":2078:2288   */\n      swap3\n      swap2\n      pop\n      pop\n      jump\t// out\n        /* \"#utility.yul\":2294:2412   */\n    tag_114:\n        /* \"#utility.yul\":2381:2405   */\n      tag_182\n        /* \"#utility.yul\":2399:2404   */\n      dup2\n        /* \"#utility.yul\":2381:2405   */\n      tag_105\n      jump\t// in\n    tag_182:\n        /* \"#utility.yul\":2376:2379   */\n      dup3\n        /* \"#utility.yul\":2369:2406   */\n      mstore\n        /* \"#utility.yul\":2294:2412   */\n      pop\n      pop\n      jump\t// out\n        /* \"#utility.yul\":2418:2640   */\n    tag_31:\n        /* \"#utility.yul\":2511:2515   */\n      0x00\n        /* \"#utility.yul\":2549:2551   */\n      0x20\n        /* \"#utility.yul\":2538:2547   */\n      dup3\n        /* \"#utility.yul\":2534:2552   */\n      add\n        /* \"#utility.yul\":2526:2552   */\n      swap1\n      pop\n        /* \"#utility.yul\":2562:2633   */\n      tag_184\n        /* \"#utility.yul\":2630:2631   */\n      0x00\n        /* \"#utility.yul\":2619:2628   */\n      dup4\n        /* \"#utility.yul\":2615:2632   */\n      add\n        /* \"#utility.yul\":2606:2612   */\n      dup5\n        /* \"#utility.yul\":2562:2633   */\n      tag_114\n      jump\t// in\n    tag_184:\n        /* \"#utility.yul\":2418:2640   */\n      swap3\n      swap2\n      pop\n      pop\n      jump\t// out\n        /* \"#utility.yul\":2646:2764   */\n    tag_115:\n        /* \"#utility.yul\":2733:2757   */\n      tag_186\n        /* \"#utility.yul\":2751:2756   */\n      dup2\n        /* \"#utility.yul\":2733:2757   */\n      tag_109\n      jump\t// in\n    tag_186:\n        /* \"#utility.yul\":2728:2731   */\n      dup3\n        /* \"#utility.yul\":2721:2758   */\n      mstore\n        /* \"#utility.yul\":2646:2764   */\n      pop\n      pop\n      jump\t// out\n        /* \"#utility.yul\":2770:3434   */\n    tag_36:\n        /* \"#utility.yul\":2975:2979   */\n      0x00\n        /* \"#utility.yul\":3013:3016   */\n      0xa0\n        /* \"#utility.yul\":3002:3011   */\n      dup3\n        /* \"#utility.yul\":2998:3017   */\n      add\n        /* \"#utility.yul\":2990:3017   */\n      swap1\n      pop\n        /* \"#utility.yul\":3027:3098   */\n      tag_188\n        /* \"#utility.yul\":3095:3096   */\n      0x00\n        /* \"#utility.yul\":3084:3093   */\n      dup4\n        /* \"#utility.yul\":3080:3097   */\n      add\n        /* \"#utility.yul\":3071:3077   */\n      dup9\n        /* \"#utility.yul\":3027:3098   */\n      tag_114\n      jump\t// in\n    tag_188:\n        /* \"#utility.yul\":3108:3180   */\n      tag_189\n        /* \"#utility.yul\":3176:3178   */\n      0x20\n        /* \"#utility.yul\":3165:3174   */\n      dup4\n        /* \"#utility.yul\":3161:3179   */\n      add\n        /* \"#utility.yul\":3152:3158   */\n      dup8\n        /* \"#utility.yul\":3108:3180   */\n      tag_114\n      jump\t// in\n    tag_189:\n        /* \"#utility.yul\":3190:3262   */\n      tag_190\n        /* \"#utility.yul\":3258:3260   */\n      0x40\n        /* \"#utility.yul\":3247:3256   */\n      dup4\n        /* \"#utility.yul\":3243:3261   */\n      add\n        /* \"#utility.yul\":3234:3240   */\n      dup7\n        /* \"#utility.yul\":3190:3262   */\n      tag_114\n      jump\t// in\n    tag_190:\n        /* \"#utility.yul\":3272:3344   */\n      tag_191\n        /* \"#utility.yul\":3340:3342   */\n      0x60\n        /* \"#utility.yul\":3329:3338   */\n      dup4\n        /* \"#utility.yul\":3325:3343   */\n      add\n        /* \"#utility.yul\":3316:3322   */\n      dup6\n        /* \"#utility.yul\":3272:3344   */\n      tag_114\n      jump\t// in\n    tag_191:\n        /* \"#utility.yul\":3354:3427   */\n      tag_192\n        /* \"#utility.yul\":3422:3425   */\n      0x80\n        /* \"#utility.yul\":3411:3420   */\n      dup4\n        /* \"#utility.yul\":3407:3426   */\n      add\n        /* \"#utility.yul\":3398:3404   */\n      dup5\n        /* \"#utility.yul\":3354:3427   */\n      tag_115\n      jump\t// in\n    tag_192:\n        /* \"#utility.yul\":2770:3434   */\n      swap7\n      swap6\n      pop\n      pop\n      pop\n      pop\n      pop\n      pop\n      jump\t// out\n        /* \"#utility.yul\":3440:3662   */\n    tag_41:\n        /* \"#utility.yul\":3533:3537   */\n      0x00\n        /* \"#utility.yul\":3571:3573   */\n      0x20\n        /* \"#utility.yul\":3560:3569   */\n      dup3\n        /* \"#utility.yul\":3556:3574   */\n      add\n        /* \"#utility.yul\":3548:3574   */\n      swap1\n      pop\n        /* \"#utility.yul\":3584:3655   */\n      tag_194\n        /* \"#utility.yul\":3652:3653   */\n      0x00\n        /* \"#utility.yul\":3641:3650   */\n      dup4\n        /* \"#utility.yul\":3637:3654   */\n      add\n        /* \"#utility.yul\":3628:3634   */\n      dup5\n        /* \"#utility.yul\":3584:3655   */\n      tag_115\n      jump\t// in\n    tag_194:\n        /* \"#utility.yul\":3440:3662   */\n      swap3\n      swap2\n      pop\n      pop\n      jump\t// out\n        /* \"#utility.yul\":3668:3767   */\n    tag_116:\n        /* \"#utility.yul\":3720:3726   */\n      0x00\n        /* \"#utility.yul\":3754:3759   */\n      dup2\n        /* \"#utility.yul\":3748:3760   */\n      mload\n        /* \"#utility.yul\":3738:3760   */\n      swap1\n      pop\n        /* \"#utility.yul\":3668:3767   */\n      swap2\n      swap1\n      pop\n      jump\t// out\n        /* \"#utility.yul\":3773:3942   */\n    tag_117:\n        /* \"#utility.yul\":3857:3868   */\n      0x00\n        /* \"#utility.yul\":3891:3897   */\n      dup3\n        /* \"#utility.yul\":3886:3889   */\n      dup3\n        /* \"#utility.yul\":3879:3898   */\n      mstore\n        /* \"#utility.yul\":3931:3935   */\n      0x20\n        /* \"#utility.yul\":3926:3929   */\n      dup3\n        /* \"#utility.yul\":3922:3936   */\n      add\n        /* \"#utility.yul\":3907:3936   */\n      swap1\n      pop\n        /* \"#utility.yul\":3773:3942   */\n      swap3\n      swap2\n      pop\n      pop\n      jump\t// out\n        /* \"#utility.yul\":3948:4194   */\n    tag_118:\n        /* \"#utility.yul\":4029:4030   */\n      0x00\n        /* \"#utility.yul\":4039:4152   */\n    tag_198:\n        /* \"#utility.yul\":4053:4059   */\n      dup4\n        /* \"#utility.yul\":4050:4051   */\n      dup2\n        /* \"#utility.yul\":4047:4060   */\n      lt\n        /* \"#utility.yul\":4039:4152   */\n      iszero\n      tag_200\n      jumpi\n        /* \"#utility.yul\":4138:4139   */\n      dup1\n        /* \"#utility.yul\":4133:4136   */\n      dup3\n        /* \"#utility.yul\":4129:4140   */\n      add\n        /* \"#utility.yul\":4123:4141   */\n      mload\n        /* \"#utility.yul\":4119:4120   */\n      dup2\n        /* \"#utility.yul\":4114:4117   */\n      dup5\n        /* \"#utility.yul\":4110:4121   */\n      add\n        /* \"#utility.yul\":4103:4142   */\n      mstore\n        /* \"#utility.yul\":4075:4077   */\n      0x20\n        /* \"#utility.yul\":4072:4073   */\n      dup2\n        /* \"#utility.yul\":4068:4078   */\n      add\n        /* \"#utility.yul\":4063:4078   */\n      swap1\n      pop\n        /* \"#utility.yul\":4039:4152   */\n      jump(tag_198)\n    tag_200:\n        /* \"#utility.yul\":4186:4187   */\n      0x00\n        /* \"#utility.yul\":4177:4183   */\n      dup5\n        /* \"#utility.yul\":4172:4175   */\n      dup5\n        /* \"#utility.yul\":4168:4184   */\n      add\n        /* \"#utility.yul\":4161:4188   */\n      mstore\n        /* \"#utility.yul\":4010:4194   */\n      pop\n        /* \"#utility.yul\":3948:4194   */\n      pop\n      pop\n      pop\n      jump\t// out\n        /* \"#utility.yul\":4200:4302   */\n    tag_119:\n        /* \"#utility.yul\":4241:4247   */\n      0x00\n        /* \"#utility.yul\":4292:4294   */\n      0x1f\n        /* \"#utility.yul\":4288:4295   */\n      not\n        /* \"#utility.yul\":4283:4285   */\n      0x1f\n        /* \"#utility.yul\":4276:4281   */\n      dup4\n        /* \"#utility.yul\":4272:4286   */\n      add\n        /* \"#utility.yul\":4268:4296   */\n      and\n        /* \"#utility.yul\":4258:4296   */\n      swap1\n      pop\n        /* \"#utility.yul\":4200:4302   */\n      swap2\n      swap1\n      pop\n      jump\t// out\n        /* \"#utility.yul\":4308:4685   */\n    tag_120:\n        /* \"#utility.yul\":4396:4399   */\n      0x00\n        /* \"#utility.yul\":4424:4463   */\n      tag_203\n        /* \"#utility.yul\":4457:4462   */\n      dup3\n        /* \"#utility.yul\":4424:4463   */\n      tag_116\n      jump\t// in\n    tag_203:\n        /* \"#utility.yul\":4479:4550   */\n      tag_204\n        /* \"#utility.yul\":4543:4549   */\n      dup2\n        /* \"#utility.yul\":4538:4541   */\n      dup6\n        /* \"#utility.yul\":4479:4550   */\n      tag_117\n      jump\t// in\n    tag_204:\n        /* \"#utility.yul\":4472:4550   */\n      swap4\n      pop\n        /* \"#utility.yul\":4559:4624   */\n      tag_205\n        /* \"#utility.yul\":4617:4623   */\n      dup2\n        /* \"#utility.yul\":4612:4615   */\n      dup6\n        /* \"#utility.yul\":4605:4609   */\n      0x20\n        /* \"#utility.yul\":4598:4603   */\n      dup7\n        /* \"#utility.yul\":4594:4610   */\n      add\n        /* \"#utility.yul\":4559:4624   */\n      tag_118\n      jump\t// in\n    tag_205:\n        /* \"#utility.yul\":4649:4678   */\n      tag_206\n        /* \"#utility.yul\":4671:4677   */\n      dup2\n        /* \"#utility.yul\":4649:4678   */\n      tag_119\n      jump\t// in\n    tag_206:\n        /* \"#utility.yul\":4644:4647   */\n      dup5\n        /* \"#utility.yul\":4640:4679   */\n      add\n        /* \"#utility.yul\":4633:4679   */\n      swap2\n      pop\n        /* \"#utility.yul\":4400:4685   */\n      pop\n        /* \"#utility.yul\":4308:4685   */\n      swap3\n      swap2\n      pop\n      pop\n      jump\t// out\n        /* \"#utility.yul\":4691:4795   */\n    tag_121:\n        /* \"#utility.yul\":4736:4743   */\n      0x00\n        /* \"#utility.yul\":4765:4789   */\n      tag_208\n        /* \"#utility.yul\":4783:4788   */\n      dup3\n        /* \"#utility.yul\":4765:4789   */\n      tag_108\n      jump\t// in\n    tag_208:\n        /* \"#utility.yul\":4754:4789   */\n      swap1\n      pop\n        /* \"#utility.yul\":4691:4795   */\n      swap2\n      swap1\n      pop\n      jump\t// out\n        /* \"#utility.yul\":4801:4943   */\n    tag_122:\n        /* \"#utility.yul\":4904:4936   */\n      tag_210\n        /* \"#utility.yul\":4930:4935   */\n      dup2\n        /* \"#utility.yul\":4904:4936   */\n      tag_121\n      jump\t// in\n    tag_210:\n        /* \"#utility.yul\":4899:4902   */\n      dup3\n        /* \"#utility.yul\":4892:4937   */\n      mstore\n        /* \"#utility.yul\":4801:4943   */\n      pop\n      pop\n      jump\t// out\n        /* \"#utility.yul\":4949:5724   */\n    tag_47:\n        /* \"#utility.yul\":5184:5188   */\n      0x00\n        /* \"#utility.yul\":5222:5225   */\n      0xa0\n        /* \"#utility.yul\":5211:5220   */\n      dup3\n        /* \"#utility.yul\":5207:5226   */\n      add\n        /* \"#utility.yul\":5199:5226   */\n      swap1\n      pop\n        /* \"#utility.yul\":5272:5281   */\n      dup2\n        /* \"#utility.yul\":5266:5270   */\n      dup2\n        /* \"#utility.yul\":5262:5282   */\n      sub\n        /* \"#utility.yul\":5258:5259   */\n      0x00\n        /* \"#utility.yul\":5247:5256   */\n      dup4\n        /* \"#utility.yul\":5243:5260   */\n      add\n        /* \"#utility.yul\":5236:5283   */\n      mstore\n        /* \"#utility.yul\":5300:5378   */\n      tag_212\n        /* \"#utility.yul\":5373:5377   */\n      dup2\n        /* \"#utility.yul\":5364:5370   */\n      dup9\n        /* \"#utility.yul\":5300:5378   */\n      tag_120\n      jump\t// in\n    tag_212:\n        /* \"#utility.yul\":5292:5378   */\n      swap1\n      pop\n        /* \"#utility.yul\":5388:5460   */\n      tag_213\n        /* \"#utility.yul\":5456:5458   */\n      0x20\n        /* \"#utility.yul\":5445:5454   */\n      dup4\n        /* \"#utility.yul\":5441:5459   */\n      add\n        /* \"#utility.yul\":5432:5438   */\n      dup8\n        /* \"#utility.yul\":5388:5460   */\n      tag_114\n      jump\t// in\n    tag_213:\n        /* \"#utility.yul\":5470:5558   */\n      tag_214\n        /* \"#utility.yul\":5554:5556   */\n      0x40\n        /* \"#utility.yul\":5543:5552   */\n      dup4\n        /* \"#utility.yul\":5539:5557   */\n      add\n        /* \"#utility.yul\":5530:5536   */\n      dup7\n        /* \"#utility.yul\":5470:5558   */\n      tag_122\n      jump\t// in\n    tag_214:\n        /* \"#utility.yul\":5568:5634   */\n      tag_215\n        /* \"#utility.yul\":5630:5632   */\n      0x60\n        /* \"#utility.yul\":5619:5628   */\n      dup4\n        /* \"#utility.yul\":5615:5633   */\n      add\n        /* \"#utility.yul\":5606:5612   */\n      dup6\n        /* \"#utility.yul\":5568:5634   */\n      tag_113\n      jump\t// in\n    tag_215:\n        /* \"#utility.yul\":5644:5717   */\n      tag_216\n        /* \"#utility.yul\":5712:5715   */\n      0x80\n        /* \"#utility.yul\":5701:5710   */\n      dup4\n        /* \"#utility.yul\":5697:5716   */\n      add\n        /* \"#utility.yul\":5688:5694   */\n      dup5\n        /* \"#utility.yul\":5644:5717   */\n      tag_114\n      jump\t// in\n    tag_216:\n        /* \"#utility.yul\":4949:5724   */\n      swap7\n      swap6\n      pop\n      pop\n      pop\n      pop\n      pop\n      pop\n      jump\t// out\n        /* \"#utility.yul\":5730:5847   */\n    tag_123:\n        /* \"#utility.yul\":5839:5840   */\n      0x00\n        /* \"#utility.yul\":5836:5837   */\n      dup1\n        /* \"#utility.yul\":5829:5841   */\n      revert\n        /* \"#utility.yul\":5853:5970   */\n    tag_124:\n        /* \"#utility.yul\":5962:5963   */\n      0x00\n        /* \"#utility.yul\":5959:5960   */\n      dup1\n        /* \"#utility.yul\":5952:5964   */\n      revert\n        /* \"#utility.yul\":5976:6156   */\n    tag_125:\n        /* \"#utility.yul\":6024:6101   */\n      0x4e487b7100000000000000000000000000000000000000000000000000000000\n        /* \"#utility.yul\":6021:6022   */\n      0x00\n        /* \"#utility.yul\":6014:6102   */\n      mstore\n        /* \"#utility.yul\":6121:6125   */\n      0x41\n        /* \"#utility.yul\":6118:6119   */\n      0x04\n        /* \"#utility.yul\":6111:6126   */\n      mstore\n        /* \"#utility.yul\":6145:6149   */\n      0x24\n        /* \"#utility.yul\":6142:6143   */\n      0x00\n        /* \"#utility.yul\":6135:6150   */\n      revert\n        /* \"#utility.yul\":6162:6443   */\n    tag_126:\n        /* \"#utility.yul\":6245:6272   */\n      tag_221\n        /* \"#utility.yul\":6267:6271   */\n      dup3\n        /* \"#utility.yul\":6245:6272   */\n      tag_119\n      jump\t// in\n    tag_221:\n        /* \"#utility.yul\":6237:6243   */\n      dup2\n        /* \"#utility.yul\":6233:6273   */\n      add\n        /* \"#utility.yul\":6375:6381   */\n      dup2\n        /* \"#utility.yul\":6363:6373   */\n      dup2\n        /* \"#utility.yul\":6360:6382   */\n      lt\n        /* \"#utility.yul\":6339:6357   */\n      0xffffffffffffffff\n        /* \"#utility.yul\":6327:6337   */\n      dup3\n        /* \"#utility.yul\":6324:6358   */\n      gt\n        /* \"#utility.yul\":6321:6383   */\n      or\n        /* \"#utility.yul\":6318:6406   */\n      iszero\n      tag_222\n      jumpi\n        /* \"#utility.yul\":6386:6404   */\n      tag_223\n      tag_125\n      jump\t// in\n    tag_223:\n        /* \"#utility.yul\":6318:6406   */\n    tag_222:\n        /* \"#utility.yul\":6426:6436   */\n      dup1\n        /* \"#utility.yul\":6422:6424   */\n      0x40\n        /* \"#utility.yul\":6415:6437   */\n      mstore\n        /* \"#utility.yul\":6205:6443   */\n      pop\n        /* \"#utility.yul\":6162:6443   */\n      pop\n      pop\n      jump\t// out\n        /* \"#utility.yul\":6449:6578   */\n    tag_127:\n        /* \"#utility.yul\":6483:6489   */\n      0x00\n        /* \"#utility.yul\":6510:6530   */\n      tag_225\n      tag_102\n      jump\t// in\n    tag_225:\n        /* \"#utility.yul\":6500:6530   */\n      swap1\n      pop\n        /* \"#utility.yul\":6539:6572   */\n      tag_226\n        /* \"#utility.yul\":6567:6571   */\n      dup3\n        /* \"#utility.yul\":6559:6565   */\n      dup3\n        /* \"#utility.yul\":6539:6572   */\n      tag_126\n      jump\t// in\n    tag_226:\n        /* \"#utility.yul\":6449:6578   */\n      swap2\n      swap1\n      pop\n      jump\t// out\n        /* \"#utility.yul\":6584:6892   */\n    tag_128:\n        /* \"#utility.yul\":6646:6650   */\n      0x00\n        /* \"#utility.yul\":6736:6754   */\n      0xffffffffffffffff\n        /* \"#utility.yul\":6728:6734   */\n      dup3\n        /* \"#utility.yul\":6725:6755   */\n      gt\n        /* \"#utility.yul\":6722:6778   */\n      iszero\n      tag_228\n      jumpi\n        /* \"#utility.yul\":6758:6776   */\n      tag_229\n      tag_125\n      jump\t// in\n    tag_229:\n        /* \"#utility.yul\":6722:6778   */\n    tag_228:\n        /* \"#utility.yul\":6796:6825   */\n      tag_230\n        /* \"#utility.yul\":6818:6824   */\n      dup3\n        /* \"#utility.yul\":6796:6825   */\n      tag_119\n      jump\t// in\n    tag_230:\n        /* \"#utility.yul\":6788:6825   */\n      swap1\n      pop\n        /* \"#utility.yul\":6880:6884   */\n      0x20\n        /* \"#utility.yul\":6874:6878   */\n      dup2\n        /* \"#utility.yul\":6870:6885   */\n      add\n        /* \"#utility.yul\":6862:6885   */\n      swap1\n      pop\n        /* \"#utility.yul\":6584:6892   */\n      swap2\n      swap1\n      pop\n      jump\t// out\n        /* \"#utility.yul\":6898:7044   */\n    tag_129:\n        /* \"#utility.yul\":6995:7001   */\n      dup3\n        /* \"#utility.yul\":6990:6993   */\n      dup2\n        /* \"#utility.yul\":6985:6988   */\n      dup4\n        /* \"#utility.yul\":6972:7002   */\n      calldatacopy\n        /* \"#utility.yul\":7036:7037   */\n      0x00\n        /* \"#utility.yul\":7027:7033   */\n      dup4\n        /* \"#utility.yul\":7022:7025   */\n      dup4\n        /* \"#utility.yul\":7018:7034   */\n      add\n        /* \"#utility.yul\":7011:7038   */\n      mstore\n        /* \"#utility.yul\":6898:7044   */\n      pop\n      pop\n      pop\n      jump\t// out\n        /* \"#utility.yul\":7050:7475   */\n    tag_130:\n        /* \"#utility.yul\":7128:7133   */\n      0x00\n        /* \"#utility.yul\":7153:7219   */\n      tag_233\n        /* \"#utility.yul\":7169:7218   */\n      tag_234\n        /* \"#utility.yul\":7211:7217   */\n      dup5\n        /* \"#utility.yul\":7169:7218   */\n      tag_128\n      jump\t// in\n    tag_234:\n        /* \"#utility.yul\":7153:7219   */\n      tag_127\n      jump\t// in\n    tag_233:\n        /* \"#utility.yul\":7144:7219   */\n      swap1\n      pop\n        /* \"#utility.yul\":7242:7248   */\n      dup3\n        /* \"#utility.yul\":7235:7240   */\n      dup2\n        /* \"#utility.yul\":7228:7249   */\n      mstore\n        /* \"#utility.yul\":7280:7284   */\n      0x20\n        /* \"#utility.yul\":7273:7278   */\n      dup2\n        /* \"#utility.yul\":7269:7285   */\n      add\n        /* \"#utility.yul\":7318:7321   */\n      dup5\n        /* \"#utility.yul\":7309:7315   */\n      dup5\n        /* \"#utility.yul\":7304:7307   */\n      dup5\n        /* \"#utility.yul\":7300:7316   */\n      add\n        /* \"#utility.yul\":7297:7322   */\n      gt\n        /* \"#utility.yul\":7294:7406   */\n      iszero\n      tag_235\n      jumpi\n        /* \"#utility.yul\":7325:7404   */\n      tag_236\n      tag_124\n      jump\t// in\n    tag_236:\n        /* \"#utility.yul\":7294:7406   */\n    tag_235:\n        /* \"#utility.yul\":7415:7469   */\n      tag_237\n        /* \"#utility.yul\":7462:7468   */\n      dup5\n        /* \"#utility.yul\":7457:7460   */\n      dup3\n        /* \"#utility.yul\":7452:7455   */\n      dup6\n        /* \"#utility.yul\":7415:7469   */\n      tag_129\n      jump\t// in\n    tag_237:\n        /* \"#utility.yul\":7134:7475   */\n      pop\n        /* \"#utility.yul\":7050:7475   */\n      swap4\n      swap3\n      pop\n      pop\n      pop\n      jump\t// out\n        /* \"#utility.yul\":7495:7835   */\n    tag_131:\n        /* \"#utility.yul\":7551:7556   */\n      0x00\n        /* \"#utility.yul\":7600:7603   */\n      dup3\n        /* \"#utility.yul\":7593:7597   */\n      0x1f\n        /* \"#utility.yul\":7585:7591   */\n      dup4\n        /* \"#utility.yul\":7581:7598   */\n      add\n        /* \"#utility.yul\":7577:7604   */\n      slt\n        /* \"#utility.yul\":7567:7689   */\n      tag_239\n      jumpi\n        /* \"#utility.yul\":7608:7687   */\n      tag_240\n      tag_123\n      jump\t// in\n    tag_240:\n        /* \"#utility.yul\":7567:7689   */\n    tag_239:\n        /* \"#utility.yul\":7725:7731   */\n      dup2\n        /* \"#utility.yul\":7712:7732   */\n      calldataload\n        /* \"#utility.yul\":7750:7829   */\n      tag_241\n        /* \"#utility.yul\":7825:7828   */\n      dup5\n        /* \"#utility.yul\":7817:7823   */\n      dup3\n        /* \"#utility.yul\":7810:7814   */\n      0x20\n        /* \"#utility.yul\":7802:7808   */\n      dup7\n        /* \"#utility.yul\":7798:7815   */\n      add\n        /* \"#utility.yul\":7750:7829   */\n      tag_130\n      jump\t// in\n    tag_241:\n        /* \"#utility.yul\":7741:7829   */\n      swap2\n      pop\n        /* \"#utility.yul\":7557:7835   */\n      pop\n        /* \"#utility.yul\":7495:7835   */\n      swap3\n      swap2\n      pop\n      pop\n      jump\t// out\n        /* \"#utility.yul\":7841:8640   */\n    tag_55:\n        /* \"#utility.yul\":7928:7934   */\n      0x00\n        /* \"#utility.yul\":7936:7942   */\n      dup1\n        /* \"#utility.yul\":7944:7950   */\n      0x00\n        /* \"#utility.yul\":7993:7995   */\n      0x60\n        /* \"#utility.yul\":7981:7990   */\n      dup5\n        /* \"#utility.yul\":7972:7979   */\n      dup7\n        /* \"#utility.yul\":7968:7991   */\n      sub\n        /* \"#utility.yul\":7964:7996   */\n      slt\n        /* \"#utility.yul\":7961:8080   */\n      iszero\n      tag_243\n      jumpi\n        /* \"#utility.yul\":7999:8078   */\n      tag_244\n      tag_103\n      jump\t// in\n    tag_244:\n        /* \"#utility.yul\":7961:8080   */\n    tag_243:\n        /* \"#utility.yul\":8147:8148   */\n      0x00\n        /* \"#utility.yul\":8136:8145   */\n      dup5\n        /* \"#utility.yul\":8132:8149   */\n      add\n        /* \"#utility.yul\":8119:8150   */\n      calldataload\n        /* \"#utility.yul\":8177:8195   */\n      0xffffffffffffffff\n        /* \"#utility.yul\":8169:8175   */\n      dup2\n        /* \"#utility.yul\":8166:8196   */\n      gt\n        /* \"#utility.yul\":8163:8280   */\n      iszero\n      tag_245\n      jumpi\n        /* \"#utility.yul\":8199:8278   */\n      tag_246\n      tag_104\n      jump\t// in\n    tag_246:\n        /* \"#utility.yul\":8163:8280   */\n    tag_245:\n        /* \"#utility.yul\":8304:8367   */\n      tag_247\n        /* \"#utility.yul\":8359:8366   */\n      dup7\n        /* \"#utility.yul\":8350:8356   */\n      dup3\n        /* \"#utility.yul\":8339:8348   */\n      dup8\n        /* \"#utility.yul\":8335:8357   */\n      add\n        /* \"#utility.yul\":8304:8367   */\n      tag_131\n      jump\t// in\n    tag_247:\n        /* \"#utility.yul\":8294:8367   */\n      swap4\n      pop\n        /* \"#utility.yul\":8090:8377   */\n      pop\n        /* \"#utility.yul\":8416:8418   */\n      0x20\n        /* \"#utility.yul\":8442:8495   */\n      tag_248\n        /* \"#utility.yul\":8487:8494   */\n      dup7\n        /* \"#utility.yul\":8478:8484   */\n      dup3\n        /* \"#utility.yul\":8467:8476   */\n      dup8\n        /* \"#utility.yul\":8463:8485   */\n      add\n        /* \"#utility.yul\":8442:8495   */\n      tag_107\n      jump\t// in\n    tag_248:\n        /* \"#utility.yul\":8432:8495   */\n      swap3\n      pop\n        /* \"#utility.yul\":8387:8505   */\n      pop\n        /* \"#utility.yul\":8544:8546   */\n      0x40\n        /* \"#utility.yul\":8570:8623   */\n      tag_249\n        /* \"#utility.yul\":8615:8622   */\n      dup7\n        /* \"#utility.yul\":8606:8612   */\n      dup3\n        /* \"#utility.yul\":8595:8604   */\n      dup8\n        /* \"#utility.yul\":8591:8613   */\n      add\n        /* \"#utility.yul\":8570:8623   */\n      tag_111\n      jump\t// in\n    tag_249:\n        /* \"#utility.yul\":8560:8623   */\n      swap2\n      pop\n        /* \"#utility.yul\":8515:8633   */\n      pop\n        /* \"#utility.yul\":7841:8640   */\n      swap3\n      pop\n      swap3\n      pop\n      swap3\n      jump\t// out\n        /* \"#utility.yul\":8646:8826   */\n    tag_132:\n        /* \"#utility.yul\":8694:8771   */\n      0x4e487b7100000000000000000000000000000000000000000000000000000000\n        /* \"#utility.yul\":8691:8692   */\n      0x00\n        /* \"#utility.yul\":8684:8772   */\n      mstore\n        /* \"#utility.yul\":8791:8795   */\n      0x12\n        /* \"#utility.yul\":8788:8789   */\n      0x04\n        /* \"#utility.yul\":8781:8796   */\n      mstore\n        /* \"#utility.yul\":8815:8819   */\n      0x24\n        /* \"#utility.yul\":8812:8813   */\n      0x00\n        /* \"#utility.yul\":8805:8820   */\n      revert\n        /* \"#utility.yul\":8832:9012   */\n    tag_133:\n        /* \"#utility.yul\":8880:8957   */\n      0x4e487b7100000000000000000000000000000000000000000000000000000000\n        /* \"#utility.yul\":8877:8878   */\n      0x00\n        /* \"#utility.yul\":8870:8958   */\n      mstore\n        /* \"#utility.yul\":8977:8981   */\n      0x11\n        /* \"#utility.yul\":8974:8975   */\n      0x04\n        /* \"#utility.yul\":8967:8982   */\n      mstore\n        /* \"#utility.yul\":9001:9005   */\n      0x24\n        /* \"#utility.yul\":8998:8999   */\n      0x00\n        /* \"#utility.yul\":8991:9006   */\n      revert\n        /* \"#utility.yul\":9018:9203   */\n    tag_76:\n        /* \"#utility.yul\":9058:9059   */\n      0x00\n        /* \"#utility.yul\":9075:9095   */\n      tag_253\n        /* \"#utility.yul\":9093:9094   */\n      dup3\n        /* \"#utility.yul\":9075:9095   */\n      tag_105\n      jump\t// in\n    tag_253:\n        /* \"#utility.yul\":9070:9095   */\n      swap2\n      pop\n        /* \"#utility.yul\":9109:9129   */\n      tag_254\n        /* \"#utility.yul\":9127:9128   */\n      dup4\n        /* \"#utility.yul\":9109:9129   */\n      tag_105\n      jump\t// in\n    tag_254:\n        /* \"#utility.yul\":9104:9129   */\n      swap3\n      pop\n        /* \"#utility.yul\":9148:9149   */\n      dup3\n        /* \"#utility.yul\":9138:9173   */\n      tag_255\n      jumpi\n        /* \"#utility.yul\":9153:9171   */\n      tag_256\n      tag_132\n      jump\t// in\n    tag_256:\n        /* \"#utility.yul\":9138:9173   */\n    tag_255:\n        /* \"#utility.yul\":9195:9196   */\n      dup3\n        /* \"#utility.yul\":9192:9193   */\n      dup3\n        /* \"#utility.yul\":9188:9197   */\n      div\n        /* \"#utility.yul\":9183:9197   */\n      swap1\n      pop\n        /* \"#utility.yul\":9018:9203   */\n      swap3\n      swap2\n      pop\n      pop\n      jump\t// out\n        /* \"#utility.yul\":9209:9389   */\n    tag_134:\n        /* \"#utility.yul\":9257:9334   */\n      0x4e487b7100000000000000000000000000000000000000000000000000000000\n        /* \"#utility.yul\":9254:9255   */\n      0x00\n        /* \"#utility.yul\":9247:9335   */\n      mstore\n        /* \"#utility.yul\":9354:9358   */\n      0x22\n        /* \"#utility.yul\":9351:9352   */\n      0x04\n        /* \"#utility.yul\":9344:9359   */\n      mstore\n        /* \"#utility.yul\":9378:9382   */\n      0x24\n        /* \"#utility.yul\":9375:9376   */\n      0x00\n        /* \"#utility.yul\":9368:9383   */\n      revert\n        /* \"#utility.yul\":9395:9715   */\n    tag_83:\n        /* \"#utility.yul\":9439:9445   */\n      0x00\n        /* \"#utility.yul\":9476:9477   */\n      0x02\n        /* \"#utility.yul\":9470:9474   */\n      dup3\n        /* \"#utility.yul\":9466:9478   */\n      div\n        /* \"#utility.yul\":9456:9478   */\n      swap1\n      pop\n        /* \"#utility.yul\":9523:9524   */\n      0x01\n        /* \"#utility.yul\":9517:9521   */\n      dup3\n        /* \"#utility.yul\":9513:9525   */\n      and\n        /* \"#utility.yul\":9544:9562   */\n      dup1\n        /* \"#utility.yul\":9534:9615   */\n      tag_259\n      jumpi\n        /* \"#utility.yul\":9600:9604   */\n      0x7f\n        /* \"#utility.yul\":9592:9598   */\n      dup3\n        /* \"#utility.yul\":9588:9605   */\n      and\n        /* \"#utility.yul\":9578:9605   */\n      swap2\n      pop\n        /* \"#utility.yul\":9534:9615   */\n    tag_259:\n        /* \"#utility.yul\":9662:9664   */\n      0x20\n        /* \"#utility.yul\":9654:9660   */\n      dup3\n        /* \"#utility.yul\":9651:9665   */\n      lt\n        /* \"#utility.yul\":9631:9649   */\n      dup2\n        /* \"#utility.yul\":9628:9666   */\n      sub\n        /* \"#utility.yul\":9625:9709   */\n      tag_260\n      jumpi\n        /* \"#utility.yul\":9681:9699   */\n      tag_261\n      tag_134\n      jump\t// in\n    tag_261:\n        /* \"#utility.yul\":9625:9709   */\n    tag_260:\n        /* \"#utility.yul\":9446:9715   */\n      pop\n        /* \"#utility.yul\":9395:9715   */\n      swap2\n      swap1\n      pop\n      jump\t// out\n        /* \"#utility.yul\":9721:9954   */\n    tag_92:\n        /* \"#utility.yul\":9760:9763   */\n      0x00\n        /* \"#utility.yul\":9783:9807   */\n      tag_263\n        /* \"#utility.yul\":9801:9806   */\n      dup3\n        /* \"#utility.yul\":9783:9807   */\n      tag_105\n      jump\t// in\n    tag_263:\n        /* \"#utility.yul\":9774:9807   */\n      swap2\n      pop\n        /* \"#utility.yul\":9829:9895   */\n      0xffffffffffffffffffffffffffffffffffffffffffffffffffffffffffffffff\n        /* \"#utility.yul\":9822:9827   */\n      dup3\n        /* \"#utility.yul\":9819:9896   */\n      sub\n        /* \"#utility.yul\":9816:9919   */\n      tag_264\n      jumpi\n        /* \"#utility.yul\":9899:9917   */\n      tag_265\n      tag_133\n      jump\t// in\n    tag_265:\n        /* \"#utility.yul\":9816:9919   */\n    tag_264:\n        /* \"#utility.yul\":9946:9947   */\n      0x01\n        /* \"#utility.yul\":9939:9944   */\n      dup3\n        /* \"#utility.yul\":9935:9948   */\n      add\n        /* \"#utility.yul\":9928:9948   */\n      swap1\n      pop\n        /* \"#utility.yul\":9721:9954   */\n      swap2\n      swap1\n      pop\n      jump\t// out\n        /* \"#utility.yul\":9960:10101   */\n    tag_135:\n        /* \"#utility.yul\":10009:10013   */\n      0x00\n        /* \"#utility.yul\":10032:10035   */\n      dup2\n        /* \"#utility.yul\":10024:10035   */\n      swap1\n      pop\n        /* \"#utility.yul\":10055:10058   */\n      dup2\n        /* \"#utility.yul\":10052:10053   */\n      0x00\n        /* \"#utility.yul\":10045:10059   */\n      mstore\n        /* \"#utility.yul\":10089:10093   */\n      0x20\n        /* \"#utility.yul\":10086:10087   */\n      0x00\n        /* \"#utility.yul\":10076:10094   */\n      keccak256\n        /* \"#utility.yul\":10068:10094   */\n      swap1\n      pop\n        /* \"#utility.yul\":9960:10101   */\n      swap2\n      swap1\n      pop\n      jump\t// out\n        /* \"#utility.yul\":10107:10200   */\n    tag_136:\n        /* \"#utility.yul\":10144:10150   */\n      0x00\n        /* \"#utility.yul\":10191:10193   */\n      0x20\n        /* \"#utility.yul\":10186:10188   */\n      0x1f\n        /* \"#utility.yul\":10179:10184   */\n      dup4\n        /* \"#utility.yul\":10175:10189   */\n      add\n        /* \"#utility.yul\":10171:10194   */\n      div\n        /* \"#utility.yul\":10161:10194   */\n      swap1\n      pop\n        /* \"#utility.yul\":10107:10200   */\n      swap2\n      swap1\n      pop\n      jump\t// out\n        /* \"#utility.yul\":10206:10313   */\n    tag_137:\n        /* \"#utility.yul\":10250:10258   */\n      0x00\n        /* \"#utility.yul\":10300:10305   */\n      dup3\n        /* \"#utility.yul\":10294:10298   */\n      dup3\n        /* \"#utility.yul\":10290:10306   */\n      shl\n        /* \"#utility.yul\":10269:10306   */\n      swap1\n      pop\n        /* \"#utility.yul\":10206:10313   */\n      swap3\n      swap2\n      pop\n      pop\n      jump\t// out\n        /* \"#utility.yul\":10319:10712   */\n    tag_138:\n        /* \"#utility.yul\":10388:10394   */\n      0x00\n        /* \"#utility.yul\":10438:10439   */\n      0x08\n        /* \"#utility.yul\":10426:10436   */\n      dup4\n        /* \"#utility.yul\":10422:10440   */\n      mul\n        /* \"#utility.yul\":10461:10558   */\n      tag_270\n        /* \"#utility.yul\":10491:10557   */\n      0xffffffffffffffffffffffffffffffffffffffffffffffffffffffffffffffff\n        /* \"#utility.yul\":10480:10489   */\n      dup3\n        /* \"#utility.yul\":10461:10558   */\n      tag_137\n      jump\t// in\n    tag_270:\n        /* \"#utility.yul\":10579:10618   */\n      tag_271\n        /* \"#utility.yul\":10609:10617   */\n      dup7\n        /* \"#utility.yul\":10598:10607   */\n      dup4\n        /* \"#utility.yul\":10579:10618   */\n      tag_137\n      jump\t// in\n    tag_271:\n        /* \"#utility.yul\":10567:10618   */\n      swap6\n      pop\n        /* \"#utility.yul\":10651:10655   */\n      dup1\n        /* \"#utility.yul\":10647:10656   */\n      not\n        /* \"#utility.yul\":10640:10645   */\n      dup5\n        /* \"#utility.yul\":10636:10657   */\n      and\n        /* \"#utility.yul\":10627:10657   */\n      swap4\n      pop\n        /* \"#utility.yul\":10700:10704   */\n      dup1\n        /* \"#utility.yul\":10690:10698   */\n      dup7\n        /* \"#utility.yul\":10686:10705   */\n      and\n        /* \"#utility.yul\":10679:10684   */\n      dup5\n        /* \"#utility.yul\":10676:10706   */\n      or\n        /* \"#utility.yul\":10666:10706   */\n      swap3\n      pop\n        /* \"#utility.yul\":10395:10712   */\n      pop\n      pop\n        /* \"#utility.yul\":10319:10712   */\n      swap4\n      swap3\n      pop\n      pop\n      pop\n      jump\t// out\n        /* \"#utility.yul\":10718:10778   */\n    tag_139:\n        /* \"#utility.yul\":10746:10749   */\n      0x00\n        /* \"#utility.yul\":10767:10772   */\n      dup2\n        /* \"#utility.yul\":10760:10772   */\n      swap1\n      pop\n        /* \"#utility.yul\":10718:10778   */\n      swap2\n      swap1\n      pop\n      jump\t// out\n        /* \"#utility.yul\":10784:10926   */\n    tag_140:\n        /* \"#utility.yul\":10834:10843   */\n      0x00\n        /* \"#utility.yul\":10867:10920   */\n      tag_274\n        /* \"#utility.yul\":10885:10919   */\n      tag_275\n        /* \"#utility.yul\":10894:10918   */\n      tag_276\n        /* \"#utility.yul\":10912:10917   */\n      dup5\n        /* \"#utility.yul\":10894:10918   */\n      tag_105\n      jump\t// in\n    tag_276:\n        /* \"#utility.yul\":10885:10919   */\n      tag_139\n      jump\t// in\n    tag_275:\n        /* \"#utility.yul\":10867:10920   */\n      tag_105\n      jump\t// in\n    tag_274:\n        /* \"#utility.yul\":10854:10920   */\n      swap1\n      pop\n        /* \"#utility.yul\":10784:10926   */\n      swap2\n      swap1\n      pop\n      jump\t// out\n        /* \"#utility.yul\":10932:11007   */\n    tag_141:\n        /* \"#utility.yul\":10975:10978   */\n      0x00\n        /* \"#utility.yul\":10996:11001   */\n      dup2\n        /* \"#utility.yul\":10989:11001   */\n      swap1\n      pop\n        /* \"#utility.yul\":10932:11007   */\n      swap2\n      swap1\n      pop\n      jump\t// out\n        /* \"#utility.yul\":11013:11282   */\n    tag_142:\n        /* \"#utility.yul\":11123:11162   */\n      tag_279\n        /* \"#utility.yul\":11154:11161   */\n      dup4\n        /* \"#utility.yul\":11123:11162   */\n      tag_140\n      jump\t// in\n    tag_279:\n        /* \"#utility.yul\":11184:11275   */\n      tag_280\n        /* \"#utility.yul\":11233:11274   */\n      tag_281\n        /* \"#utility.yul\":11257:11273   */\n      dup3\n        /* \"#utility.yul\":11233:11274   */\n      tag_141\n      jump\t// in\n    tag_281:\n        /* \"#utility.yul\":11225:11231   */\n      dup5\n        /* \"#utility.yul\":11218:11222   */\n      dup5\n        /* \"#utility.yul\":11212:11223   */\n      sload\n        /* \"#utility.yul\":11184:11275   */\n      tag_138\n      jump\t// in\n    tag_280:\n        /* \"#utility.yul\":11178:11182   */\n      dup3\n        /* \"#utility.yul\":11171:11276   */\n      sstore\n        /* \"#utility.yul\":11089:11282   */\n      pop\n        /* \"#utility.yul\":11013:11282   */\n      pop\n      pop\n      pop\n      jump\t// out\n        /* \"#utility.yul\":11288:11361   */\n    tag_143:\n        /* \"#utility.yul\":11333:11336   */\n      0x00\n        /* \"#utility.yul\":11288:11361   */\n      swap1\n      jump\t// out\n        /* \"#utility.yul\":11367:11556   */\n    tag_144:\n        /* \"#utility.yul\":11444:11476   */\n      tag_284\n      tag_143\n      jump\t// in\n    tag_284:\n        /* \"#utility.yul\":11485:11550   */\n      tag_285\n        /* \"#utility.yul\":11543:11549   */\n      dup2\n        /* \"#utility.yul\":11535:11541   */\n      dup5\n        /* \"#utility.yul\":11529:11533   */\n      dup5\n        /* \"#utility.yul\":11485:11550   */\n      tag_142\n      jump\t// in\n    tag_285:\n        /* \"#utility.yul\":11420:11556   */\n      pop\n        /* \"#utility.yul\":11367:11556   */\n      pop\n      pop\n      jump\t// out\n        /* \"#utility.yul\":11562:11748   */\n    tag_145:\n        /* \"#utility.yul\":11622:11742   */\n    tag_287:\n        /* \"#utility.yul\":11639:11642   */\n      dup2\n        /* \"#utility.yul\":11632:11637   */\n      dup2\n        /* \"#utility.yul\":11629:11643   */\n      lt\n        /* \"#utility.yul\":11622:11742   */\n      iszero\n      tag_289\n      jumpi\n        /* \"#utility.yul\":11693:11732   */\n      tag_290\n        /* \"#utility.yul\":11730:11731   */\n      0x00\n        /* \"#utility.yul\":11723:11728   */\n      dup3\n        /* \"#utility.yul\":11693:11732   */\n      tag_144\n      jump\t// in\n    tag_290:\n        /* \"#utility.yul\":11666:11667   */\n      0x01\n        /* \"#utility.yul\":11659:11664   */\n      dup2\n        /* \"#utility.yul\":11655:11668   */\n      add\n        /* \"#utility.yul\":11646:11668   */\n      swap1\n      pop\n        /* \"#utility.yul\":11622:11742   */\n      jump(tag_287)\n    tag_289:\n        /* \"#utility.yul\":11562:11748   */\n      pop\n      pop\n      jump\t// out\n        /* \"#utility.yul\":11754:12297   */\n    tag_146:\n        /* \"#utility.yul\":11855:11857   */\n      0x1f\n        /* \"#utility.yul\":11850:11853   */\n      dup3\n        /* \"#utility.yul\":11847:11858   */\n      gt\n        /* \"#utility.yul\":11844:12290   */\n      iszero\n      tag_292\n      jumpi\n        /* \"#utility.yul\":11889:11927   */\n      tag_293\n        /* \"#utility.yul\":11921:11926   */\n      dup2\n        /* \"#utility.yul\":11889:11927   */\n      tag_135\n      jump\t// in\n    tag_293:\n        /* \"#utility.yul\":11973:12002   */\n      tag_294\n        /* \"#utility.yul\":11991:12001   */\n      dup5\n        /* \"#utility.yul\":11973:12002   */\n      tag_136\n      jump\t// in\n    tag_294:\n        /* \"#utility.yul\":11963:11971   */\n      dup2\n        /* \"#utility.yul\":11959:12003   */\n      add\n        /* \"#utility.yul\":12156:12158   */\n      0x20\n        /* \"#utility.yul\":12144:12154   */\n      dup6\n        /* \"#utility.yul\":12141:12159   */\n      lt\n        /* \"#utility.yul\":12138:12187   */\n      iszero\n      tag_295\n      jumpi\n        /* \"#utility.yul\":12177:12185   */\n      dup2\n        /* \"#utility.yul\":12162:12185   */\n      swap1\n      pop\n        /* \"#utility.yul\":12138:12187   */\n    tag_295:\n        /* \"#utility.yul\":12200:12280   */\n      tag_296\n        /* \"#utility.yul\":12256:12278   */\n      tag_297\n        /* \"#utility.yul\":12274:12277   */\n      dup6\n        /* \"#utility.yul\":12256:12278   */\n      tag_136\n      jump\t// in\n    tag_297:\n        /* \"#utility.yul\":12246:12254   */\n      dup4\n        /* \"#utility.yul\":12242:12279   */\n      add\n        /* \"#utility.yul\":12229:12240   */\n      dup3\n        /* \"#utility.yul\":12200:12280   */\n      tag_145\n      jump\t// in\n    tag_296:\n        /* \"#utility.yul\":11859:12290   */\n      pop\n      pop\n        /* \"#utility.yul\":11844:12290   */\n    tag_292:\n        /* \"#utility.yul\":11754:12297   */\n      pop\n      pop\n      pop\n      jump\t// out\n        /* \"#utility.yul\":12303:12420   */\n    tag_147:\n        /* \"#utility.yul\":12357:12365   */\n      0x00\n        /* \"#utility.yul\":12407:12412   */\n      dup3\n        /* \"#utility.yul\":12401:12405   */\n      dup3\n        /* \"#utility.yul\":12397:12413   */\n      shr\n        /* \"#utility.yul\":12376:12413   */\n      swap1\n      pop\n        /* \"#utility.yul\":12303:12420   */\n      swap3\n      swap2\n      pop\n      pop\n      jump\t// out\n        /* \"#utility.yul\":12426:12595   */\n    tag_148:\n        /* \"#utility.yul\":12470:12476   */\n      0x00\n        /* \"#utility.yul\":12503:12554   */\n      tag_300\n        /* \"#utility.yul\":12551:12552   */\n      0x00\n        /* \"#utility.yul\":12547:12553   */\n      not\n        /* \"#utility.yul\":12539:12544   */\n      dup5\n        /* \"#utility.yul\":12536:12537   */\n      0x08\n        /* \"#utility.yul\":12532:12545   */\n      mul\n        /* \"#utility.yul\":12503:12554   */\n      tag_147\n      jump\t// in\n    tag_300:\n        /* \"#utility.yul\":12499:12555   */\n      not\n        /* \"#utility.yul\":12584:12588   */\n      dup1\n        /* \"#utility.yul\":12578:12582   */\n      dup4\n        /* \"#utility.yul\":12574:12589   */\n      and\n        /* \"#utility.yul\":12564:12589   */\n      swap2\n      pop\n        /* \"#utility.yul\":12477:12595   */\n      pop\n        /* \"#utility.yul\":12426:12595   */\n      swap3\n      swap2\n      pop\n      pop\n      jump\t// out\n        /* \"#utility.yul\":12600:12895   */\n    tag_149:\n        /* \"#utility.yul\":12676:12680   */\n      0x00\n        /* \"#utility.yul\":12822:12851   */\n      tag_302\n        /* \"#utility.yul\":12847:12850   */\n      dup4\n        /* \"#utility.yul\":12841:12845   */\n      dup4\n        /* \"#utility.yul\":12822:12851   */\n      tag_148\n      jump\t// in\n    tag_302:\n        /* \"#utility.yul\":12814:12851   */\n      swap2\n      pop\n        /* \"#utility.yul\":12884:12887   */\n      dup3\n        /* \"#utility.yul\":12881:12882   */\n      0x02\n        /* \"#utility.yul\":12877:12888   */\n      mul\n        /* \"#utility.yul\":12871:12875   */\n      dup3\n        /* \"#utility.yul\":12868:12889   */\n      or\n        /* \"#utility.yul\":12860:12889   */\n      swap1\n      pop\n        /* \"#utility.yul\":12600:12895   */\n      swap3\n      swap2\n      pop\n      pop\n      jump\t// out\n        /* \"#utility.yul\":12900:14295   */\n    tag_94:\n        /* \"#utility.yul\":13017:13054   */\n      tag_304\n        /* \"#utility.yul\":13050:13053   */\n      dup3\n        /* \"#utility.yul\":13017:13054   */\n      tag_116\n      jump\t// in\n    tag_304:\n        /* \"#utility.yul\":13119:13137   */\n      0xffffffffffffffff\n        /* \"#utility.yul\":13111:13117   */\n      dup2\n        /* \"#utility.yul\":13108:13138   */\n      gt\n        /* \"#utility.yul\":13105:13161   */\n      iszero\n      tag_305\n      jumpi\n        /* \"#utility.yul\":13141:13159   */\n      tag_306\n      tag_125\n      jump\t// in\n    tag_306:\n        /* \"#utility.yul\":13105:13161   */\n    tag_305:\n        /* \"#utility.yul\":13185:13223   */\n      tag_307\n        /* \"#utility.yul\":13217:13221   */\n      dup3\n        /* \"#utility.yul\":13211:13222   */\n      sload\n        /* \"#utility.yul\":13185:13223   */\n      tag_83\n      jump\t// in\n    tag_307:\n        /* \"#utility.yul\":13270:13337   */\n      tag_308\n        /* \"#utility.yul\":13330:13336   */\n      dup3\n        /* \"#utility.yul\":13322:13328   */\n      dup3\n        /* \"#utility.yul\":13316:13320   */\n      dup6\n        /* \"#utility.yul\":13270:13337   */\n      tag_146\n      jump\t// in\n    tag_308:\n        /* \"#utility.yul\":13364:13365   */\n      0x00\n        /* \"#utility.yul\":13388:13392   */\n      0x20\n        /* \"#utility.yul\":13375:13392   */\n      swap1\n      pop\n        /* \"#utility.yul\":13420:13422   */\n      0x1f\n        /* \"#utility.yul\":13412:13418   */\n      dup4\n        /* \"#utility.yul\":13409:13423   */\n      gt\n        /* \"#utility.yul\":13437:13438   */\n      0x01\n        /* \"#utility.yul\":13432:14050   */\n      dup2\n      eq\n      tag_310\n      jumpi\n        /* \"#utility.yul\":14094:14095   */\n      0x00\n        /* \"#utility.yul\":14111:14117   */\n      dup5\n        /* \"#utility.yul\":14108:14185   */\n      iszero\n      tag_311\n      jumpi\n        /* \"#utility.yul\":14160:14169   */\n      dup3\n        /* \"#utility.yul\":14155:14158   */\n      dup8\n        /* \"#utility.yul\":14151:14170   */\n      add\n        /* \"#utility.yul\":14145:14171   */\n      mload\n        /* \"#utility.yul\":14136:14171   */\n      swap1\n      pop\n        /* \"#utility.yul\":14108:14185   */\n    tag_311:\n        /* \"#utility.yul\":14211:14278   */\n      tag_312\n        /* \"#utility.yul\":14271:14277   */\n      dup6\n        /* \"#utility.yul\":14264:14269   */\n      dup3\n        /* \"#utility.yul\":14211:14278   */\n      tag_149\n      jump\t// in\n    tag_312:\n        /* \"#utility.yul\":14205:14209   */\n      dup7\n        /* \"#utility.yul\":14198:14279   */\n      sstore\n        /* \"#utility.yul\":14067:14289   */\n      pop\n        /* \"#utility.yul\":13402:14289   */\n      jump(tag_309)\n        /* \"#utility.yul\":13432:14050   */\n    tag_310:\n        /* \"#utility.yul\":13484:13488   */\n      0x1f\n        /* \"#utility.yul\":13480:13489   */\n      not\n        /* \"#utility.yul\":13472:13478   */\n      dup5\n        /* \"#utility.yul\":13468:13490   */\n      and\n        /* \"#utility.yul\":13518:13555   */\n      tag_313\n        /* \"#utility.yul\":13550:13554   */\n      dup7\n        /* \"#utility.yul\":13518:13555   */\n      tag_135\n      jump\t// in\n    tag_313:\n        /* \"#utility.yul\":13577:13578   */\n      0x00\n        /* \"#utility.yul\":13591:13799   */\n    tag_314:\n        /* \"#utility.yul\":13605:13612   */\n      dup3\n        /* \"#utility.yul\":13602:13603   */\n      dup2\n        /* \"#utility.yul\":13599:13613   */\n      lt\n        /* \"#utility.yul\":13591:13799   */\n      iszero\n      tag_316\n      jumpi\n        /* \"#utility.yul\":13684:13693   */\n      dup5\n        /* \"#utility.yul\":13679:13682   */\n      dup10\n        /* \"#utility.yul\":13675:13694   */\n      add\n        /* \"#utility.yul\":13669:13695   */\n      mload\n        /* \"#utility.yul\":13661:13667   */\n      dup3\n        /* \"#utility.yul\":13654:13696   */\n      sstore\n        /* \"#utility.yul\":13735:13736   */\n      0x01\n        /* \"#utility.yul\":13727:13733   */\n      dup3\n        /* \"#utility.yul\":13723:13737   */\n      add\n        /* \"#utility.yul\":13713:13737   */\n      swap2\n      pop\n        /* \"#utility.yul\":13782:13784   */\n      0x20\n        /* \"#utility.yul\":13771:13780   */\n      dup6\n        /* \"#utility.yul\":13767:13785   */\n      add\n        /* \"#utility.yul\":13754:13785   */\n      swap5\n      pop\n        /* \"#utility.yul\":13628:13632   */\n      0x20\n        /* \"#utility.yul\":13625:13626   */\n      dup2\n        /* \"#utility.yul\":13621:13633   */\n      add\n        /* \"#utility.yul\":13616:13633   */\n      swap1\n      pop\n        /* \"#utility.yul\":13591:13799   */\n      jump(tag_314)\n    tag_316:\n        /* \"#utility.yul\":13827:13833   */\n      dup7\n        /* \"#utility.yul\":13818:13825   */\n      dup4\n        /* \"#utility.yul\":13815:13834   */\n      lt\n        /* \"#utility.yul\":13812:13991   */\n      iszero\n      tag_317\n      jumpi\n        /* \"#utility.yul\":13885:13894   */\n      dup5\n        /* \"#utility.yul\":13880:13883   */\n      dup10\n        /* \"#utility.yul\":13876:13895   */\n      add\n        /* \"#utility.yul\":13870:13896   */\n      mload\n        /* \"#utility.yul\":13928:13976   */\n      tag_318\n        /* \"#utility.yul\":13970:13974   */\n      0x1f\n        /* \"#utility.yul\":13962:13968   */\n      dup10\n        /* \"#utility.yul\":13958:13975   */\n      and\n        /* \"#utility.yul\":13947:13956   */\n      dup3\n        /* \"#utility.yul\":13928:13976   */\n      tag_148\n      jump\t// in\n    tag_318:\n        /* \"#utility.yul\":13920:13926   */\n      dup4\n        /* \"#utility.yul\":13913:13977   */\n      sstore\n        /* \"#utility.yul\":13835:13991   */\n      pop\n        /* \"#utility.yul\":13812:13991   */\n    tag_317:\n        /* \"#utility.yul\":14037:14038   */\n      0x01\n        /* \"#utility.yul\":14033:14034   */\n      0x02\n        /* \"#utility.yul\":14025:14031   */\n      dup9\n        /* \"#utility.yul\":14021:14035   */\n      mul\n        /* \"#utility.yul\":14017:14039   */\n      add\n        /* \"#utility.yul\":14011:14015   */\n      dup9\n        /* \"#utility.yul\":14004:14040   */\n      sstore\n        /* \"#utility.yul\":13439:14050   */\n      pop\n      pop\n      pop\n        /* \"#utility.yul\":13402:14289   */\n    tag_309:\n      pop\n        /* \"#utility.yul\":12992:14295   */\n      pop\n      pop\n      pop\n        /* \"#utility.yul\":12900:14295   */\n      pop\n      pop\n      jump\t// out\n\n    auxdata: 0xa264697066735822122012706d693e4aeffc2ec4e475c4f8a0bafb7e6d4f26e8d4650281a649b6683ec964736f6c63430008100033\n}\n","bytecode":{"linkReferences":{},"object":"60806040523480156200001157600080fd5b50604051620012473803806200124783398181016040528101906200003791906200012b565b806000806101000a81548173ffffffffffffffffffffffffffffffffffffffff021916908373ffffffffffffffffffffffffffffffffffffffff16021790555081600381905550505062000172565b600080fd5b6000819050919050565b620000a0816200008b565b8114620000ac57600080fd5b50565b600081519050620000c08162000095565b92915050565b600073ffffffffffffffffffffffffffffffffffffffff82169050919050565b6000620000f382620000c6565b9050919050565b6200010581620000e6565b81146200011157600080fd5b50565b6000815190506200012581620000fa565b92915050565b6000806040838503121562000145576200014462000086565b5b60006200015585828601620000af565b9250506020620001688582860162000114565b9150509250929050565b6110c580620001826000396000f3fe6080604052600436106100a75760003560e01c806382fde0931161006457806382fde093146101d85780638a9cfd5514610203578063937e09b11461022c5780639fb42b1f14610257578063d7bb99ba14610282578063d7d1bbdb1461028c576100a7565b806303441006146100ac5780630a144391146100d55780633410452a146101125780634051ddac1461013d578063481c6a751461016c57806381d12c5814610197575b600080fd5b3480156100b857600080fd5b506100d360048036038101906100ce9190610896565b6102b5565b005b3480156100e157600080fd5b506100fc60048036038101906100f79190610921565b6103ee565b6040516101099190610969565b60405180910390f35b34801561011e57600080fd5b5061012761040e565b6040516101349190610993565b60405180910390f35b34801561014957600080fd5b50610152610418565b6040516101639594939291906109bd565b60405180910390f35b34801561017857600080fd5b5061018161045c565b60405161018e9190610a10565b60405180910390f35b3480156101a357600080fd5b506101be60048036038101906101b99190610896565b610480565b6040516101cf959493929190610adc565b60405180910390f35b3480156101e457600080fd5b506101ed61056b565b6040516101fa9190610993565b60405180910390f35b34801561020f57600080fd5b5061022a60048036038101906102259190610c6b565b610571565b005b34801561023857600080fd5b50610241610681565b60405161024e9190610993565b60405180910390f35b34801561026357600080fd5b5061026c610687565b6040516102799190610993565b60405180910390f35b61028a61068d565b005b34801561029857600080fd5b506102b360048036038101906102ae9190610896565b61070e565b005b60008054906101000a900473ffffffffffffffffffffffffffffffffffffffff1673ffffffffffffffffffffffffffffffffffffffff163373ffffffffffffffffffffffffffffffffffffffff161461030d57600080fd5b60006005600083815260200190815260200160002090508060020160149054906101000a900460ff161561034057600080fd5b600260045461034f9190610d38565b81600301541161035e57600080fd5b8060020160009054906101000a900473ffffffffffffffffffffffffffffffffffffffff1673ffffffffffffffffffffffffffffffffffffffff166108fc82600101549081150290604051600060405180830381858888f193505050501580156103cc573d6000803e3d6000fd5b5060018160020160146101000a81548160ff0219169083151502179055505050565b60026020528060005260406000206000915054906101000a900460ff1681565b6000600154905090565b60008060008060006003544760015460045460008054906101000a900473ffffffffffffffffffffffffffffffffffffffff16945094509450945094509091929394565b60008054906101000a900473ffffffffffffffffffffffffffffffffffffffff1681565b60056020528060005260406000206000915090508060000180546104a390610d98565b80601f01602080910402602001604051908101604052809291908181526020018280546104cf90610d98565b801561051c5780601f106104f15761010080835404028352916020019161051c565b820191906000526020600020905b8154815290600101906020018083116104ff57829003601f168201915b5050505050908060010154908060020160009054906101000a900473ffffffffffffffffffffffffffffffffffffffff16908060020160149054906101000a900460ff16908060030154905085565b60045481565b60008054906101000a900473ffffffffffffffffffffffffffffffffffffffff1673ffffffffffffffffffffffffffffffffffffffff163373ffffffffffffffffffffffffffffffffffffffff16146105c957600080fd5b600060056000600160008154809291906105e290610dc9565b9190505581526020019081526020016000209050838160000190816106079190610fbd565b50828160010181905550818160020160006101000a81548173ffffffffffffffffffffffffffffffffffffffff021916908373ffffffffffffffffffffffffffffffffffffffff16021790555060008160020160146101000a81548160ff0219169083151502179055506000816003018190555050505050565b60035481565b60015481565b60035434101561069c57600080fd5b6001600260003373ffffffffffffffffffffffffffffffffffffffff1673ffffffffffffffffffffffffffffffffffffffff16815260200190815260200160002060006101000a81548160ff0219169083151502179055506004600081548092919061070790610dc9565b9190505550565b6000600560008381526020019081526020016000209050600260003373ffffffffffffffffffffffffffffffffffffffff1673ffffffffffffffffffffffffffffffffffffffff16815260200190815260200160002060009054906101000a900460ff1661077b57600080fd5b8060040160003373ffffffffffffffffffffffffffffffffffffffff1673ffffffffffffffffffffffffffffffffffffffff16815260200190815260200160002060009054906101000a900460ff16156107d457600080fd5b60018160040160003373ffffffffffffffffffffffffffffffffffffffff1673ffffffffffffffffffffffffffffffffffffffff16815260200190815260200160002060006101000a81548160ff02191690831515021790555080600301600081548092919061084390610dc9565b91905055505050565b6000604051905090565b600080fd5b600080fd5b6000819050919050565b61087381610860565b811461087e57600080fd5b50565b6000813590506108908161086a565b92915050565b6000602082840312156108ac576108ab610856565b5b60006108ba84828501610881565b91505092915050565b600073ffffffffffffffffffffffffffffffffffffffff82169050919050565b60006108ee826108c3565b9050919050565b6108fe816108e3565b811461090957600080fd5b50565b60008135905061091b816108f5565b92915050565b60006020828403121561093757610936610856565b5b60006109458482850161090c565b91505092915050565b60008115159050919050565b6109638161094e565b82525050565b600060208201905061097e600083018461095a565b92915050565b61098d81610860565b82525050565b60006020820190506109a86000830184610984565b92915050565b6109b7816108e3565b82525050565b600060a0820190506109d26000830188610984565b6109df6020830187610984565b6109ec6040830186610984565b6109f96060830185610984565b610a0660808301846109ae565b9695505050505050565b6000602082019050610a2560008301846109ae565b92915050565b600081519050919050565b600082825260208201905092915050565b60005b83811015610a65578082015181840152602081019050610a4a565b60008484015250505050565b6000601f19601f8301169050919050565b6000610a8d82610a2b565b610a978185610a36565b9350610aa7818560208601610a47565b610ab081610a71565b840191505092915050565b6000610ac6826108c3565b9050919050565b610ad681610abb565b82525050565b600060a0820190508181036000830152610af68188610a82565b9050610b056020830187610984565b610b126040830186610acd565b610b1f606083018561095a565b610b2c6080830184610984565b9695505050505050565b600080fd5b600080fd5b7f4e487b7100000000000000000000000000000000000000000000000000000000600052604160045260246000fd5b610b7882610a71565b810181811067ffffffffffffffff82111715610b9757610b96610b40565b5b80604052505050565b6000610baa61084c565b9050610bb68282610b6f565b919050565b600067ffffffffffffffff821115610bd657610bd5610b40565b5b610bdf82610a71565b9050602081019050919050565b82818337600083830152505050565b6000610c0e610c0984610bbb565b610ba0565b905082815260208101848484011115610c2a57610c29610b3b565b5b610c35848285610bec565b509392505050565b600082601f830112610c5257610c51610b36565b5b8135610c62848260208601610bfb565b91505092915050565b600080600060608486031215610c8457610c83610856565b5b600084013567ffffffffffffffff811115610ca257610ca161085b565b5b610cae86828701610c3d565b9350506020610cbf86828701610881565b9250506040610cd08682870161090c565b9150509250925092565b7f4e487b7100000000000000000000000000000000000000000000000000000000600052601260045260246000fd5b7f4e487b7100000000000000000000000000000000000000000000000000000000600052601160045260246000fd5b6000610d4382610860565b9150610d4e83610860565b925082610d5e57610d5d610cda565b5b828204905092915050565b7f4e487b7100000000000000000000000000000000000000000000000000000000600052602260045260246000fd5b60006002820490506001821680610db057607f821691505b602082108103610dc357610dc2610d69565b5b50919050565b6000610dd482610860565b91507fffffffffffffffffffffffffffffffffffffffffffffffffffffffffffffffff8203610e0657610e05610d09565b5b600182019050919050565b60008190508160005260206000209050919050565b60006020601f8301049050919050565b600082821b905092915050565b600060088302610e737fffffffffffffffffffffffffffffffffffffffffffffffffffffffffffffffff82610e36565b610e7d8683610e36565b95508019841693508086168417925050509392505050565b6000819050919050565b6000610eba610eb5610eb084610860565b610e95565b610860565b9050919050565b6000819050919050565b610ed483610e9f565b610ee8610ee082610ec1565b848454610e43565b825550505050565b600090565b610efd610ef0565b610f08818484610ecb565b505050565b5b81811015610f2c57610f21600082610ef5565b600181019050610f0e565b5050565b601f821115610f7157610f4281610e11565b610f4b84610e26565b81016020851015610f5a578190505b610f6e610f6685610e26565b830182610f0d565b50505b505050565b600082821c905092915050565b6000610f9460001984600802610f76565b1980831691505092915050565b6000610fad8383610f83565b9150826002028217905092915050565b610fc682610a2b565b67ffffffffffffffff811115610fdf57610fde610b40565b5b610fe98254610d98565b610ff4828285610f30565b600060209050601f8311600181146110275760008415611015578287015190505b61101f8582610fa1565b865550611087565b601f19841661103586610e11565b60005b8281101561105d57848901518255600182019150602085019450602081019050611038565b8683101561107a5784890151611076601f891682610f83565b8355505b6001600288020188555050505b50505050505056fea264697066735822122012706d693e4aeffc2ec4e475c4f8a0bafb7e6d4f26e8d4650281a649b6683ec964736f6c63430008100033","opcodes":"PUSH1 0x80 PUSH1 0x40 MSTORE CALLVALUE DUP1 ISZERO PUSH3 0x11 JUMPI PUSH1 0x0 DUP1 REVERT JUMPDEST POP PUSH1 0x40 MLOAD PUSH3 0x1247 CODESIZE SUB DUP1 PUSH3 0x1247 DUP4 CODECOPY DUP2 DUP2 ADD PUSH1 0x40 MSTORE DUP2 ADD SWAP1 PUSH3 0x37 SWAP2 SWAP1 PUSH3 0x12B JUMP JUMPDEST DUP1 PUSH1 0x0 DUP1 PUSH2 0x100 EXP DUP2 SLOAD DUP2 PUSH20 0xFFFFFFFFFFFFFFFFFFFFFFFFFFFFFFFFFFFFFFFF MUL NOT AND SWAP1 DUP4 PUSH20 0xFFFFFFFFFFFFFFFFFFFFFFFFFFFFFFFFFFFFFFFF AND MUL OR SWAP1 SSTORE POP DUP2 PUSH1 0x3 DUP2 SWAP1 SSTORE POP POP POP PUSH3 0x172 JUMP JUMPDEST PUSH1 0x0 DUP1 REVERT JUMPDEST PUSH1 0x0 DUP2 SWAP1 POP SWAP2 SWAP1 POP JUMP JUMPDEST PUSH3 0xA0 DUP2 PUSH3 0x8B JUMP JUMPDEST DUP2 EQ PUSH3 0xAC JUMPI PUSH1 0x0 DUP1 REVERT JUMPDEST POP JUMP JUMPDEST PUSH1 0x0 DUP2 MLOAD SWAP1 POP PUSH3 0xC0 DUP2 PUSH3 0x95 JUMP JUMPDEST SWAP3 SWAP2 POP POP JUMP JUMPDEST PUSH1 0x0 PUSH20 0xFFFFFFFFFFFFFFFFFFFFFFFFFFFFFFFFFFFFFFFF DUP3 AND SWAP1 POP SWAP2 SWAP1 POP JUMP JUMPDEST PUSH1 0x0 PUSH3 0xF3 DUP3 PUSH3 0xC6 JUMP JUMPDEST SWAP1 POP SWAP2 SWAP1 POP JUMP JUMPDEST PUSH3 0x105 DUP2 PUSH3 0xE6 JUMP JUMPDEST DUP2 EQ PUSH3 0x111 JUMPI PUSH1 0x0 DUP1 REVERT JUMPDEST POP JUMP JUMPDEST PUSH1 0x0 DUP2 MLOAD SWAP1 POP PUSH3 0x125 DUP2 PUSH3 0xFA JUMP JUMPDEST SWAP3 SWAP2 POP POP JUMP JUMPDEST PUSH1 0x0 DUP1 PUSH1 0x40 DUP4 DUP6 SUB SLT ISZERO PUSH3 0x145 JUMPI PUSH3 0x144 PUSH3 0x86 JUMP JUMPDEST JUMPDEST PUSH1 0x0 PUSH3 0x155 DUP6 DUP3 DUP7 ADD PUSH3 0xAF JUMP JUMPDEST SWAP3 POP POP PUSH1 0x20 PUSH3 0x168 DUP6 DUP3 DUP7 ADD PUSH3 0x114 JUMP JUMPDEST SWAP2 POP POP SWAP3 POP SWAP3 SWAP1 POP JUMP JUMPDEST PUSH2 0x10C5 DUP1 PUSH3 0x182 PUSH1 0x0 CODECOPY PUSH1 0x0 RETURN INVALID PUSH1 0x80 PUSH1 0x40 MSTORE PUSH1 0x4 CALLDATASIZE LT PUSH2 0xA7 JUMPI PUSH1 0x0 CALLDATALOAD PUSH1 0xE0 SHR DUP1 PUSH4 0x82FDE093 GT PUSH2 0x64 JUMPI DUP1 PUSH4 0x82FDE093 EQ PUSH2 0x1D8 JUMPI DUP1 PUSH4 0x8A9CFD55 EQ PUSH2 0x203 JUMPI DUP1 PUSH4 0x937E09B1 EQ PUSH2 0x22C JUMPI DUP1 PUSH4 0x9FB42B1F EQ PUSH2 0x257 JUMPI DUP1 PUSH4 0xD7BB99BA EQ PUSH2 0x282 JUMPI DUP1 PUSH4 0xD7D1BBDB EQ PUSH2 0x28C JUMPI PUSH2 0xA7 JUMP JUMPDEST DUP1 PUSH4 0x3441006 EQ PUSH2 0xAC JUMPI DUP1 PUSH4 0xA144391 EQ PUSH2 0xD5 JUMPI DUP1 PUSH4 0x3410452A EQ PUSH2 0x112 JUMPI DUP1 PUSH4 0x4051DDAC EQ PUSH2 0x13D JUMPI DUP1 PUSH4 0x481C6A75 EQ PUSH2 0x16C JUMPI DUP1 PUSH4 0x81D12C58 EQ PUSH2 0x197 JUMPI JUMPDEST PUSH1 0x0 DUP1 REVERT JUMPDEST CALLVALUE DUP1 ISZERO PUSH2 0xB8 JUMPI PUSH1 0x0 DUP1 REVERT JUMPDEST POP PUSH2 0xD3 PUSH1 0x4 DUP1 CALLDATASIZE SUB DUP2 ADD SWAP1 PUSH2 0xCE SWAP2 SWAP1 PUSH2 0x896 JUMP JUMPDEST PUSH2 0x2B5 JUMP JUMPDEST STOP JUMPDEST CALLVALUE DUP1 ISZERO PUSH2 0xE1 JUMPI PUSH1 0x0 DUP1 REVERT JUMPDEST POP PUSH2 0xFC PUSH1 0x4 DUP1 CALLDATASIZE SUB DUP2 ADD SWAP1 PUSH2 0xF7 SWAP2 SWAP1 PUSH2 0x921 JUMP JUMPDEST PUSH2 0x3EE JUMP JUMPDEST PUSH1 0x40 MLOAD PUSH2 0x109 SWAP2 SWAP1 PUSH2 0x969 JUMP JUMPDEST PUSH1 0x40 MLOAD DUP1 SWAP2 SUB SWAP1 RETURN JUMPDEST CALLVALUE DUP1 ISZERO PUSH2 0x11E JUMPI PUSH1 0x0 DUP1 REVERT JUMPDEST POP PUSH2 0x127 PUSH2 0x40E JUMP JUMPDEST PUSH1 0x40 MLOAD PUSH2 0x134 SWAP2 SWAP1 PUSH2 0x993 JUMP JUMPDEST PUSH1 0x40 MLOAD DUP1 SWAP2 SUB SWAP1 RETURN JUMPDEST CALLVALUE DUP1 ISZERO PUSH2 0x149 JUMPI PUSH1 0x0 DUP1 REVERT JUMPDEST POP PUSH2 0x152 PUSH2 0x418 JUMP JUMPDEST PUSH1 0x40 MLOAD PUSH2 0x163 SWAP6 SWAP5 SWAP4 SWAP3 SWAP2 SWAP1 PUSH2 0x9BD JUMP JUMPDEST PUSH1 0x40 MLOAD DUP1 SWAP2 SUB SWAP1 RETURN JUMPDEST CALLVALUE DUP1 ISZERO PUSH2 0x178 JUMPI PUSH1 0x0 DUP1 REVERT JUMPDEST POP PUSH2 0x181 PUSH2 0x45C JUMP JUMPDEST PUSH1 0x40 MLOAD PUSH2 0x18E SWAP2 SWAP1 PUSH2 0xA10 JUMP JUMPDEST PUSH1 0x40 MLOAD DUP1 SWAP2 SUB SWAP1 RETURN JUMPDEST CALLVALUE DUP1 ISZERO PUSH2 0x1A3 JUMPI PUSH1 0x0 DUP1 REVERT JUMPDEST POP PUSH2 0x1BE PUSH1 0x4 DUP1 CALLDATASIZE SUB DUP2 ADD SWAP1 PUSH2 0x1B9 SWAP2 SWAP1 PUSH2 0x896 JUMP JUMPDEST PUSH2 0x480 JUMP JUMPDEST PUSH1 0x40 MLOAD PUSH2 0x1CF SWAP6 SWAP5 SWAP4 SWAP3 SWAP2 SWAP1 PUSH2 0xADC JUMP JUMPDEST PUSH1 0x40 MLOAD DUP1 SWAP2 SUB SWAP1 RETURN JUMPDEST CALLVALUE DUP1 ISZERO PUSH2 0x1E4 JUMPI PUSH1 0x0 DUP1 REVERT JUMPDEST POP PUSH2 0x1ED PUSH2 0x56B JUMP JUMPDEST PUSH1 0x40 MLOAD PUSH2 0x1FA SWAP2 SWAP1 PUSH2 0x993 JUMP JUMPDEST PUSH1 0x40 MLOAD DUP1 SWAP2 SUB SWAP1 RETURN JUMPDEST CALLVALUE DUP1 ISZERO PUSH2 0x20F JUMPI PUSH1 0x0 DUP1 REVERT JUMPDEST POP PUSH2 0x22A PUSH1 0x4 DUP1 CALLDATASIZE SUB DUP2 ADD SWAP1 PUSH2 0x225 SWAP2 SWAP1 PUSH2 0xC6B JUMP JUMPDEST PUSH2 0x571 JUMP JUMPDEST STOP JUMPDEST CALLVALUE DUP1 ISZERO PUSH2 0x238 JUMPI PUSH1 0x0 DUP1 REVERT JUMPDEST POP PUSH2 0x241 PUSH2 0x681 JUMP JUMPDEST PUSH1 0x40 MLOAD PUSH2 0x24E SWAP2 SWAP1 PUSH2 0x993 JUMP JUMPDEST PUSH1 0x40 MLOAD DUP1 SWAP2 SUB SWAP1 RETURN JUMPDEST CALLVALUE DUP1 ISZERO PUSH2 0x263 JUMPI PUSH1 0x0 DUP1 REVERT JUMPDEST POP PUSH2 0x26C PUSH2 0x687 JUMP JUMPDEST PUSH1 0x40 MLOAD PUSH2 0x279 SWAP2 SWAP1 PUSH2 0x993 JUMP JUMPDEST PUSH1 0x40 MLOAD DUP1 SWAP2 SUB SWAP1 RETURN JUMPDEST PUSH2 0x28A PUSH2 0x68D JUMP JUMPDEST STOP JUMPDEST CALLVALUE DUP1 ISZERO PUSH2 0x298 JUMPI PUSH1 0x0 DUP1 REVERT JUMPDEST POP PUSH2 0x2B3 PUSH1 0x4 DUP1 CALLDATASIZE SUB DUP2 ADD SWAP1 PUSH2 0x2AE SWAP2 SWAP1 PUSH2 0x896 JUMP JUMPDEST PUSH2 0x70E JUMP JUMPDEST STOP JUMPDEST PUSH1 0x0 DUP1 SLOAD SWAP1 PUSH2 0x100 EXP SWAP1 DIV PUSH20 0xFFFFFFFFFFFFFFFFFFFFFFFFFFFFFFFFFFFFFFFF AND PUSH20 0xFFFFFFFFFFFFFFFFFFFFFFFFFFFFFFFFFFFFFFFF AND CALLER PUSH20 0xFFFFFFFFFFFFFFFFFFFFFFFFFFFFFFFFFFFFFFFF AND EQ PUSH2 0x30D JUMPI PUSH1 0x0 DUP1 REVERT JUMPDEST PUSH1 0x0 PUSH1 0x5 PUSH1 0x0 DUP4 DUP2 MSTORE PUSH1 0x20 ADD SWAP1 DUP2 MSTORE PUSH1 0x20 ADD PUSH1 0x0 KECCAK256 SWAP1 POP DUP1 PUSH1 0x2 ADD PUSH1 0x14 SWAP1 SLOAD SWAP1 PUSH2 0x100 EXP SWAP1 DIV PUSH1 0xFF AND ISZERO PUSH2 0x340 JUMPI PUSH1 0x0 DUP1 REVERT JUMPDEST PUSH1 0x2 PUSH1 0x4 SLOAD PUSH2 0x34F SWAP2 SWAP1 PUSH2 0xD38 JUMP JUMPDEST DUP2 PUSH1 0x3 ADD SLOAD GT PUSH2 0x35E JUMPI PUSH1 0x0 DUP1 REVERT JUMPDEST DUP1 PUSH1 0x2 ADD PUSH1 0x0 SWAP1 SLOAD SWAP1 PUSH2 0x100 EXP SWAP1 DIV PUSH20 0xFFFFFFFFFFFFFFFFFFFFFFFFFFFFFFFFFFFFFFFF AND PUSH20 0xFFFFFFFFFFFFFFFFFFFFFFFFFFFFFFFFFFFFFFFF AND PUSH2 0x8FC DUP3 PUSH1 0x1 ADD SLOAD SWAP1 DUP2 ISZERO MUL SWAP1 PUSH1 0x40 MLOAD PUSH1 0x0 PUSH1 0x40 MLOAD DUP1 DUP4 SUB DUP2 DUP6 DUP9 DUP9 CALL SWAP4 POP POP POP POP ISZERO DUP1 ISZERO PUSH2 0x3CC JUMPI RETURNDATASIZE PUSH1 0x0 DUP1 RETURNDATACOPY RETURNDATASIZE PUSH1 0x0 REVERT JUMPDEST POP PUSH1 0x1 DUP2 PUSH1 0x2 ADD PUSH1 0x14 PUSH2 0x100 EXP DUP2 SLOAD DUP2 PUSH1 0xFF MUL NOT AND SWAP1 DUP4 ISZERO ISZERO MUL OR SWAP1 SSTORE POP POP POP JUMP JUMPDEST PUSH1 0x2 PUSH1 0x20 MSTORE DUP1 PUSH1 0x0 MSTORE PUSH1 0x40 PUSH1 0x0 KECCAK256 PUSH1 0x0 SWAP2 POP SLOAD SWAP1 PUSH2 0x100 EXP SWAP1 DIV PUSH1 0xFF AND DUP2 JUMP JUMPDEST PUSH1 0x0 PUSH1 0x1 SLOAD SWAP1 POP SWAP1 JUMP JUMPDEST PUSH1 0x0 DUP1 PUSH1 0x0 DUP1 PUSH1 0x0 PUSH1 0x3 SLOAD SELFBALANCE PUSH1 0x1 SLOAD PUSH1 0x4 SLOAD PUSH1 0x0 DUP1 SLOAD SWAP1 PUSH2 0x100 EXP SWAP1 DIV PUSH20 0xFFFFFFFFFFFFFFFFFFFFFFFFFFFFFFFFFFFFFFFF AND SWAP5 POP SWAP5 POP SWAP5 POP SWAP5 POP SWAP5 POP SWAP1 SWAP2 SWAP3 SWAP4 SWAP5 JUMP JUMPDEST PUSH1 0x0 DUP1 SLOAD SWAP1 PUSH2 0x100 EXP SWAP1 DIV PUSH20 0xFFFFFFFFFFFFFFFFFFFFFFFFFFFFFFFFFFFFFFFF AND DUP2 JUMP JUMPDEST PUSH1 0x5 PUSH1 0x20 MSTORE DUP1 PUSH1 0x0 MSTORE PUSH1 0x40 PUSH1 0x0 KECCAK256 PUSH1 0x0 SWAP2 POP SWAP1 POP DUP1 PUSH1 0x0 ADD DUP1 SLOAD PUSH2 0x4A3 SWAP1 PUSH2 0xD98 JUMP JUMPDEST DUP1 PUSH1 0x1F ADD PUSH1 0x20 DUP1 SWAP2 DIV MUL PUSH1 0x20 ADD PUSH1 0x40 MLOAD SWAP1 DUP2 ADD PUSH1 0x40 MSTORE DUP1 SWAP3 SWAP2 SWAP1 DUP2 DUP2 MSTORE PUSH1 0x20 ADD DUP3 DUP1 SLOAD PUSH2 0x4CF SWAP1 PUSH2 0xD98 JUMP JUMPDEST DUP1 ISZERO PUSH2 0x51C JUMPI DUP1 PUSH1 0x1F LT PUSH2 0x4F1 JUMPI PUSH2 0x100 DUP1 DUP4 SLOAD DIV MUL DUP4 MSTORE SWAP2 PUSH1 0x20 ADD SWAP2 PUSH2 0x51C JUMP JUMPDEST DUP3 ADD SWAP2 SWAP1 PUSH1 0x0 MSTORE PUSH1 0x20 PUSH1 0x0 KECCAK256 SWAP1 JUMPDEST DUP2 SLOAD DUP2 MSTORE SWAP1 PUSH1 0x1 ADD SWAP1 PUSH1 0x20 ADD DUP1 DUP4 GT PUSH2 0x4FF JUMPI DUP3 SWAP1 SUB PUSH1 0x1F AND DUP3 ADD SWAP2 JUMPDEST POP POP POP POP POP SWAP1 DUP1 PUSH1 0x1 ADD SLOAD SWAP1 DUP1 PUSH1 0x2 ADD PUSH1 0x0 SWAP1 SLOAD SWAP1 PUSH2 0x100 EXP SWAP1 DIV PUSH20 0xFFFFFFFFFFFFFFFFFFFFFFFFFFFFFFFFFFFFFFFF AND SWAP1 DUP1 PUSH1 0x2 ADD PUSH1 0x14 SWAP1 SLOAD SWAP1 PUSH2 0x100 EXP SWAP1 DIV PUSH1 0xFF AND SWAP1 DUP1 PUSH1 0x3 ADD SLOAD SWAP1 POP DUP6 JUMP JUMPDEST PUSH1 0x4 SLOAD DUP2 JUMP JUMPDEST PUSH1 0x0 DUP1 SLOAD SWAP1 PUSH2 0x100 EXP SWAP1 DIV PUSH20 0xFFFFFFFFFFFFFFFFFFFFFFFFFFFFFFFFFFFFFFFF AND PUSH20 0xFFFFFFFFFFFFFFFFFFFFFFFFFFFFFFFFFFFFFFFF AND CALLER PUSH20 0xFFFFFFFFFFFFFFFFFFFFFFFFFFFFFFFFFFFFFFFF AND EQ PUSH2 0x5C9 JUMPI PUSH1 0x0 DUP1 REVERT JUMPDEST PUSH1 0x0 PUSH1 0x5 PUSH1 0x0 PUSH1 0x1 PUSH1 0x0 DUP2 SLOAD DUP1 SWAP3 SWAP2 SWAP1 PUSH2 0x5E2 SWAP1 PUSH2 0xDC9 JUMP JUMPDEST SWAP2 SWAP1 POP SSTORE DUP2 MSTORE PUSH1 0x20 ADD SWAP1 DUP2 MSTORE PUSH1 0x20 ADD PUSH1 0x0 KECCAK256 SWAP1 POP DUP4 DUP2 PUSH1 0x0 ADD SWAP1 DUP2 PUSH2 0x607 SWAP2 SWAP1 PUSH2 0xFBD JUMP JUMPDEST POP DUP3 DUP2 PUSH1 0x1 ADD DUP2 SWAP1 SSTORE POP DUP2 DUP2 PUSH1 0x2 ADD PUSH1 0x0 PUSH2 0x100 EXP DUP2 SLOAD DUP2 PUSH20 0xFFFFFFFFFFFFFFFFFFFFFFFFFFFFFFFFFFFFFFFF MUL NOT AND SWAP1 DUP4 PUSH20 0xFFFFFFFFFFFFFFFFFFFFFFFFFFFFFFFFFFFFFFFF AND MUL OR SWAP1 SSTORE POP PUSH1 0x0 DUP2 PUSH1 0x2 ADD PUSH1 0x14 PUSH2 0x100 EXP DUP2 SLOAD DUP2 PUSH1 0xFF MUL NOT AND SWAP1 DUP4 ISZERO ISZERO MUL OR SWAP1 SSTORE POP PUSH1 0x0 DUP2 PUSH1 0x3 ADD DUP2 SWAP1 SSTORE POP POP POP POP POP JUMP JUMPDEST PUSH1 0x3 SLOAD DUP2 JUMP JUMPDEST PUSH1 0x1 SLOAD DUP2 JUMP JUMPDEST PUSH1 0x3 SLOAD CALLVALUE LT ISZERO PUSH2 0x69C JUMPI PUSH1 0x0 DUP1 REVERT JUMPDEST PUSH1 0x1 PUSH1 0x2 PUSH1 0x0 CALLER PUSH20 0xFFFFFFFFFFFFFFFFFFFFFFFFFFFFFFFFFFFFFFFF AND PUSH20 0xFFFFFFFFFFFFFFFFFFFFFFFFFFFFFFFFFFFFFFFF AND DUP2 MSTORE PUSH1 0x20 ADD SWAP1 DUP2 MSTORE PUSH1 0x20 ADD PUSH1 0x0 KECCAK256 PUSH1 0x0 PUSH2 0x100 EXP DUP2 SLOAD DUP2 PUSH1 0xFF MUL NOT AND SWAP1 DUP4 ISZERO ISZERO MUL OR SWAP1 SSTORE POP PUSH1 0x4 PUSH1 0x0 DUP2 SLOAD DUP1 SWAP3 SWAP2 SWAP1 PUSH2 0x707 SWAP1 PUSH2 0xDC9 JUMP JUMPDEST SWAP2 SWAP1 POP SSTORE POP JUMP JUMPDEST PUSH1 0x0 PUSH1 0x5 PUSH1 0x0 DUP4 DUP2 MSTORE PUSH1 0x20 ADD SWAP1 DUP2 MSTORE PUSH1 0x20 ADD PUSH1 0x0 KECCAK256 SWAP1 POP PUSH1 0x2 PUSH1 0x0 CALLER PUSH20 0xFFFFFFFFFFFFFFFFFFFFFFFFFFFFFFFFFFFFFFFF AND PUSH20 0xFFFFFFFFFFFFFFFFFFFFFFFFFFFFFFFFFFFFFFFF AND DUP2 MSTORE PUSH1 0x20 ADD SWAP1 DUP2 MSTORE PUSH1 0x20 ADD PUSH1 0x0 KECCAK256 PUSH1 0x0 SWAP1 SLOAD SWAP1 PUSH2 0x100 EXP SWAP1 DIV PUSH1 0xFF AND PUSH2 0x77B JUMPI PUSH1 0x0 DUP1 REVERT JUMPDEST DUP1 PUSH1 0x4 ADD PUSH1 0x0 CALLER PUSH20 0xFFFFFFFFFFFFFFFFFFFFFFFFFFFFFFFFFFFFFFFF AND PUSH20 0xFFFFFFFFFFFFFFFFFFFFFFFFFFFFFFFFFFFFFFFF AND DUP2 MSTORE PUSH1 0x20 ADD SWAP1 DUP2 MSTORE PUSH1 0x20 ADD PUSH1 0x0 KECCAK256 PUSH1 0x0 SWAP1 SLOAD SWAP1 PUSH2 0x100 EXP SWAP1 DIV PUSH1 0xFF AND ISZERO PUSH2 0x7D4 JUMPI PUSH1 0x0 DUP1 REVERT JUMPDEST PUSH1 0x1 DUP2 PUSH1 0x4 ADD PUSH1 0x0 CALLER PUSH20 0xFFFFFFFFFFFFFFFFFFFFFFFFFFFFFFFFFFFFFFFF AND PUSH20 0xFFFFFFFFFFFFFFFFFFFFFFFFFFFFFFFFFFFFFFFF AND DUP2 MSTORE PUSH1 0x20 ADD SWAP1 DUP2 MSTORE PUSH1 0x20 ADD PUSH1 0x0 KECCAK256 PUSH1 0x0 PUSH2 0x100 EXP DUP2 SLOAD DUP2 PUSH1 0xFF MUL NOT AND SWAP1 DUP4 ISZERO ISZERO MUL OR SWAP1 SSTORE POP DUP1 PUSH1 0x3 ADD PUSH1 0x0 DUP2 SLOAD DUP1 SWAP3 SWAP2 SWAP1 PUSH2 0x843 SWAP1 PUSH2 0xDC9 JUMP JUMPDEST SWAP2 SWAP1 POP SSTORE POP POP POP JUMP JUMPDEST PUSH1 0x0 PUSH1 0x40 MLOAD SWAP1 POP SWAP1 JUMP JUMPDEST PUSH1 0x0 DUP1 REVERT JUMPDEST PUSH1 0x0 DUP1 REVERT JUMPDEST PUSH1 0x0 DUP2 SWAP1 POP SWAP2 SWAP1 POP JUMP JUMPDEST PUSH2 0x873 DUP2 PUSH2 0x860 JUMP JUMPDEST DUP2 EQ PUSH2 0x87E JUMPI PUSH1 0x0 DUP1 REVERT JUMPDEST POP JUMP JUMPDEST PUSH1 0x0 DUP2 CALLDATALOAD SWAP1 POP PUSH2 0x890 DUP2 PUSH2 0x86A JUMP JUMPDEST SWAP3 SWAP2 POP POP JUMP JUMPDEST PUSH1 0x0 PUSH1 0x20 DUP3 DUP5 SUB SLT ISZERO PUSH2 0x8AC JUMPI PUSH2 0x8AB PUSH2 0x856 JUMP JUMPDEST JUMPDEST PUSH1 0x0 PUSH2 0x8BA DUP5 DUP3 DUP6 ADD PUSH2 0x881 JUMP JUMPDEST SWAP2 POP POP SWAP3 SWAP2 POP POP JUMP JUMPDEST PUSH1 0x0 PUSH20 0xFFFFFFFFFFFFFFFFFFFFFFFFFFFFFFFFFFFFFFFF DUP3 AND SWAP1 POP SWAP2 SWAP1 POP JUMP JUMPDEST PUSH1 0x0 PUSH2 0x8EE DUP3 PUSH2 0x8C3 JUMP JUMPDEST SWAP1 POP SWAP2 SWAP1 POP JUMP JUMPDEST PUSH2 0x8FE DUP2 PUSH2 0x8E3 JUMP JUMPDEST DUP2 EQ PUSH2 0x909 JUMPI PUSH1 0x0 DUP1 REVERT JUMPDEST POP JUMP JUMPDEST PUSH1 0x0 DUP2 CALLDATALOAD SWAP1 POP PUSH2 0x91B DUP2 PUSH2 0x8F5 JUMP JUMPDEST SWAP3 SWAP2 POP POP JUMP JUMPDEST PUSH1 0x0 PUSH1 0x20 DUP3 DUP5 SUB SLT ISZERO PUSH2 0x937 JUMPI PUSH2 0x936 PUSH2 0x856 JUMP JUMPDEST JUMPDEST PUSH1 0x0 PUSH2 0x945 DUP5 DUP3 DUP6 ADD PUSH2 0x90C JUMP JUMPDEST SWAP2 POP POP SWAP3 SWAP2 POP POP JUMP JUMPDEST PUSH1 0x0 DUP2 ISZERO ISZERO SWAP1 POP SWAP2 SWAP1 POP JUMP JUMPDEST PUSH2 0x963 DUP2 PUSH2 0x94E JUMP JUMPDEST DUP3 MSTORE POP POP JUMP JUMPDEST PUSH1 0x0 PUSH1 0x20 DUP3 ADD SWAP1 POP PUSH2 0x97E PUSH1 0x0 DUP4 ADD DUP5 PUSH2 0x95A JUMP JUMPDEST SWAP3 SWAP2 POP POP JUMP JUMPDEST PUSH2 0x98D DUP2 PUSH2 0x860 JUMP JUMPDEST DUP3 MSTORE POP POP JUMP JUMPDEST PUSH1 0x0 PUSH1 0x20 DUP3 ADD SWAP1 POP PUSH2 0x9A8 PUSH1 0x0 DUP4 ADD DUP5 PUSH2 0x984 JUMP JUMPDEST SWAP3 SWAP2 POP POP JUMP JUMPDEST PUSH2 0x9B7 DUP2 PUSH2 0x8E3 JUMP JUMPDEST DUP3 MSTORE POP POP JUMP JUMPDEST PUSH1 0x0 PUSH1 0xA0 DUP3 ADD SWAP1 POP PUSH2 0x9D2 PUSH1 0x0 DUP4 ADD DUP9 PUSH2 0x984 JUMP JUMPDEST PUSH2 0x9DF PUSH1 0x20 DUP4 ADD DUP8 PUSH2 0x984 JUMP JUMPDEST PUSH2 0x9EC PUSH1 0x40 DUP4 ADD DUP7 PUSH2 0x984 JUMP JUMPDEST PUSH2 0x9F9 PUSH1 0x60 DUP4 ADD DUP6 PUSH2 0x984 JUMP JUMPDEST PUSH2 0xA06 PUSH1 0x80 DUP4 ADD DUP5 PUSH2 0x9AE JUMP JUMPDEST SWAP7 SWAP6 POP POP POP POP POP POP JUMP JUMPDEST PUSH1 0x0 PUSH1 0x20 DUP3 ADD SWAP1 POP PUSH2 0xA25 PUSH1 0x0 DUP4 ADD DUP5 PUSH2 0x9AE JUMP JUMPDEST SWAP3 SWAP2 POP POP JUMP JUMPDEST PUSH1 0x0 DUP2 MLOAD SWAP1 POP SWAP2 SWAP1 POP JUMP JUMPDEST PUSH1 0x0 DUP3 DUP3 MSTORE PUSH1 0x20 DUP3 ADD SWAP1 POP SWAP3 SWAP2 POP POP JUMP JUMPDEST PUSH1 0x0 JUMPDEST DUP4 DUP2 LT ISZERO PUSH2 0xA65 JUMPI DUP1 DUP3 ADD MLOAD DUP2 DUP5 ADD MSTORE PUSH1 0x20 DUP2 ADD SWAP1 POP PUSH2 0xA4A JUMP JUMPDEST PUSH1 0x0 DUP5 DUP5 ADD MSTORE POP POP POP POP JUMP JUMPDEST PUSH1 0x0 PUSH1 0x1F NOT PUSH1 0x1F DUP4 ADD AND SWAP1 POP SWAP2 SWAP1 POP JUMP JUMPDEST PUSH1 0x0 PUSH2 0xA8D DUP3 PUSH2 0xA2B JUMP JUMPDEST PUSH2 0xA97 DUP2 DUP6 PUSH2 0xA36 JUMP JUMPDEST SWAP4 POP PUSH2 0xAA7 DUP2 DUP6 PUSH1 0x20 DUP7 ADD PUSH2 0xA47 JUMP JUMPDEST PUSH2 0xAB0 DUP2 PUSH2 0xA71 JUMP JUMPDEST DUP5 ADD SWAP2 POP POP SWAP3 SWAP2 POP POP JUMP JUMPDEST PUSH1 0x0 PUSH2 0xAC6 DUP3 PUSH2 0x8C3 JUMP JUMPDEST SWAP1 POP SWAP2 SWAP1 POP JUMP JUMPDEST PUSH2 0xAD6 DUP2 PUSH2 0xABB JUMP JUMPDEST DUP3 MSTORE POP POP JUMP JUMPDEST PUSH1 0x0 PUSH1 0xA0 DUP3 ADD SWAP1 POP DUP2 DUP2 SUB PUSH1 0x0 DUP4 ADD MSTORE PUSH2 0xAF6 DUP2 DUP9 PUSH2 0xA82 JUMP JUMPDEST SWAP1 POP PUSH2 0xB05 PUSH1 0x20 DUP4 ADD DUP8 PUSH2 0x984 JUMP JUMPDEST PUSH2 0xB12 PUSH1 0x40 DUP4 ADD DUP7 PUSH2 0xACD JUMP JUMPDEST PUSH2 0xB1F PUSH1 0x60 DUP4 ADD DUP6 PUSH2 0x95A JUMP JUMPDEST PUSH2 0xB2C PUSH1 0x80 DUP4 ADD DUP5 PUSH2 0x984 JUMP JUMPDEST SWAP7 SWAP6 POP POP POP POP POP POP JUMP JUMPDEST PUSH1 0x0 DUP1 REVERT JUMPDEST PUSH1 0x0 DUP1 REVERT JUMPDEST PUSH32 0x4E487B7100000000000000000000000000000000000000000000000000000000 PUSH1 0x0 MSTORE PUSH1 0x41 PUSH1 0x4 MSTORE PUSH1 0x24 PUSH1 0x0 REVERT JUMPDEST PUSH2 0xB78 DUP3 PUSH2 0xA71 JUMP JUMPDEST DUP2 ADD DUP2 DUP2 LT PUSH8 0xFFFFFFFFFFFFFFFF DUP3 GT OR ISZERO PUSH2 0xB97 JUMPI PUSH2 0xB96 PUSH2 0xB40 JUMP JUMPDEST JUMPDEST DUP1 PUSH1 0x40 MSTORE POP POP POP JUMP JUMPDEST PUSH1 0x0 PUSH2 0xBAA PUSH2 0x84C JUMP JUMPDEST SWAP1 POP PUSH2 0xBB6 DUP3 DUP3 PUSH2 0xB6F JUMP JUMPDEST SWAP2 SWAP1 POP JUMP JUMPDEST PUSH1 0x0 PUSH8 0xFFFFFFFFFFFFFFFF DUP3 GT ISZERO PUSH2 0xBD6 JUMPI PUSH2 0xBD5 PUSH2 0xB40 JUMP JUMPDEST JUMPDEST PUSH2 0xBDF DUP3 PUSH2 0xA71 JUMP JUMPDEST SWAP1 POP PUSH1 0x20 DUP2 ADD SWAP1 POP SWAP2 SWAP1 POP JUMP JUMPDEST DUP3 DUP2 DUP4 CALLDATACOPY PUSH1 0x0 DUP4 DUP4 ADD MSTORE POP POP POP JUMP JUMPDEST PUSH1 0x0 PUSH2 0xC0E PUSH2 0xC09 DUP5 PUSH2 0xBBB JUMP JUMPDEST PUSH2 0xBA0 JUMP JUMPDEST SWAP1 POP DUP3 DUP2 MSTORE PUSH1 0x20 DUP2 ADD DUP5 DUP5 DUP5 ADD GT ISZERO PUSH2 0xC2A JUMPI PUSH2 0xC29 PUSH2 0xB3B JUMP JUMPDEST JUMPDEST PUSH2 0xC35 DUP5 DUP3 DUP6 PUSH2 0xBEC JUMP JUMPDEST POP SWAP4 SWAP3 POP POP POP JUMP JUMPDEST PUSH1 0x0 DUP3 PUSH1 0x1F DUP4 ADD SLT PUSH2 0xC52 JUMPI PUSH2 0xC51 PUSH2 0xB36 JUMP JUMPDEST JUMPDEST DUP2 CALLDATALOAD PUSH2 0xC62 DUP5 DUP3 PUSH1 0x20 DUP7 ADD PUSH2 0xBFB JUMP JUMPDEST SWAP2 POP POP SWAP3 SWAP2 POP POP JUMP JUMPDEST PUSH1 0x0 DUP1 PUSH1 0x0 PUSH1 0x60 DUP5 DUP7 SUB SLT ISZERO PUSH2 0xC84 JUMPI PUSH2 0xC83 PUSH2 0x856 JUMP JUMPDEST JUMPDEST PUSH1 0x0 DUP5 ADD CALLDATALOAD PUSH8 0xFFFFFFFFFFFFFFFF DUP2 GT ISZERO PUSH2 0xCA2 JUMPI PUSH2 0xCA1 PUSH2 0x85B JUMP JUMPDEST JUMPDEST PUSH2 0xCAE DUP7 DUP3 DUP8 ADD PUSH2 0xC3D JUMP JUMPDEST SWAP4 POP POP PUSH1 0x20 PUSH2 0xCBF DUP7 DUP3 DUP8 ADD PUSH2 0x881 JUMP JUMPDEST SWAP3 POP POP PUSH1 0x40 PUSH2 0xCD0 DUP7 DUP3 DUP8 ADD PUSH2 0x90C JUMP JUMPDEST SWAP2 POP POP SWAP3 POP SWAP3 POP SWAP3 JUMP JUMPDEST PUSH32 0x4E487B7100000000000000000000000000000000000000000000000000000000 PUSH1 0x0 MSTORE PUSH1 0x12 PUSH1 0x4 MSTORE PUSH1 0x24 PUSH1 0x0 REVERT JUMPDEST PUSH32 0x4E487B7100000000000000000000000000000000000000000000000000000000 PUSH1 0x0 MSTORE PUSH1 0x11 PUSH1 0x4 MSTORE PUSH1 0x24 PUSH1 0x0 REVERT JUMPDEST PUSH1 0x0 PUSH2 0xD43 DUP3 PUSH2 0x860 JUMP JUMPDEST SWAP2 POP PUSH2 0xD4E DUP4 PUSH2 0x860 JUMP JUMPDEST SWAP3 POP DUP3 PUSH2 0xD5E JUMPI PUSH2 0xD5D PUSH2 0xCDA JUMP JUMPDEST JUMPDEST DUP3 DUP3 DIV SWAP1 POP SWAP3 SWAP2 POP POP JUMP JUMPDEST PUSH32 0x4E487B7100000000000000000000000000000000000000000000000000000000 PUSH1 0x0 MSTORE PUSH1 0x22 PUSH1 0x4 MSTORE PUSH1 0x24 PUSH1 0x0 REVERT JUMPDEST PUSH1 0x0 PUSH1 0x2 DUP3 DIV SWAP1 POP PUSH1 0x1 DUP3 AND DUP1 PUSH2 0xDB0 JUMPI PUSH1 0x7F DUP3 AND SWAP2 POP JUMPDEST PUSH1 0x20 DUP3 LT DUP2 SUB PUSH2 0xDC3 JUMPI PUSH2 0xDC2 PUSH2 0xD69 JUMP JUMPDEST JUMPDEST POP SWAP2 SWAP1 POP JUMP JUMPDEST PUSH1 0x0 PUSH2 0xDD4 DUP3 PUSH2 0x860 JUMP JUMPDEST SWAP2 POP PUSH32 0xFFFFFFFFFFFFFFFFFFFFFFFFFFFFFFFFFFFFFFFFFFFFFFFFFFFFFFFFFFFFFFFF DUP3 SUB PUSH2 0xE06 JUMPI PUSH2 0xE05 PUSH2 0xD09 JUMP JUMPDEST JUMPDEST PUSH1 0x1 DUP3 ADD SWAP1 POP SWAP2 SWAP1 POP JUMP JUMPDEST PUSH1 0x0 DUP2 SWAP1 POP DUP2 PUSH1 0x0 MSTORE PUSH1 0x20 PUSH1 0x0 KECCAK256 SWAP1 POP SWAP2 SWAP1 POP JUMP JUMPDEST PUSH1 0x0 PUSH1 0x20 PUSH1 0x1F DUP4 ADD DIV SWAP1 POP SWAP2 SWAP1 POP JUMP JUMPDEST PUSH1 0x0 DUP3 DUP3 SHL SWAP1 POP SWAP3 SWAP2 POP POP JUMP JUMPDEST PUSH1 0x0 PUSH1 0x8 DUP4 MUL PUSH2 0xE73 PUSH32 0xFFFFFFFFFFFFFFFFFFFFFFFFFFFFFFFFFFFFFFFFFFFFFFFFFFFFFFFFFFFFFFFF DUP3 PUSH2 0xE36 JUMP JUMPDEST PUSH2 0xE7D DUP7 DUP4 PUSH2 0xE36 JUMP JUMPDEST SWAP6 POP DUP1 NOT DUP5 AND SWAP4 POP DUP1 DUP7 AND DUP5 OR SWAP3 POP POP POP SWAP4 SWAP3 POP POP POP JUMP JUMPDEST PUSH1 0x0 DUP2 SWAP1 POP SWAP2 SWAP1 POP JUMP JUMPDEST PUSH1 0x0 PUSH2 0xEBA PUSH2 0xEB5 PUSH2 0xEB0 DUP5 PUSH2 0x860 JUMP JUMPDEST PUSH2 0xE95 JUMP JUMPDEST PUSH2 0x860 JUMP JUMPDEST SWAP1 POP SWAP2 SWAP1 POP JUMP JUMPDEST PUSH1 0x0 DUP2 SWAP1 POP SWAP2 SWAP1 POP JUMP JUMPDEST PUSH2 0xED4 DUP4 PUSH2 0xE9F JUMP JUMPDEST PUSH2 0xEE8 PUSH2 0xEE0 DUP3 PUSH2 0xEC1 JUMP JUMPDEST DUP5 DUP5 SLOAD PUSH2 0xE43 JUMP JUMPDEST DUP3 SSTORE POP POP POP POP JUMP JUMPDEST PUSH1 0x0 SWAP1 JUMP JUMPDEST PUSH2 0xEFD PUSH2 0xEF0 JUMP JUMPDEST PUSH2 0xF08 DUP2 DUP5 DUP5 PUSH2 0xECB JUMP JUMPDEST POP POP POP JUMP JUMPDEST JUMPDEST DUP2 DUP2 LT ISZERO PUSH2 0xF2C JUMPI PUSH2 0xF21 PUSH1 0x0 DUP3 PUSH2 0xEF5 JUMP JUMPDEST PUSH1 0x1 DUP2 ADD SWAP1 POP PUSH2 0xF0E JUMP JUMPDEST POP POP JUMP JUMPDEST PUSH1 0x1F DUP3 GT ISZERO PUSH2 0xF71 JUMPI PUSH2 0xF42 DUP2 PUSH2 0xE11 JUMP JUMPDEST PUSH2 0xF4B DUP5 PUSH2 0xE26 JUMP JUMPDEST DUP2 ADD PUSH1 0x20 DUP6 LT ISZERO PUSH2 0xF5A JUMPI DUP2 SWAP1 POP JUMPDEST PUSH2 0xF6E PUSH2 0xF66 DUP6 PUSH2 0xE26 JUMP JUMPDEST DUP4 ADD DUP3 PUSH2 0xF0D JUMP JUMPDEST POP POP JUMPDEST POP POP POP JUMP JUMPDEST PUSH1 0x0 DUP3 DUP3 SHR SWAP1 POP SWAP3 SWAP2 POP POP JUMP JUMPDEST PUSH1 0x0 PUSH2 0xF94 PUSH1 0x0 NOT DUP5 PUSH1 0x8 MUL PUSH2 0xF76 JUMP JUMPDEST NOT DUP1 DUP4 AND SWAP2 POP POP SWAP3 SWAP2 POP POP JUMP JUMPDEST PUSH1 0x0 PUSH2 0xFAD DUP4 DUP4 PUSH2 0xF83 JUMP JUMPDEST SWAP2 POP DUP3 PUSH1 0x2 MUL DUP3 OR SWAP1 POP SWAP3 SWAP2 POP POP JUMP JUMPDEST PUSH2 0xFC6 DUP3 PUSH2 0xA2B JUMP JUMPDEST PUSH8 0xFFFFFFFFFFFFFFFF DUP2 GT ISZERO PUSH2 0xFDF JUMPI PUSH2 0xFDE PUSH2 0xB40 JUMP JUMPDEST JUMPDEST PUSH2 0xFE9 DUP3 SLOAD PUSH2 0xD98 JUMP JUMPDEST PUSH2 0xFF4 DUP3 DUP3 DUP6 PUSH2 0xF30 JUMP JUMPDEST PUSH1 0x0 PUSH1 0x20 SWAP1 POP PUSH1 0x1F DUP4 GT PUSH1 0x1 DUP2 EQ PUSH2 0x1027 JUMPI PUSH1 0x0 DUP5 ISZERO PUSH2 0x1015 JUMPI DUP3 DUP8 ADD MLOAD SWAP1 POP JUMPDEST PUSH2 0x101F DUP6 DUP3 PUSH2 0xFA1 JUMP JUMPDEST DUP7 SSTORE POP PUSH2 0x1087 JUMP JUMPDEST PUSH1 0x1F NOT DUP5 AND PUSH2 0x1035 DUP7 PUSH2 0xE11 JUMP JUMPDEST PUSH1 0x0 JUMPDEST DUP3 DUP2 LT ISZERO PUSH2 0x105D JUMPI DUP5 DUP10 ADD MLOAD DUP3 SSTORE PUSH1 0x1 DUP3 ADD SWAP2 POP PUSH1 0x20 DUP6 ADD SWAP5 POP PUSH1 0x20 DUP2 ADD SWAP1 POP PUSH2 0x1038 JUMP JUMPDEST DUP7 DUP4 LT ISZERO PUSH2 0x107A JUMPI DUP5 DUP10 ADD MLOAD PUSH2 0x1076 PUSH1 0x1F DUP10 AND DUP3 PUSH2 0xF83 JUMP JUMPDEST DUP4 SSTORE POP JUMPDEST PUSH1 0x1 PUSH1 0x2 DUP9 MUL ADD DUP9 SSTORE POP POP POP JUMPDEST POP POP POP POP POP POP JUMP INVALID LOG2 PUSH5 0x6970667358 0x22 SLT KECCAK256 SLT PUSH17 0x6D693E4AEFFC2EC4E475C4F8A0BAFB7E6D 0x4F 0x26 0xE8 0xD4 PUSH6 0x281A649B668 RETURNDATACOPY 0xC9 PUSH5 0x736F6C6343 STOP ADDMOD LT STOP CALLER "},"gasEstimates":{"creation":{"codeDepositCost":"858600","executionCost":"infinite","totalCost":"infinite"},"external":{"approveRequest(uint256)":"infinite","approvers(address)":"2868","approversCount()":"2429","contribute()":"51046","createRequest(string,uint256,address)":"infinite","finalizeRequest(uint256)":"infinite","getRequestsCount()":"2482","getSummary()":"infinite","manager()":"2600","minimumContribution()":"2473","numRequests()":"2495","requests(uint256)":"infinite"}},"methodIdentifiers":{"approveRequest(uint256)":"d7d1bbdb","approvers(address)":"0a144391","approversCount()":"82fde093","contribute()":"d7bb99ba","createRequest(string,uint256,address)":"8a9cfd55","finalizeRequest(uint256)":"03441006","getRequestsCount()":"3410452a","getSummary()":"4051ddac","manager()":"481c6a75","minimumContribution()":"937e09b1","numRequests()":"9fb42b1f","requests(uint256)":"81d12c58"}},"storageLayout":{"storage":[{"astId":56,"contract":"Campaign.sol:Campaign","label":"manager","offset":0,"slot":"0","type":"t_address"},{"astId":58,"contract":"Campaign.sol:Campaign","label":"numRequests","offset":0,"slot":"1","type":"t_uint256"},{"astId":62,"contract":"Campaign.sol:Campaign","label":"approvers","offset":0,"slot":"2","type":"t_mapping(t_address,t_bool)"},{"astId":64,"contract":"Campaign.sol:Campaign","label":"minimumContribution","offset":0,"slot":"3","type":"t_uint256"},{"astId":66,"contract":"Campaign.sol:Campaign","label":"approversCount","offset":0,"slot":"4","type":"t_uint256"},{"astId":71,"contract":"Campaign.sol:Campaign","label":"requests","offset":0,"slot":"5","type":"t_mapping(t_uint256,t_struct(Request)54_storage)"}],"types":{"t_address":{"encoding":"inplace","label":"address","numberOfBytes":"20"},"t_address_payable":{"encoding":"inplace","label":"address payable","numberOfBytes":"20"},"t_bool":{"encoding":"inplace","label":"bool","numberOfBytes":"1"},"t_mapping(t_address,t_bool)":{"encoding":"mapping","key":"t_address","label":"mapping(address => bool)","numberOfBytes":"32","value":"t_bool"},"t_mapping(t_uint256,t_struct(Request)54_storage)":{"encoding":"mapping","key":"t_uint256","label":"mapping(uint256 => struct Campaign.Request)","numberOfBytes":"32","value":"t_struct(Request)54_storage"},"t_string_storage":{"encoding":"bytes","label":"string","numberOfBytes":"32"},"t_struct(Request)54_storage":{"encoding":"inplace","label":"struct Campaign.Request","members":[{"astId":41,"contract":"Campaign.sol:Campaign","label":"description","offset":0,"slot":"0","type":"t_string_storage"},{"astId":43,"contract":"Campaign.sol:Campaign","label":"value","offset":0,"slot":"1","type":"t_uint256"},{"astId":45,"contract":"Campaign.sol:Campaign","label":"recipient","offset":0,"slot":"2","type":"t_address_payable"},{"astId":47,"contract":"Campaign.sol:Campaign","label":"complete","offset":20,"slot":"2","type":"t_bool"},{"astId":49,"contract":"Campaign.sol:Campaign","label":"approvalCount","offset":0,"slot":"3","type":"t_uint256"},{"astId":53,"contract":"Campaign.sol:Campaign","label":"approvals","offset":0,"slot":"4","type":"t_mapping(t_address,t_bool)"}],"numberOfBytes":"160"},"t_uint256":{"encoding":"inplace","label":"uint256","numberOfBytes":"32"}}},"userdoc":{"kind":"user","methods":{},"version":1}}